{
  "contractName": "FirstPriceAuction",
  "abi": [
    {
      "inputs": [
        {
          "internalType": "uint256",
          "name": "_biddingTime",
          "type": "uint256"
        },
        {
          "internalType": "uint256",
          "name": "_revealTime",
          "type": "uint256"
        },
        {
          "internalType": "address payable",
          "name": "_beneficiary",
          "type": "address"
        }
      ],
      "payable": false,
      "stateMutability": "nonpayable",
      "type": "constructor"
    },
    {
      "constant": true,
      "inputs": [],
      "name": "beneficiary",
      "outputs": [
        {
          "internalType": "address payable",
          "name": "",
          "type": "address"
        }
      ],
      "payable": false,
      "stateMutability": "view",
      "type": "function"
    },
    {
      "constant": true,
      "inputs": [],
      "name": "biddingEnd",
      "outputs": [
        {
          "internalType": "uint256",
          "name": "",
          "type": "uint256"
        }
      ],
      "payable": false,
      "stateMutability": "view",
      "type": "function"
    },
    {
      "constant": true,
      "inputs": [
        {
          "internalType": "address",
          "name": "",
          "type": "address"
        },
        {
          "internalType": "uint256",
          "name": "",
          "type": "uint256"
        }
      ],
      "name": "bids",
      "outputs": [
        {
          "internalType": "bytes32",
          "name": "blindedBid",
          "type": "bytes32"
        },
        {
          "internalType": "uint256",
          "name": "deposit",
          "type": "uint256"
        }
      ],
      "payable": false,
      "stateMutability": "view",
      "type": "function"
    },
    {
      "constant": true,
      "inputs": [],
      "name": "ended",
      "outputs": [
        {
          "internalType": "bool",
          "name": "",
          "type": "bool"
        }
      ],
      "payable": false,
      "stateMutability": "view",
      "type": "function"
    },
    {
      "constant": true,
      "inputs": [],
      "name": "revealEnd",
      "outputs": [
        {
          "internalType": "uint256",
          "name": "",
          "type": "uint256"
        }
      ],
      "payable": false,
      "stateMutability": "view",
      "type": "function"
    },
    {
      "constant": false,
      "inputs": [
        {
          "internalType": "address",
          "name": "bidder",
          "type": "address"
        },
        {
          "internalType": "bytes32",
          "name": "_blindedBid",
          "type": "bytes32"
        },
        {
          "internalType": "uint256",
          "name": "deposit",
          "type": "uint256"
        }
      ],
      "name": "bid",
      "outputs": [],
      "payable": false,
      "stateMutability": "nonpayable",
      "type": "function"
    },
    {
      "constant": false,
      "inputs": [
        {
          "internalType": "uint256[]",
          "name": "values",
          "type": "uint256[]"
        },
        {
          "internalType": "bool[]",
          "name": "fakes",
          "type": "bool[]"
        },
        {
          "internalType": "bytes32",
          "name": "secrets",
          "type": "bytes32"
        },
        {
          "internalType": "address",
          "name": "bidder",
          "type": "address"
        }
      ],
      "name": "reveal",
      "outputs": [
        {
          "internalType": "uint256",
          "name": "",
          "type": "uint256"
        }
      ],
      "payable": false,
      "stateMutability": "nonpayable",
      "type": "function"
    },
    {
      "constant": false,
      "inputs": [
        {
          "internalType": "address",
          "name": "bidder",
          "type": "address"
        }
      ],
      "name": "pendingMoney",
      "outputs": [
        {
          "internalType": "uint256",
          "name": "",
          "type": "uint256"
        }
      ],
      "payable": false,
      "stateMutability": "nonpayable",
      "type": "function"
    },
    {
      "constant": false,
      "inputs": [],
      "name": "auctionEnd",
      "outputs": [],
      "payable": false,
      "stateMutability": "nonpayable",
      "type": "function"
    }
  ],
  "bytecode": "0x60806040523480156200001157600080fd5b5060405162000e4538038062000e458339818101604052620000379190810190620000c2565b806000806101000a81548173ffffffffffffffffffffffffffffffffffffffff021916908373ffffffffffffffffffffffffffffffffffffffff16021790555082420160018190555081600154016002819055505050506200018a565b600081519050620000a58162000156565b92915050565b600081519050620000bc8162000170565b92915050565b600080600060608486031215620000d857600080fd5b6000620000e886828701620000ab565b9350506020620000fb86828701620000ab565b92505060406200010e8682870162000094565b9150509250925092565b600062000125826200012c565b9050919050565b600073ffffffffffffffffffffffffffffffffffffffff82169050919050565b6000819050919050565b620001618162000118565b81146200016d57600080fd5b50565b6200017b816200014c565b81146200018757600080fd5b50565b610cab806200019a6000396000f3fe608060405234801561001057600080fd5b50600436106100935760003560e01c80633b379797116100665780633b3797971461010f578063423b217f1461013f578063a6e664771461015d578063e9b036e91461017b578063fb31c409146101ab57610093565b806301495c1c1461009857806312fa6feb146100c95780632a24f46c146100e757806338af3eed146100f1575b600080fd5b6100b260048036036100ad91908101906108df565b6101c7565b6040516100c0929190610aa2565b60405180910390f35b6100d1610205565b6040516100de9190610a87565b60405180910390f35b6100ef610218565b005b6100f961029f565b6040516101069190610a6c565b60405180910390f35b6101296004803603610124919081019061091b565b6102c4565b6040516101369190610acb565b60405180910390f35b61014761048a565b6040516101549190610acb565b60405180910390f35b610165610490565b6040516101729190610acb565b60405180910390f35b61019560048036036101909190810190610867565b610496565b6040516101a29190610acb565b60405180910390f35b6101c560048036036101c09190810190610890565b610533565b005b600560205281600052604060002081815481106101e057fe5b9060005260206000209060020201600091509150508060000154908060010154905082565b600360009054906101000a900460ff1681565b6001600360006101000a81548160ff0219169083151502179055506000809054906101000a900473ffffffffffffffffffffffffffffffffffffffff1673ffffffffffffffffffffffffffffffffffffffff166108fc6007549081150290604051600060405180830381858888f1935050505015801561029c573d6000803e3d6000fd5b50565b6000809054906101000a900473ffffffffffffffffffffffffffffffffffffffff1681565b60006001548042116102d557600080fd5b6002548042106102e457600080fd5b6000600560008673ffffffffffffffffffffffffffffffffffffffff1673ffffffffffffffffffffffffffffffffffffffff1681526020019081526020016000208054905090508088511461033857600080fd5b8087511461034557600080fd5b600080905060008090505b8281101561047a576000600560008973ffffffffffffffffffffffffffffffffffffffff1673ffffffffffffffffffffffffffffffffffffffff16815260200190815260200160002082815481106103a457fe5b9060005260206000209060020201905060008060008d85815181106103c557fe5b60200260200101518d86815181106103d957fe5b60200260200101518d9250925092508282826040516020016103fd93929190610a2f565b60405160208183030381529060405280519060200120846000015414610426575050505061046d565b83600101548601955081158015610441575082846001015410155b1561045c576104508b846105de565b1561045b5782860395505b5b6000801b8460000181905550505050505b8080600101915050610350565b5080945050505050949350505050565b60015481565b60025481565b600080600660008473ffffffffffffffffffffffffffffffffffffffff1673ffffffffffffffffffffffffffffffffffffffff168152602001908152602001600020549050600081111561052a576000600660008573ffffffffffffffffffffffffffffffffffffffff1673ffffffffffffffffffffffffffffffffffffffff168152602001908152602001600020819055505b80915050919050565b60015480421061054257600080fd5b600560008573ffffffffffffffffffffffffffffffffffffffff1673ffffffffffffffffffffffffffffffffffffffff16815260200190815260200160002060405180604001604052808581526020018481525090806001815401808255809150509060018203906000526020600020906002020160009091929091909150600082015181600001556020820151816001015550505050505050565b600060075482116105f25760009050610707565b600073ffffffffffffffffffffffffffffffffffffffff16600860009054906101000a900473ffffffffffffffffffffffffffffffffffffffff1673ffffffffffffffffffffffffffffffffffffffff16146106ba5760075460066000600860009054906101000a900473ffffffffffffffffffffffffffffffffffffffff1673ffffffffffffffffffffffffffffffffffffffff1673ffffffffffffffffffffffffffffffffffffffff168152602001908152602001600020600082825401925050819055505b8160078190555082600860006101000a81548173ffffffffffffffffffffffffffffffffffffffff021916908373ffffffffffffffffffffffffffffffffffffffff160217905550600190505b92915050565b60008135905061071c81610c0c565b92915050565b600082601f83011261073357600080fd5b813561074661074182610b13565b610ae6565b9150818183526020840193506020810190508385602084028201111561076b57600080fd5b60005b8381101561079b57816107818882610828565b84526020840193506020830192505060018101905061076e565b5050505092915050565b600082601f8301126107b657600080fd5b81356107c96107c482610b3b565b610ae6565b915081818352602084019350602081019050838560208402820111156107ee57600080fd5b60005b8381101561081e57816108048882610852565b8452602084019350602083019250506001810190506107f1565b5050505092915050565b60008135905061083781610c23565b92915050565b60008135905061084c81610c3a565b92915050565b60008135905061086181610c51565b92915050565b60006020828403121561087957600080fd5b60006108878482850161070d565b91505092915050565b6000806000606084860312156108a557600080fd5b60006108b38682870161070d565b93505060206108c48682870161083d565b92505060406108d586828701610852565b9150509250925092565b600080604083850312156108f257600080fd5b60006109008582860161070d565b925050602061091185828601610852565b9150509250929050565b6000806000806080858703121561093157600080fd5b600085013567ffffffffffffffff81111561094b57600080fd5b610957878288016107a5565b945050602085013567ffffffffffffffff81111561097457600080fd5b61098087828801610722565b93505060406109918782880161083d565b92505060606109a28782880161070d565b91505092959194509250565b6109b781610b75565b82525050565b6109c681610b87565b82525050565b6109dd6109d882610b87565b610bc7565b82525050565b6109ec81610b93565b82525050565b610a036109fe82610b93565b610bd9565b82525050565b610a1281610bbd565b82525050565b610a29610a2482610bbd565b610be3565b82525050565b6000610a3b8286610a18565b602082019150610a4b82856109cc565b600182019150610a5b82846109f2565b602082019150819050949350505050565b6000602082019050610a8160008301846109ae565b92915050565b6000602082019050610a9c60008301846109bd565b92915050565b6000604082019050610ab760008301856109e3565b610ac46020830184610a09565b9392505050565b6000602082019050610ae06000830184610a09565b92915050565b6000604051905081810181811067ffffffffffffffff82111715610b0957600080fd5b8060405250919050565b600067ffffffffffffffff821115610b2a57600080fd5b602082029050602081019050919050565b600067ffffffffffffffff821115610b5257600080fd5b602082029050602081019050919050565b6000610b6e82610b9d565b9050919050565b6000610b8082610b9d565b9050919050565b60008115159050919050565b6000819050919050565b600073ffffffffffffffffffffffffffffffffffffffff82169050919050565b6000819050919050565b6000610bd282610bed565b9050919050565b6000819050919050565b6000819050919050565b6000610bf882610bff565b9050919050565b60008160f81b9050919050565b610c1581610b63565b8114610c2057600080fd5b50565b610c2c81610b87565b8114610c3757600080fd5b50565b610c4381610b93565b8114610c4e57600080fd5b50565b610c5a81610bbd565b8114610c6557600080fd5b5056fea365627a7a723158208961c98af191b6ec86970daa8b251a90fc78ed8855feff63f18132e01e25348d6c6578706572696d656e74616cf564736f6c63430005100040",
  "source": "// SPDX-License-Identifier: MIT\npragma experimental ABIEncoderV2;\npragma solidity >=0.4.22 <0.9.0;\n\nimport './BaseAuction.sol';\n\ncontract FirstPriceAuction is BaseAuction {\n    uint highestBid;\n    address highestBidder;\n    constructor(uint _biddingTime, uint _revealTime, address payable _beneficiary) public {\n        beneficiary = _beneficiary;\n        biddingEnd = now + _biddingTime;\n        revealEnd = biddingEnd + _revealTime;\n    }\n    function bid(address bidder, bytes32 _blindedBid, uint deposit) onlyBefore(biddingEnd) public {\n        bids[bidder].push(Bid({blindedBid: _blindedBid, deposit: deposit}));\n    }\n    function reveal(uint[] memory values, bool[] memory fakes, bytes32 secrets, address bidder) onlyAfter(biddingEnd) onlyBefore(revealEnd) public returns (uint){\n        uint length = bids[bidder].length;\n        require(values.length == length);\n        require(fakes.length == length);\n        // require(secrets.length == length);\n\n        uint refund = 0;\n        for(uint i = 0; i < length; i++) {\n            Bid storage bidToCheck  = bids[bidder][i];\n            (uint value, bool fake, bytes32 secret) = (values[i], fakes[i], secrets);\n            if (bidToCheck.blindedBid != keccak256(abi.encodePacked(value, fake, secret))) {\n                continue;\n            }\n            refund += bidToCheck.deposit;\n            if (!fake && bidToCheck.deposit >= value) {\n                if (placeBid(bidder, value))\n                    refund -= value;\n            }\n            bidToCheck.blindedBid = bytes32(0);\n        }\n        return refund;\n    }\n    function placeBid(address bidder, uint value) internal returns(bool){\n        if (value <= highestBid) {\n            return false;\n        }\n        if (highestBidder != address(0)) {\n            // Refund the previously highest bidder.\n            pendingReturns[highestBidder] += highestBid;\n        }\n        highestBid = value;\n        highestBidder = bidder;\n        return true;\n    }\n    function pendingMoney(address bidder) public returns (uint){\n        uint amount = pendingReturns[bidder];\n        if (amount > 0) {\n            // It is important to set this to zero because the recipient\n            // can call this function again as part of the receiving call\n            // before `transfer` returns (see the remark above about\n            // conditions -> effects -> interaction).\n\n            pendingReturns[bidder] = 0;\n        }\n        return amount;\n    }\n    function auctionEnd() public {\n        ended = true;\n        beneficiary.transfer(highestBid);\n    }\n}",
  "sourcePath": "/home/daksh0225/Sem7/DTB/SmartAuction/contracts/FirstPriceAuction.sol",
  "compiler": {
    "name": "solc",
    "version": "0.5.16+commit.9c3226ce.Emscripten.clang"
  },
  "schemaVersion": "3.4.3",
  "updatedAt": "2021-10-12T09:30:49.569Z",
  "networkType": "ethereum",
  "devdoc": {
    "methods": {}
  },
  "userdoc": {
    "methods": {}
  }
}