{
  "contractName": "FirstPriceAuction",
  "abi": [
    {
      "inputs": [
        {
          "internalType": "uint256",
          "name": "_biddingTime",
          "type": "uint256"
        },
        {
          "internalType": "uint256",
          "name": "_revealTime",
          "type": "uint256"
        },
        {
          "internalType": "address payable",
          "name": "_beneficiary",
          "type": "address"
        }
      ],
      "payable": false,
      "stateMutability": "nonpayable",
      "type": "constructor"
    },
    {
      "constant": true,
      "inputs": [],
      "name": "beneficiary",
      "outputs": [
        {
          "internalType": "address payable",
          "name": "",
          "type": "address"
        }
      ],
      "payable": false,
      "stateMutability": "view",
      "type": "function"
    },
    {
      "constant": true,
      "inputs": [],
      "name": "biddingEnd",
      "outputs": [
        {
          "internalType": "uint256",
          "name": "",
          "type": "uint256"
        }
      ],
      "payable": false,
      "stateMutability": "view",
      "type": "function"
    },
    {
      "constant": true,
      "inputs": [
        {
          "internalType": "address",
          "name": "",
          "type": "address"
        }
      ],
      "name": "bids",
      "outputs": [
        {
          "internalType": "bytes32",
          "name": "blindedBid",
          "type": "bytes32"
        },
        {
          "internalType": "string",
          "name": "publicKey",
          "type": "string"
        }
      ],
      "payable": false,
      "stateMutability": "view",
      "type": "function"
    },
    {
      "constant": true,
      "inputs": [],
      "name": "ended",
      "outputs": [
        {
          "internalType": "bool",
          "name": "",
          "type": "bool"
        }
      ],
      "payable": false,
      "stateMutability": "view",
      "type": "function"
    },
    {
      "constant": true,
      "inputs": [],
      "name": "publicKeyOfWinner",
      "outputs": [
        {
          "internalType": "string",
          "name": "",
          "type": "string"
        }
      ],
      "payable": false,
      "stateMutability": "view",
      "type": "function"
    },
    {
      "constant": true,
      "inputs": [],
      "name": "revealEnd",
      "outputs": [
        {
          "internalType": "uint256",
          "name": "",
          "type": "uint256"
        }
      ],
      "payable": false,
      "stateMutability": "view",
      "type": "function"
    },
    {
      "constant": true,
      "inputs": [],
      "name": "winner",
      "outputs": [
        {
          "internalType": "address",
          "name": "",
          "type": "address"
        }
      ],
      "payable": false,
      "stateMutability": "view",
      "type": "function"
    },
    {
      "constant": true,
      "inputs": [],
      "name": "winningBid",
      "outputs": [
        {
          "internalType": "uint256",
          "name": "",
          "type": "uint256"
        }
      ],
      "payable": false,
      "stateMutability": "view",
      "type": "function"
    },
    {
      "constant": false,
      "inputs": [
        {
          "internalType": "address",
          "name": "bidder",
          "type": "address"
        },
        {
          "internalType": "bytes32",
          "name": "_blindedBid",
          "type": "bytes32"
        },
        {
          "internalType": "string",
          "name": "publicKey",
          "type": "string"
        }
      ],
      "name": "bid",
      "outputs": [],
      "payable": false,
      "stateMutability": "nonpayable",
      "type": "function"
    },
    {
      "constant": false,
      "inputs": [
        {
          "internalType": "uint256",
          "name": "value",
          "type": "uint256"
        },
        {
          "internalType": "bytes32",
          "name": "secret",
          "type": "bytes32"
        },
        {
          "internalType": "address",
          "name": "bidder",
          "type": "address"
        }
      ],
      "name": "reveal",
      "outputs": [
        {
          "internalType": "uint256",
          "name": "",
          "type": "uint256"
        }
      ],
      "payable": false,
      "stateMutability": "nonpayable",
      "type": "function"
    },
    {
      "constant": false,
      "inputs": [
        {
          "internalType": "address",
          "name": "bidder",
          "type": "address"
        }
      ],
      "name": "pendingMoney",
      "outputs": [
        {
          "internalType": "uint256",
          "name": "",
          "type": "uint256"
        }
      ],
      "payable": false,
      "stateMutability": "nonpayable",
      "type": "function"
    },
    {
      "constant": false,
      "inputs": [],
      "name": "canEnd",
      "outputs": [
        {
          "internalType": "bool",
          "name": "",
          "type": "bool"
        }
      ],
      "payable": false,
      "stateMutability": "nonpayable",
      "type": "function"
    }
  ],
  "bytecode": "0x60806040523480156200001157600080fd5b5060405162000fdb38038062000fdb8339818101604052620000379190810190620000c2565b806000806101000a81548173ffffffffffffffffffffffffffffffffffffffff021916908373ffffffffffffffffffffffffffffffffffffffff16021790555082420160018190555081600154016002819055505050506200018a565b600081519050620000a58162000156565b92915050565b600081519050620000bc8162000170565b92915050565b600080600060608486031215620000d857600080fd5b6000620000e886828701620000ab565b9350506020620000fb86828701620000ab565b92505060406200010e8682870162000094565b9150509250925092565b600062000125826200012c565b9050919050565b600073ffffffffffffffffffffffffffffffffffffffff82169050919050565b6000819050919050565b620001618162000118565b81146200016d57600080fd5b50565b6200017b816200014c565b81146200018757600080fd5b50565b610e41806200019a6000396000f3fe608060405234801561001057600080fd5b50600436106100b45760003560e01c8063a6e6647711610071578063a6e6647714610180578063abf3969e1461019e578063c92fb1b8146101bc578063dfbf53ae146101ec578063e9b036e91461020a578063f8a50ac91461023a576100b4565b806312fa6feb146100b957806338af3eed146100d7578063423b217f146100f557806362ea82db146101135780638cf8043814610144578063a058bfd214610162575b600080fd5b6100c1610256565b6040516100ce9190610bf1565b60405180910390f35b6100df610269565b6040516100ec9190610bd6565b60405180910390f35b6100fd61028e565b60405161010a9190610c5e565b60405180910390f35b61012d600480360361012891908101906109fe565b610294565b60405161013b929190610c0c565b60405180910390f35b61014c610350565b6040516101599190610c5e565b60405180910390f35b61016a610356565b6040516101779190610c3c565b60405180910390f35b6101886103f4565b6040516101959190610c5e565b60405180910390f35b6101a66103fa565b6040516101b39190610bf1565b60405180910390f35b6101d660048036036101d19190810190610a8e565b610432565b6040516101e39190610c5e565b60405180910390f35b6101f46105a9565b6040516102019190610bbb565b60405180910390f35b610224600480360361021f91908101906109fe565b6105cf565b6040516102319190610c5e565b60405180910390f35b610254600480360361024f9190810190610a27565b61066c565b005b600360009054906101000a900460ff1681565b6000809054906101000a900473ffffffffffffffffffffffffffffffffffffffff1681565b60015481565b6008602052806000526040600020600091509050806000015490806001018054600181600116156101000203166002900480601f0160208091040260200160405190810160405280929190818152602001828054600181600116156101000203166002900480156103465780601f1061031b57610100808354040283529160200191610346565b820191906000526020600020905b81548152906001019060200180831161032957829003601f168201915b5050505050905082565b60055481565b60078054600181600116156101000203166002900480601f0160208091040260200160405190810160405280929190818152602001828054600181600116156101000203166002900480156103ec5780601f106103c1576101008083540402835291602001916103ec565b820191906000526020600020905b8154815290600101906020018083116103cf57829003601f168201915b505050505081565b60025481565b600060025442111561042a576001600360006101000a81548160ff0219169083151502179055506001905061042f565b600090505b90565b600060015480421161044357600080fd5b60025480421061045257600080fd5b60008090506000600860008773ffffffffffffffffffffffffffffffffffffffff1673ffffffffffffffffffffffffffffffffffffffff168152602001908152602001600020905087876040516020016104ad929190610b8f565b604051602081830303815290604052805190602001208160000154146104d75787945050506105a0565b87820191506105838689836001018054600181600116156101000203166002900480601f0160208091040260200160405190810160405280929190818152602001828054600181600116156101000203166002900480156105795780601f1061054e57610100808354040283529160200191610579565b820191906000526020600020905b81548152906001019060200180831161055c57829003601f168201915b50505050506106ff565b1561058e5787820391505b6000801b816000018190555081945050505b50509392505050565b600660009054906101000a900473ffffffffffffffffffffffffffffffffffffffff1681565b600080600960008473ffffffffffffffffffffffffffffffffffffffff1673ffffffffffffffffffffffffffffffffffffffff1681526020019081526020016000205490506000811115610663576000600960008573ffffffffffffffffffffffffffffffffffffffff1673ffffffffffffffffffffffffffffffffffffffff168152602001908152602001600020819055505b80915050919050565b60015480421061067b57600080fd5b604051806040016040528084815260200183815250600860008673ffffffffffffffffffffffffffffffffffffffff1673ffffffffffffffffffffffffffffffffffffffff1681526020019081526020016000206000820151816000015560208201518160010190805190602001906106f5929190610846565b5090505050505050565b60006005548311610713576000905061083f565b600073ffffffffffffffffffffffffffffffffffffffff16600660009054906101000a900473ffffffffffffffffffffffffffffffffffffffff1673ffffffffffffffffffffffffffffffffffffffff16146107db5760055460096000600660009054906101000a900473ffffffffffffffffffffffffffffffffffffffff1673ffffffffffffffffffffffffffffffffffffffff1673ffffffffffffffffffffffffffffffffffffffff168152602001908152602001600020600082825401925050819055505b8260058190555083600660006101000a81548173ffffffffffffffffffffffffffffffffffffffff021916908373ffffffffffffffffffffffffffffffffffffffff16021790555081600790805190602001906108399291906108c6565b50600190505b9392505050565b828054600181600116156101000203166002900490600052602060002090601f016020900481019282601f1061088757805160ff19168380011785556108b5565b828001600101855582156108b5579182015b828111156108b4578251825591602001919060010190610899565b5b5090506108c29190610946565b5090565b828054600181600116156101000203166002900490600052602060002090601f016020900481019282601f1061090757805160ff1916838001178555610935565b82800160010185558215610935579182015b82811115610934578251825591602001919060010190610919565b5b5090506109429190610946565b5090565b61096891905b8082111561096457600081600090555060010161094c565b5090565b90565b60008135905061097a81610db9565b92915050565b60008135905061098f81610dd0565b92915050565b600082601f8301126109a657600080fd5b81356109b96109b482610ca6565b610c79565b915080825260208301602083018583830111156109d557600080fd5b6109e0838284610d52565b50505092915050565b6000813590506109f881610de7565b92915050565b600060208284031215610a1057600080fd5b6000610a1e8482850161096b565b91505092915050565b600080600060608486031215610a3c57600080fd5b6000610a4a8682870161096b565b9350506020610a5b86828701610980565b925050604084013567ffffffffffffffff811115610a7857600080fd5b610a8486828701610995565b9150509250925092565b600080600060608486031215610aa357600080fd5b6000610ab1868287016109e9565b9350506020610ac286828701610980565b9250506040610ad38682870161096b565b9150509250925092565b610ae681610d00565b82525050565b610af581610cee565b82525050565b610b0481610d12565b82525050565b610b1381610d1e565b82525050565b610b2a610b2582610d1e565b610d94565b82525050565b6000610b3b82610cd2565b610b458185610cdd565b9350610b55818560208601610d61565b610b5e81610da8565b840191505092915050565b610b7281610d48565b82525050565b610b89610b8482610d48565b610d9e565b82525050565b6000610b9b8285610b78565b602082019150610bab8284610b19565b6020820191508190509392505050565b6000602082019050610bd06000830184610aec565b92915050565b6000602082019050610beb6000830184610add565b92915050565b6000602082019050610c066000830184610afb565b92915050565b6000604082019050610c216000830185610b0a565b8181036020830152610c338184610b30565b90509392505050565b60006020820190508181036000830152610c568184610b30565b905092915050565b6000602082019050610c736000830184610b69565b92915050565b6000604051905081810181811067ffffffffffffffff82111715610c9c57600080fd5b8060405250919050565b600067ffffffffffffffff821115610cbd57600080fd5b601f19601f8301169050602081019050919050565b600081519050919050565b600082825260208201905092915050565b6000610cf982610d28565b9050919050565b6000610d0b82610d28565b9050919050565b60008115159050919050565b6000819050919050565b600073ffffffffffffffffffffffffffffffffffffffff82169050919050565b6000819050919050565b82818337600083830152505050565b60005b83811015610d7f578082015181840152602081019050610d64565b83811115610d8e576000848401525b50505050565b6000819050919050565b6000819050919050565b6000601f19601f8301169050919050565b610dc281610cee565b8114610dcd57600080fd5b50565b610dd981610d1e565b8114610de457600080fd5b50565b610df081610d48565b8114610dfb57600080fd5b5056fea365627a7a723158201cbb369efaa26980ed45151b93bd168253057524f5f0d86f1f476b90fdf4a17e6c6578706572696d656e74616cf564736f6c63430005100040",
  "source": "// SPDX-License-Identifier: MIT\npragma experimental ABIEncoderV2;\npragma solidity >=0.4.22 <0.9.0;\n\nimport './BaseAuction.sol';\n\ncontract FirstPriceAuction is BaseAuction {\n    constructor(uint _biddingTime, uint _revealTime, address payable _beneficiary) public {\n        beneficiary = _beneficiary;\n        biddingEnd = now + _biddingTime;\n        revealEnd = biddingEnd + _revealTime;\n    }\n    function bid(address bidder, bytes32 _blindedBid, string memory publicKey) onlyBefore(biddingEnd) public {\n        bids[bidder] = Bid({blindedBid: _blindedBid, publicKey: publicKey});\n    }\n    function reveal(uint value, bytes32 secret, address bidder) onlyAfter(biddingEnd) onlyBefore(revealEnd) public returns (uint){\n        uint refund = 0;\n        Bid storage bidToCheck  = bids[bidder];\n        if (bidToCheck.blindedBid != keccak256(abi.encodePacked(value, secret))) {\n            return value;\n        }\n        refund += value;\n        if (placeBid(bidder, value, bidToCheck.publicKey))\n            refund -= value;\n        bidToCheck.blindedBid = bytes32(0);\n        return refund;\n    }\n    function placeBid(address bidder, uint value, string memory publicKey) internal returns(bool){\n        if (value <= winningBid) {\n            return false;\n        }\n        if (winner != address(0)) {\n            // Refund the previously highest bidder.\n            pendingReturns[winner] += winningBid;\n        }\n        winningBid = value;\n        winner = bidder;\n        publicKeyOfWinner = publicKey;\n        return true;\n    }\n    function pendingMoney(address bidder) public returns (uint){\n        uint amount = pendingReturns[bidder];\n        if (amount > 0) {\n            // It is important to set this to zero because the recipient\n            // can call this function again as part of the receiving call\n            // before `transfer` returns (see the remark above about\n            // conditions -> effects -> interaction).\n\n            pendingReturns[bidder] = 0;\n        }\n        return amount;\n    }\n    function canEnd() public returns(bool){\n        if(block.timestamp > revealEnd) {\n            ended = true;\n            return true;\n        }\n        return false;\n    }\n}",
  "sourcePath": "/home/daksh0225/Sem7/DTB/SmartAuction/contracts/FirstPriceAuction.sol",
  "compiler": {
    "name": "solc",
    "version": "0.5.16+commit.9c3226ce.Emscripten.clang"
  },
  "schemaVersion": "3.4.3",
  "updatedAt": "2021-10-12T10:01:31.901Z",
  "networkType": "ethereum",
  "devdoc": {
    "methods": {}
  },
  "userdoc": {
    "methods": {}
  }
}