{
  "contractName": "SmartStore",
  "abi": [
    {
      "inputs": [],
      "payable": false,
      "stateMutability": "nonpayable",
      "type": "constructor"
    },
    {
      "constant": false,
      "inputs": [
        {
          "internalType": "string",
          "name": "itemName",
          "type": "string"
        },
        {
          "internalType": "string",
          "name": "itemDescription",
          "type": "string"
        },
        {
          "internalType": "uint256",
          "name": "askingPrice",
          "type": "uint256"
        }
      ],
      "name": "addListing",
      "outputs": [],
      "payable": false,
      "stateMutability": "nonpayable",
      "type": "function"
    },
    {
      "constant": false,
      "inputs": [],
      "name": "getNumberOfListings",
      "outputs": [
        {
          "internalType": "uint256",
          "name": "",
          "type": "uint256"
        }
      ],
      "payable": false,
      "stateMutability": "nonpayable",
      "type": "function"
    },
    {
      "constant": true,
      "inputs": [
        {
          "internalType": "uint256",
          "name": "idx",
          "type": "uint256"
        }
      ],
      "name": "getParticularListing",
      "outputs": [
        {
          "components": [
            {
              "internalType": "uint256",
              "name": "listingID",
              "type": "uint256"
            },
            {
              "internalType": "string",
              "name": "itemName",
              "type": "string"
            },
            {
              "internalType": "string",
              "name": "itemDescription",
              "type": "string"
            },
            {
              "internalType": "uint256",
              "name": "askingPrice",
              "type": "uint256"
            },
            {
              "internalType": "address",
              "name": "sellerID",
              "type": "address"
            }
          ],
          "internalType": "struct SmartStore.Listing",
          "name": "",
          "type": "tuple"
        }
      ],
      "payable": false,
      "stateMutability": "view",
      "type": "function"
    },
    {
      "constant": true,
      "inputs": [
        {
          "internalType": "uint256",
          "name": "itemID",
          "type": "uint256"
        }
      ],
      "name": "getStatusOfListing",
      "outputs": [
        {
          "internalType": "bool",
          "name": "",
          "type": "bool"
        }
      ],
      "payable": false,
      "stateMutability": "view",
      "type": "function"
    },
    {
      "constant": false,
      "inputs": [
        {
          "internalType": "string",
          "name": "itemName",
          "type": "string"
        },
        {
          "internalType": "string",
          "name": "itemDescription",
          "type": "string"
        },
        {
          "internalType": "uint256",
          "name": "biddingTime",
          "type": "uint256"
        },
        {
          "internalType": "uint256",
          "name": "revealTime",
          "type": "uint256"
        },
        {
          "internalType": "string",
          "name": "method",
          "type": "string"
        }
      ],
      "name": "addAuction",
      "outputs": [],
      "payable": false,
      "stateMutability": "nonpayable",
      "type": "function"
    },
    {
      "constant": false,
      "inputs": [
        {
          "internalType": "uint256",
          "name": "auctionID",
          "type": "uint256"
        },
        {
          "internalType": "bytes32",
          "name": "_blindedBid",
          "type": "bytes32"
        }
      ],
      "name": "placeBid",
      "outputs": [],
      "payable": true,
      "stateMutability": "payable",
      "type": "function"
    },
    {
      "constant": false,
      "inputs": [
        {
          "internalType": "uint256",
          "name": "auctionID",
          "type": "uint256"
        },
        {
          "internalType": "uint256[]",
          "name": "values",
          "type": "uint256[]"
        },
        {
          "internalType": "bool[]",
          "name": "fake",
          "type": "bool[]"
        },
        {
          "internalType": "bytes32",
          "name": "secret",
          "type": "bytes32"
        }
      ],
      "name": "revealBid",
      "outputs": [],
      "payable": false,
      "stateMutability": "nonpayable",
      "type": "function"
    },
    {
      "constant": true,
      "inputs": [],
      "name": "getAuctions",
      "outputs": [
        {
          "components": [
            {
              "internalType": "uint256",
              "name": "auctionID",
              "type": "uint256"
            },
            {
              "internalType": "string",
              "name": "itemName",
              "type": "string"
            },
            {
              "internalType": "string",
              "name": "itemDescription",
              "type": "string"
            },
            {
              "internalType": "address",
              "name": "sellerId",
              "type": "address"
            },
            {
              "internalType": "uint256",
              "name": "startTime",
              "type": "uint256"
            },
            {
              "internalType": "uint256",
              "name": "biddingTime",
              "type": "uint256"
            },
            {
              "internalType": "uint256",
              "name": "revealTime",
              "type": "uint256"
            },
            {
              "internalType": "string",
              "name": "method",
              "type": "string"
            }
          ],
          "internalType": "struct SmartStore.Auction[]",
          "name": "",
          "type": "tuple[]"
        }
      ],
      "payable": false,
      "stateMutability": "view",
      "type": "function"
    },
    {
      "constant": true,
      "inputs": [
        {
          "internalType": "uint256",
          "name": "value",
          "type": "uint256"
        },
        {
          "internalType": "bool",
          "name": "fake",
          "type": "bool"
        },
        {
          "internalType": "bytes32",
          "name": "secret",
          "type": "bytes32"
        }
      ],
      "name": "getHash",
      "outputs": [
        {
          "internalType": "bytes32",
          "name": "",
          "type": "bytes32"
        }
      ],
      "payable": false,
      "stateMutability": "view",
      "type": "function"
    },
    {
      "constant": true,
      "inputs": [],
      "name": "getListings",
      "outputs": [
        {
          "components": [
            {
              "internalType": "uint256",
              "name": "listingID",
              "type": "uint256"
            },
            {
              "internalType": "string",
              "name": "itemName",
              "type": "string"
            },
            {
              "internalType": "string",
              "name": "itemDescription",
              "type": "string"
            },
            {
              "internalType": "uint256",
              "name": "askingPrice",
              "type": "uint256"
            },
            {
              "internalType": "address",
              "name": "sellerID",
              "type": "address"
            }
          ],
          "internalType": "struct SmartStore.Listing[]",
          "name": "",
          "type": "tuple[]"
        }
      ],
      "payable": false,
      "stateMutability": "view",
      "type": "function"
    },
    {
      "constant": false,
      "inputs": [
        {
          "internalType": "uint256",
          "name": "itemID",
          "type": "uint256"
        },
        {
          "internalType": "string",
          "name": "publicKey",
          "type": "string"
        }
      ],
      "name": "buyListing",
      "outputs": [],
      "payable": true,
      "stateMutability": "payable",
      "type": "function"
    },
    {
      "constant": true,
      "inputs": [],
      "name": "getPendingTransactions",
      "outputs": [
        {
          "components": [
            {
              "internalType": "uint256",
              "name": "listingID",
              "type": "uint256"
            },
            {
              "internalType": "string",
              "name": "itemName",
              "type": "string"
            },
            {
              "internalType": "string",
              "name": "itemDescription",
              "type": "string"
            },
            {
              "internalType": "uint256",
              "name": "askingPrice",
              "type": "uint256"
            },
            {
              "internalType": "string",
              "name": "publicKey",
              "type": "string"
            }
          ],
          "internalType": "struct SmartStore.PendingItem[]",
          "name": "",
          "type": "tuple[]"
        }
      ],
      "payable": false,
      "stateMutability": "view",
      "type": "function"
    },
    {
      "constant": false,
      "inputs": [],
      "name": "getNumberOfPendingTransactions",
      "outputs": [
        {
          "internalType": "uint256",
          "name": "",
          "type": "uint256"
        }
      ],
      "payable": false,
      "stateMutability": "nonpayable",
      "type": "function"
    },
    {
      "constant": true,
      "inputs": [
        {
          "internalType": "uint256",
          "name": "idx",
          "type": "uint256"
        }
      ],
      "name": "getParticularPendingListing",
      "outputs": [
        {
          "components": [
            {
              "internalType": "uint256",
              "name": "listingID",
              "type": "uint256"
            },
            {
              "internalType": "string",
              "name": "itemName",
              "type": "string"
            },
            {
              "internalType": "string",
              "name": "itemDescription",
              "type": "string"
            },
            {
              "internalType": "uint256",
              "name": "askingPrice",
              "type": "uint256"
            },
            {
              "internalType": "string",
              "name": "publicKey",
              "type": "string"
            }
          ],
          "internalType": "struct SmartStore.PendingItem",
          "name": "",
          "type": "tuple"
        }
      ],
      "payable": false,
      "stateMutability": "view",
      "type": "function"
    },
    {
      "constant": false,
      "inputs": [
        {
          "internalType": "uint256",
          "name": "itemID",
          "type": "uint256"
        },
        {
          "internalType": "string",
          "name": "itemText",
          "type": "string"
        }
      ],
      "name": "delieverItem",
      "outputs": [],
      "payable": false,
      "stateMutability": "nonpayable",
      "type": "function"
    },
    {
      "constant": true,
      "inputs": [],
      "name": "getItems",
      "outputs": [
        {
          "components": [
            {
              "internalType": "uint256",
              "name": "listingID",
              "type": "uint256"
            },
            {
              "internalType": "string",
              "name": "itemName",
              "type": "string"
            },
            {
              "internalType": "string",
              "name": "itemDescription",
              "type": "string"
            },
            {
              "internalType": "string",
              "name": "itemText",
              "type": "string"
            }
          ],
          "internalType": "struct SmartStore.BoughtItem[]",
          "name": "",
          "type": "tuple[]"
        }
      ],
      "payable": false,
      "stateMutability": "view",
      "type": "function"
    },
    {
      "constant": false,
      "inputs": [],
      "name": "getNumberOfItems",
      "outputs": [
        {
          "internalType": "uint256",
          "name": "",
          "type": "uint256"
        }
      ],
      "payable": false,
      "stateMutability": "nonpayable",
      "type": "function"
    },
    {
      "constant": true,
      "inputs": [
        {
          "internalType": "uint256",
          "name": "idx",
          "type": "uint256"
        }
      ],
      "name": "getParticularOrderItem",
      "outputs": [
        {
          "components": [
            {
              "internalType": "uint256",
              "name": "listingID",
              "type": "uint256"
            },
            {
              "internalType": "string",
              "name": "itemName",
              "type": "string"
            },
            {
              "internalType": "string",
              "name": "itemDescription",
              "type": "string"
            },
            {
              "internalType": "string",
              "name": "itemText",
              "type": "string"
            }
          ],
          "internalType": "struct SmartStore.BoughtItem",
          "name": "",
          "type": "tuple"
        }
      ],
      "payable": false,
      "stateMutability": "view",
      "type": "function"
    }
  ],
  "bytecode": "0x60806040526000600855600060095534801561001a57600080fd5b506153fb8061002a6000396000f3fe608060405260043610620001225760003560e01c8063730ef26911620000a3578063c6209edf116200006d578063c6209edf14620003c1578063d11db83f14620003ef578063d7c06919146200041f578063e51cbbf9146200044f578063f1b2d6a314620004935762000122565b8063730ef26914620002d9578063759652d214620003095780639c02f56f146200034d578063affe942714620003915762000122565b8063298c154e11620000f1578063298c154e14620001e95780632c57f1ea14620002175780633fb7de9e1462000245578063410d59cc146200028957806366ab1d5214620002b95762000122565b8063017f47ff146200012757806309422aff146200015757806310e822fd146200019b57806319b8d0e814620001bb575b600080fd5b3480156200013457600080fd5b506200013f620004c3565b6040516200014e919062004158565b60405180910390f35b3480156200016457600080fd5b506200018360048036036200017d9190810190620033ec565b6200050c565b60405162000192919062004047565b60405180910390f35b620001b96004803603620001b3919081019062003483565b62000549565b005b348015620001c857600080fd5b50620001e76004803603620001e191908101906200334e565b620009fe565b005b348015620001f657600080fd5b506200021560048036036200020f9190810190620031a1565b62000b21565b005b3480156200022457600080fd5b506200024360048036036200023d919081019062003483565b62000cda565b005b3480156200025257600080fd5b506200027160048036036200026b9190810190620032f6565b620014e5565b6040516200028091906200402a565b60405180910390f35b3480156200029657600080fd5b50620002a16200153d565b604051620002b0919062003f63565b60405180910390f35b620002d76004803603620002d1919081019062003442565b620017d7565b005b348015620002e657600080fd5b50620002f162001881565b60405162000300919062004158565b60405180910390f35b3480156200031657600080fd5b506200033560048036036200032f9190810190620032f6565b620018cb565b60405162000344919062004134565b60405180910390f35b3480156200035a57600080fd5b50620003796004803603620003739190810190620032f6565b62001b45565b604051620003889190620040ec565b60405180910390f35b3480156200039e57600080fd5b50620003a962001db6565b604051620003b8919062004158565b60405180910390f35b348015620003ce57600080fd5b50620003ed6004803603620003e7919081019062003229565b62001dc3565b005b348015620003fc57600080fd5b506200040762001fc8565b60405162000416919062003fab565b60405180910390f35b3480156200042c57600080fd5b50620004376200226b565b60405162000446919062003f3f565b60405180910390f35b3480156200045c57600080fd5b506200047b6004803603620004759190810190620032f6565b620026a5565b6040516200048a919062004110565b60405180910390f35b348015620004a057600080fd5b50620004ab62002893565b604051620004ba919062003f87565b60405180910390f35b60008060003373ffffffffffffffffffffffffffffffffffffffff1673ffffffffffffffffffffffffffffffffffffffff16815260200190815260200160002080549050905090565b600080848484604051602001620005269392919062003ebf565b604051602081830303815290604052805190602001209050809150509392505050565b81600160038111156200055857fe5b6003600083815260200190815260200160002060009054906101000a900460ff1660038111156200058557fe5b14620005c8576040517f08c379a0000000000000000000000000000000000000000000000000000000008152600401620005bf90620040a8565b60405180910390fd5b60068381548110620005d657fe5b90600052602060002090600502016003015434146200062c576040517f08c379a00000000000000000000000000000000000000000000000000000000081526004016200062390620040ca565b60405180910390fd5b336002600085815260200190815260200160002060006101000a81548173ffffffffffffffffffffffffffffffffffffffff021916908373ffffffffffffffffffffffffffffffffffffffff1602179055506200068862002c04565b600684815481106200069657fe5b90600052602060002090600502016040518060a001604052908160008201548152602001600182018054600181600116156101000203166002900480601f016020809104026020016040519081016040528092919081815260200182805460018160011615610100020316600290048015620007565780601f106200072a5761010080835404028352916020019162000756565b820191906000526020600020905b8154815290600101906020018083116200073857829003601f168201915b50505050508152602001600282018054600181600116156101000203166002900480601f016020809104026020016040519081016040528092919081815260200182805460018160011615610100020316600290048015620007fc5780601f10620007d057610100808354040283529160200191620007fc565b820191906000526020600020905b815481529060010190602001808311620007de57829003601f168201915b50505050508152602001600382015481526020016004820160009054906101000a900473ffffffffffffffffffffffffffffffffffffffff1673ffffffffffffffffffffffffffffffffffffffff1673ffffffffffffffffffffffffffffffffffffffff1681525050905060026003600086815260200190815260200160002060006101000a81548160ff021916908360038111156200089857fe5b021790555060006001600086815260200190815260200160002060009054906101000a900473ffffffffffffffffffffffffffffffffffffffff169050620008df62002c49565b6040518060a00160405280846000015181526020018460200151815260200184604001518152602001846060015181526020018681525090506000808373ffffffffffffffffffffffffffffffffffffffff1673ffffffffffffffffffffffffffffffffffffffff1681526020019081526020016000208190806001815401808255809150509060018203906000526020600020906005020160009091929091909150600082015181600001556020820151816001019080519060200190620009aa92919062002c78565b506040820151816002019080519060200190620009c992919062002c78565b50606082015181600301556080820151816004019080519060200190620009f292919062002c78565b50505050505050505050565b60006005600086815260200190815260200160002060009054906101000a900473ffffffffffffffffffffffffffffffffffffffff1673ffffffffffffffffffffffffffffffffffffffff16633b379797858585336040518563ffffffff1660e01b815260040162000a74949392919062003fcf565b602060405180830381600087803b15801562000a8f57600080fd5b505af115801562000aa4573d6000803e3d6000fd5b505050506040513d601f19601f8201168201806040525062000aca919081019062003322565b905060003390508073ffffffffffffffffffffffffffffffffffffffff166108fc839081150290604051600060405180830381858888f1935050505015801562000b18573d6000803e3d6000fd5b50505050505050565b62000b2b62002c04565b6040518060a0016040528060085481526020018581526020018481526020018381526020013373ffffffffffffffffffffffffffffffffffffffff1681525090503360016000600854815260200190815260200160002060006101000a81548173ffffffffffffffffffffffffffffffffffffffff021916908373ffffffffffffffffffffffffffffffffffffffff160217905550600160036000600854815260200190815260200160002060006101000a81548160ff0219169083600381111562000bf357fe5b02179055506006819080600181540180825580915050906001820390600052602060002090600502016000909192909190915060008201518160000155602082015181600101908051906020019062000c4e92919062002c78565b50604082015181600201908051906020019062000c6d92919062002c78565b506060820151816003015560808201518160040160006101000a81548173ffffffffffffffffffffffffffffffffffffffff021916908373ffffffffffffffffffffffffffffffffffffffff16021790555050505060086000815480929190600101919050555050505050565b813373ffffffffffffffffffffffffffffffffffffffff166001600083815260200190815260200160002060009054906101000a900473ffffffffffffffffffffffffffffffffffffffff1673ffffffffffffffffffffffffffffffffffffffff161462000d7f576040517f08c379a000000000000000000000000000000000000000000000000000000000815260040162000d769062004086565b60405180910390fd5b6002600381111562000d8d57fe5b6003600085815260200190815260200160002060009054906101000a900460ff16600381111562000dba57fe5b1462000dfd576040517f08c379a000000000000000000000000000000000000000000000000000000000815260040162000df49062004064565b60405180910390fd5b600380600085815260200190815260200160002060006101000a81548160ff0219169083600381111562000e2d57fe5b021790555060008060003373ffffffffffffffffffffffffffffffffffffffff1673ffffffffffffffffffffffffffffffffffffffff16815260200190815260200160002080549050905060008090505b818110156200113f57846000803373ffffffffffffffffffffffffffffffffffffffff1673ffffffffffffffffffffffffffffffffffffffff168152602001908152602001600020828154811062000ed257fe5b906000526020600020906005020160000154141562001131576000803373ffffffffffffffffffffffffffffffffffffffff1673ffffffffffffffffffffffffffffffffffffffff168152602001908152602001600020600183038154811062000f3857fe5b90600052602060002090600502016000803373ffffffffffffffffffffffffffffffffffffffff1673ffffffffffffffffffffffffffffffffffffffff168152602001908152602001600020828154811062000f9057fe5b9060005260206000209060050201600082015481600001556001820181600101908054600181600116156101000203166002900462000fd192919062002cff565b506002820181600201908054600181600116156101000203166002900462000ffb92919062002cff565b5060038201548160030155600482018160040190805460018160011615610100020316600290046200102f92919062002cff565b509050506000803373ffffffffffffffffffffffffffffffffffffffff1673ffffffffffffffffffffffffffffffffffffffff16815260200190815260200160002060018303815481106200108057fe5b9060005260206000209060050201600080820160009055600182016000620010a9919062002d8d565b600282016000620010bb919062002d8d565b6003820160009055600482016000620010d5919062002d8d565b50506000803373ffffffffffffffffffffffffffffffffffffffff1673ffffffffffffffffffffffffffffffffffffffff1681526020019081526020016000208054809190600190036200112a919062002dd9565b506200113f565b808060010191505062000e7e565b5060006002600086815260200190815260200160002060009054906101000a900473ffffffffffffffffffffffffffffffffffffffff1690506200118262002c04565b600686815481106200119057fe5b90600052602060002090600502016040518060a001604052908160008201548152602001600182018054600181600116156101000203166002900480601f016020809104026020016040519081016040528092919081815260200182805460018160011615610100020316600290048015620012505780601f10620012245761010080835404028352916020019162001250565b820191906000526020600020905b8154815290600101906020018083116200123257829003601f168201915b50505050508152602001600282018054600181600116156101000203166002900480601f016020809104026020016040519081016040528092919081815260200182805460018160011615610100020316600290048015620012f65780601f10620012ca57610100808354040283529160200191620012f6565b820191906000526020600020905b815481529060010190602001808311620012d857829003601f168201915b50505050508152602001600382015481526020016004820160009054906101000a900473ffffffffffffffffffffffffffffffffffffffff1673ffffffffffffffffffffffffffffffffffffffff1673ffffffffffffffffffffffffffffffffffffffff168152505090506200136b62002e0e565b6040518060800160405280836000015181526020018360200151815260200183604001518152602001878152509050600460008473ffffffffffffffffffffffffffffffffffffffff1673ffffffffffffffffffffffffffffffffffffffff16815260200190815260200160002081908060018154018082558091505090600182039060005260206000209060040201600090919290919091506000820151816000015560208201518160010190805190602001906200142d92919062002c78565b5060408201518160020190805190602001906200144c92919062002c78565b5060608201518160030190805190602001906200146b92919062002c78565b5050505060003390508073ffffffffffffffffffffffffffffffffffffffff166108fc60068a815481106200149c57fe5b9060005260206000209060050201600301549081150290604051600060405180830381858888f19350505050158015620014da573d6000803e3d6000fd5b505050505050505050565b600060016003811115620014f557fe5b6003600084815260200190815260200160002060009054906101000a900460ff1660038111156200152257fe5b141562001533576001905062001538565b600090505b919050565b6060600460003373ffffffffffffffffffffffffffffffffffffffff1673ffffffffffffffffffffffffffffffffffffffff168152602001908152602001600020805480602002602001604051908101604052809291908181526020016000905b82821015620017ce578382906000526020600020906004020160405180608001604052908160008201548152602001600182018054600181600116156101000203166002900480601f016020809104026020016040519081016040528092919081815260200182805460018160011615610100020316600290048015620016695780601f106200163d5761010080835404028352916020019162001669565b820191906000526020600020905b8154815290600101906020018083116200164b57829003601f168201915b50505050508152602001600282018054600181600116156101000203166002900480601f0160208091040260200160405190810160405280929190818152602001828054600181600116156101000203166002900480156200170f5780601f10620016e3576101008083540402835291602001916200170f565b820191906000526020600020905b815481529060010190602001808311620016f157829003601f168201915b50505050508152602001600382018054600181600116156101000203166002900480601f016020809104026020016040519081016040528092919081815260200182805460018160011615610100020316600290048015620017b55780601f106200178957610100808354040283529160200191620017b5565b820191906000526020600020905b8154815290600101906020018083116200179757829003601f168201915b505050505081525050815260200190600101906200159e565b50505050905090565b6005600083815260200190815260200160002060009054906101000a900473ffffffffffffffffffffffffffffffffffffffff1673ffffffffffffffffffffffffffffffffffffffff1663fb31c4093383346040518463ffffffff1660e01b8152600401620018499392919062003f02565b600060405180830381600087803b1580156200186457600080fd5b505af115801562001879573d6000803e3d6000fd5b505050505050565b6000600460003373ffffffffffffffffffffffffffffffffffffffff1673ffffffffffffffffffffffffffffffffffffffff16815260200190815260200160002080549050905090565b620018d562002c49565b6000803373ffffffffffffffffffffffffffffffffffffffff1673ffffffffffffffffffffffffffffffffffffffff16815260200190815260200160002082815481106200191f57fe5b90600052602060002090600502016040518060a001604052908160008201548152602001600182018054600181600116156101000203166002900480601f016020809104026020016040519081016040528092919081815260200182805460018160011615610100020316600290048015620019df5780601f10620019b357610100808354040283529160200191620019df565b820191906000526020600020905b815481529060010190602001808311620019c157829003601f168201915b50505050508152602001600282018054600181600116156101000203166002900480601f01602080910402602001604051908101604052809291908181526020018280546001816001161561010002031660029004801562001a855780601f1062001a595761010080835404028352916020019162001a85565b820191906000526020600020905b81548152906001019060200180831162001a6757829003601f168201915b5050505050815260200160038201548152602001600482018054600181600116156101000203166002900480601f01602080910402602001604051908101604052809291908181526020018280546001816001161561010002031660029004801562001b355780601f1062001b095761010080835404028352916020019162001b35565b820191906000526020600020905b81548152906001019060200180831162001b1757829003601f168201915b5050505050815250509050919050565b62001b4f62002e0e565b600460003373ffffffffffffffffffffffffffffffffffffffff1673ffffffffffffffffffffffffffffffffffffffff168152602001908152602001600020828154811062001b9a57fe5b906000526020600020906004020160405180608001604052908160008201548152602001600182018054600181600116156101000203166002900480601f01602080910402602001604051908101604052809291908181526020018280546001816001161561010002031660029004801562001c5a5780601f1062001c2e5761010080835404028352916020019162001c5a565b820191906000526020600020905b81548152906001019060200180831162001c3c57829003601f168201915b50505050508152602001600282018054600181600116156101000203166002900480601f01602080910402602001604051908101604052809291908181526020018280546001816001161561010002031660029004801562001d005780601f1062001cd45761010080835404028352916020019162001d00565b820191906000526020600020905b81548152906001019060200180831162001ce257829003601f168201915b50505050508152602001600382018054600181600116156101000203166002900480601f01602080910402602001604051908101604052809291908181526020018280546001816001161561010002031660029004801562001da65780601f1062001d7a5761010080835404028352916020019162001da6565b820191906000526020600020905b81548152906001019060200180831162001d8857829003601f168201915b5050505050815250509050919050565b6000600680549050905090565b62001dcd62002e36565b60405180610100016040528060095481526020018781526020018681526020013373ffffffffffffffffffffffffffffffffffffffff1681526020014281526020018581526020018481526020018381525090506007819080600181540180825580915050906001820390600052602060002090600802016000909192909190915060008201518160000155602082015181600101908051906020019062001e7792919062002c78565b50604082015181600201908051906020019062001e9692919062002c78565b5060608201518160030160006101000a81548173ffffffffffffffffffffffffffffffffffffffff021916908373ffffffffffffffffffffffffffffffffffffffff1602179055506080820151816004015560a0820151816005015560c0820151816006015560e082015181600701908051906020019062001f1a92919062002c78565b5050505083833360405162001f2f9062002e91565b62001f3d9392919062004175565b604051809103906000f08015801562001f5a573d6000803e3d6000fd5b5060056000600954815260200190815260200160002060006101000a81548173ffffffffffffffffffffffffffffffffffffffff021916908373ffffffffffffffffffffffffffffffffffffffff160217905550600960008154809291906001019190505550505050505050565b60606000803373ffffffffffffffffffffffffffffffffffffffff1673ffffffffffffffffffffffffffffffffffffffff168152602001908152602001600020805480602002602001604051908101604052809291908181526020016000905b828210156200226257838290600052602060002090600502016040518060a001604052908160008201548152602001600182018054600181600116156101000203166002900480601f016020809104026020016040519081016040528092919081815260200182805460018160011615610100020316600290048015620020f35780601f10620020c757610100808354040283529160200191620020f3565b820191906000526020600020905b815481529060010190602001808311620020d557829003601f168201915b50505050508152602001600282018054600181600116156101000203166002900480601f016020809104026020016040519081016040528092919081815260200182805460018160011615610100020316600290048015620021995780601f106200216d5761010080835404028352916020019162002199565b820191906000526020600020905b8154815290600101906020018083116200217b57829003601f168201915b5050505050815260200160038201548152602001600482018054600181600116156101000203166002900480601f016020809104026020016040519081016040528092919081815260200182805460018160011615610100020316600290048015620022495780601f106200221d5761010080835404028352916020019162002249565b820191906000526020600020905b8154815290600101906020018083116200222b57829003601f168201915b5050505050815250508152602001906001019062002028565b50505050905090565b6060600080905060008090505b6007805490508110156200230b576000600782815481106200229657fe5b906000526020600020906008020160000154905060078281548110620022b857fe5b90600052602060002090600802016005015460078381548110620022d857fe5b90600052602060002090600802016004015401421015620022fc5782806001019350505b50808060010191505062002278565b506060816040519080825280602002602001820160405280156200234c57816020015b6200233862002e9f565b8152602001906001900390816200232e5790505b509050600080905060008090505b6007805490508110156200269b576000600782815481106200237857fe5b9060005260206000209060080201600001549050600782815481106200239a57fe5b90600052602060002090600802016005015460078381548110620023ba57fe5b906000526020600020906008020160040154014210156200268c5760078281548110620023e357fe5b90600052602060002090600802016040518061010001604052908160008201548152602001600182018054600181600116156101000203166002900480601f016020809104026020016040519081016040528092919081815260200182805460018160011615610100020316600290048015620024a45780601f106200247857610100808354040283529160200191620024a4565b820191906000526020600020905b8154815290600101906020018083116200248657829003601f168201915b50505050508152602001600282018054600181600116156101000203166002900480601f0160208091040260200160405190810160405280929190818152602001828054600181600116156101000203166002900480156200254a5780601f106200251e576101008083540402835291602001916200254a565b820191906000526020600020905b8154815290600101906020018083116200252c57829003601f168201915b505050505081526020016003820160009054906101000a900473ffffffffffffffffffffffffffffffffffffffff1673ffffffffffffffffffffffffffffffffffffffff1673ffffffffffffffffffffffffffffffffffffffff168152602001600482015481526020016005820154815260200160068201548152602001600782018054600181600116156101000203166002900480601f016020809104026020016040519081016040528092919081815260200182805460018160011615610100020316600290048015620026645780601f10620026385761010080835404028352916020019162002664565b820191906000526020600020905b8154815290600101906020018083116200264657829003601f168201915b5050505050815250508484806001019550815181106200268057fe5b60200260200101819052505b5080806001019150506200235a565b5081935050505090565b620026af62002c04565b60068281548110620026bd57fe5b90600052602060002090600502016040518060a001604052908160008201548152602001600182018054600181600116156101000203166002900480601f0160208091040260200160405190810160405280929190818152602001828054600181600116156101000203166002900480156200277d5780601f1062002751576101008083540402835291602001916200277d565b820191906000526020600020905b8154815290600101906020018083116200275f57829003601f168201915b50505050508152602001600282018054600181600116156101000203166002900480601f016020809104026020016040519081016040528092919081815260200182805460018160011615610100020316600290048015620028235780601f10620027f75761010080835404028352916020019162002823565b820191906000526020600020905b8154815290600101906020018083116200280557829003601f168201915b50505050508152602001600382015481526020016004820160009054906101000a900473ffffffffffffffffffffffffffffffffffffffff1673ffffffffffffffffffffffffffffffffffffffff1673ffffffffffffffffffffffffffffffffffffffff16815250509050919050565b6060600080905060008090505b6006805490508110156200292c57600060068281548110620028be57fe5b906000526020600020906005020160000154905060016003811115620028e057fe5b6003600083815260200190815260200160002060009054906101000a900460ff1660038111156200290d57fe5b14156200291d5782806001019350505b508080600101915050620028a0565b506060816040519080825280602002602001820160405280156200296d57816020015b6200295962002efa565b8152602001906001900390816200294f5790505b509050600080905060008090505b60068054905081101562002bfa576000600682815481106200299957fe5b906000526020600020906005020160000154905060016003811115620029bb57fe5b6003600083815260200190815260200160002060009054906101000a900460ff166003811115620029e857fe5b141562002beb5760068281548110620029fd57fe5b90600052602060002090600502016040518060a001604052908160008201548152602001600182018054600181600116156101000203166002900480601f01602080910402602001604051908101604052809291908181526020018280546001816001161561010002031660029004801562002abd5780601f1062002a915761010080835404028352916020019162002abd565b820191906000526020600020905b81548152906001019060200180831162002a9f57829003601f168201915b50505050508152602001600282018054600181600116156101000203166002900480601f01602080910402602001604051908101604052809291908181526020018280546001816001161561010002031660029004801562002b635780601f1062002b375761010080835404028352916020019162002b63565b820191906000526020600020905b81548152906001019060200180831162002b4557829003601f168201915b50505050508152602001600382015481526020016004820160009054906101000a900473ffffffffffffffffffffffffffffffffffffffff1673ffffffffffffffffffffffffffffffffffffffff1673ffffffffffffffffffffffffffffffffffffffff168152505084848060010195508151811062002bdf57fe5b60200260200101819052505b5080806001019150506200297b565b5081935050505090565b6040518060a0016040528060008152602001606081526020016060815260200160008152602001600073ffffffffffffffffffffffffffffffffffffffff1681525090565b6040518060a0016040528060008152602001606081526020016060815260200160008152602001606081525090565b828054600181600116156101000203166002900490600052602060002090601f016020900481019282601f1062002cbb57805160ff191683800117855562002cec565b8280016001018555821562002cec579182015b8281111562002ceb57825182559160200191906001019062002cce565b5b50905062002cfb919062002f3f565b5090565b828054600181600116156101000203166002900490600052602060002090601f016020900481019282601f1062002d3a578054855562002d7a565b8280016001018555821562002d7a57600052602060002091601f016020900482015b8281111562002d7957825482559160010191906001019062002d5c565b5b50905062002d89919062002f3f565b5090565b50805460018160011615610100020316600290046000825580601f1062002db5575062002dd6565b601f01602090049060005260206000209081019062002dd5919062002f3f565b5b50565b81548183558181111562002e095760050281600502836000526020600020918201910162002e08919062002f67565b5b505050565b6040518060800160405280600081526020016060815260200160608152602001606081525090565b604051806101000160405280600081526020016060815260200160608152602001600073ffffffffffffffffffffffffffffffffffffffff168152602001600081526020016000815260200160008152602001606081525090565b610e45806200457483390190565b604051806101000160405280600081526020016060815260200160608152602001600073ffffffffffffffffffffffffffffffffffffffff168152602001600081526020016000815260200160008152602001606081525090565b6040518060a0016040528060008152602001606081526020016060815260200160008152602001600073ffffffffffffffffffffffffffffffffffffffff1681525090565b62002f6491905b8082111562002f6057600081600090555060010162002f46565b5090565b90565b62002fcc91905b8082111562002fc85760008082016000905560018201600062002f92919062002d8d565b60028201600062002fa4919062002d8d565b600382016000905560048201600062002fbe919062002d8d565b5060050162002f6e565b5090565b90565b600082601f83011262002fe157600080fd5b813562002ff862002ff282620041e0565b620041b2565b915081818352602084019350602081019050838560208402820111156200301e57600080fd5b60005b83811015620030525781620030378882620030e9565b84526020840193506020830192505060018101905062003021565b5050505092915050565b600082601f8301126200306e57600080fd5b8135620030856200307f8262004209565b620041b2565b91508181835260208401935060208101905083856020840282011115620030ab57600080fd5b60005b83811015620030df5781620030c4888262003173565b845260208401935060208301925050600181019050620030ae565b5050505092915050565b600081359050620030fa8162004525565b92915050565b60008135905062003111816200453f565b92915050565b600082601f8301126200312957600080fd5b8135620031406200313a8262004232565b620041b2565b915080825260208301602083018583830111156200315d57600080fd5b6200316a83828462004486565b50505092915050565b600081359050620031848162004559565b92915050565b6000815190506200319b8162004559565b92915050565b600080600060608486031215620031b757600080fd5b600084013567ffffffffffffffff811115620031d257600080fd5b620031e08682870162003117565b935050602084013567ffffffffffffffff811115620031fe57600080fd5b6200320c8682870162003117565b92505060406200321f8682870162003173565b9150509250925092565b600080600080600060a086880312156200324257600080fd5b600086013567ffffffffffffffff8111156200325d57600080fd5b6200326b8882890162003117565b955050602086013567ffffffffffffffff8111156200328957600080fd5b620032978882890162003117565b9450506040620032aa8882890162003173565b9350506060620032bd8882890162003173565b925050608086013567ffffffffffffffff811115620032db57600080fd5b620032e98882890162003117565b9150509295509295909350565b6000602082840312156200330957600080fd5b6000620033198482850162003173565b91505092915050565b6000602082840312156200333557600080fd5b600062003345848285016200318a565b91505092915050565b600080600080608085870312156200336557600080fd5b6000620033758782880162003173565b945050602085013567ffffffffffffffff8111156200339357600080fd5b620033a1878288016200305c565b935050604085013567ffffffffffffffff811115620033bf57600080fd5b620033cd8782880162002fcf565b9250506060620033e08782880162003100565b91505092959194509250565b6000806000606084860312156200340257600080fd5b6000620034128682870162003173565b93505060206200342586828701620030e9565b9250506040620034388682870162003100565b9150509250925092565b600080604083850312156200345657600080fd5b6000620034668582860162003173565b9250506020620034798582860162003100565b9150509250929050565b600080604083850312156200349757600080fd5b6000620034a78582860162003173565b925050602083013567ffffffffffffffff811115620034c557600080fd5b620034d38582860162003117565b9150509250929050565b6000620034eb838362003874565b60208301905092915050565b600062003505838362003a98565b905092915050565b60006200351b838362003bdf565b905092915050565b600062003531838362003cdf565b905092915050565b600062003547838362003df4565b905092915050565b60006200355d838362003e82565b60208301905092915050565b62003574816200444a565b82525050565b6200358581620043f6565b82525050565b6200359681620043e2565b82525050565b6000620035a982620042bf565b620035b581856200435a565b9350620035c2836200425f565b8060005b83811015620035f9578151620035dd8882620034dd565b9750620035ea836200430c565b925050600181019050620035c6565b5085935050505092915050565b60006200361382620042ca565b6200361f81856200436b565b93508360208202850162003633856200426f565b8060005b85811015620036755784840389528151620036538582620034f7565b9450620036608362004319565b925060208a0199505060018101905062003637565b50829750879550505050505092915050565b60006200369482620042d5565b620036a081856200437c565b935083602082028501620036b4856200427f565b8060005b85811015620036f65784840389528151620036d485826200350d565b9450620036e18362004326565b925060208a01995050600181019050620036b8565b50829750879550505050505092915050565b60006200371582620042e0565b6200372181856200438d565b93508360208202850162003735856200428f565b8060005b8581101562003777578484038952815162003755858262003523565b9450620037628362004333565b925060208a0199505060018101905062003739565b50829750879550505050505092915050565b60006200379682620042eb565b620037a281856200439e565b935083602082028501620037b6856200429f565b8060005b85811015620037f85784840389528151620037d6858262003539565b9450620037e38362004340565b925060208a01995050600181019050620037ba565b50829750879550505050505092915050565b60006200381782620042f6565b620038238185620043af565b93506200383083620042af565b8060005b83811015620038675781516200384b88826200354f565b975062003858836200434d565b92505060018101905062003834565b5085935050505092915050565b6200387f816200440a565b82525050565b62003890816200440a565b82525050565b620038ab620038a5826200440a565b620044cb565b82525050565b620038bc8162004416565b82525050565b620038d7620038d18262004416565b620044df565b82525050565b6000620038ea8262004301565b620038f68185620043c0565b93506200390881856020860162004495565b620039138162004507565b840191505092915050565b60006200392d603083620043d1565b91507f54686973206974656d206973206e6f7420696e207468652070656e64696e672060008301527f64656c6965766572792073746174652e000000000000000000000000000000006020830152604082019050919050565b600062003995602483620043d1565b91507f596f7520617265206e6f74207468652073656c6c6572206f662074686973206960008301527f74656d2e000000000000000000000000000000000000000000000000000000006020830152604082019050919050565b6000620039fd601383620043d1565b91507f4974656d206e6f7420617661696c61626c652e000000000000000000000000006000830152602082019050919050565b600062003a3f602d83620043d1565b91507f53656e7420616d6f756e742073686f756c6420626520657175616c20746f206160008301527f736b696e672070726963652021000000000000000000000000000000000000006020830152604082019050919050565b60006101008301600083015162003ab3600086018262003e82565b506020830151848203602086015262003acd8282620038dd565b9150506040830151848203604086015262003ae98282620038dd565b915050606083015162003b0060608601826200358b565b50608083015162003b15608086018262003e82565b5060a083015162003b2a60a086018262003e82565b5060c083015162003b3f60c086018262003e82565b5060e083015184820360e086015262003b598282620038dd565b9150508091505092915050565b600060808301600083015162003b80600086018262003e82565b506020830151848203602086015262003b9a8282620038dd565b9150506040830151848203604086015262003bb68282620038dd565b9150506060830151848203606086015262003bd28282620038dd565b9150508091505092915050565b600060808301600083015162003bf9600086018262003e82565b506020830151848203602086015262003c138282620038dd565b9150506040830151848203604086015262003c2f8282620038dd565b9150506060830151848203606086015262003c4b8282620038dd565b9150508091505092915050565b600060a08301600083015162003c72600086018262003e82565b506020830151848203602086015262003c8c8282620038dd565b9150506040830151848203604086015262003ca88282620038dd565b915050606083015162003cbf606086018262003e82565b50608083015162003cd460808601826200358b565b508091505092915050565b600060a08301600083015162003cf9600086018262003e82565b506020830151848203602086015262003d138282620038dd565b9150506040830151848203604086015262003d2f8282620038dd565b915050606083015162003d46606086018262003e82565b50608083015162003d5b60808601826200358b565b508091505092915050565b600060a08301600083015162003d80600086018262003e82565b506020830151848203602086015262003d9a8282620038dd565b9150506040830151848203604086015262003db68282620038dd565b915050606083015162003dcd606086018262003e82565b506080830151848203608086015262003de78282620038dd565b9150508091505092915050565b600060a08301600083015162003e0e600086018262003e82565b506020830151848203602086015262003e288282620038dd565b9150506040830151848203604086015262003e448282620038dd565b915050606083015162003e5b606086018262003e82565b506080830151848203608086015262003e758282620038dd565b9150508091505092915050565b62003e8d8162004440565b82525050565b62003e9e8162004440565b82525050565b62003eb962003eb38262004440565b620044e9565b82525050565b600062003ecd828662003ea4565b60208201915062003edf828562003896565b60018201915062003ef18284620038c2565b602082019150819050949350505050565b600060608201905062003f19600083018662003569565b62003f286020830185620038b1565b62003f37604083018462003e93565b949350505050565b6000602082019050818103600083015262003f5b818462003606565b905092915050565b6000602082019050818103600083015262003f7f818462003687565b905092915050565b6000602082019050818103600083015262003fa3818462003708565b905092915050565b6000602082019050818103600083015262003fc7818462003789565b905092915050565b6000608082019050818103600083015262003feb81876200380a565b905081810360208301526200400181866200359c565b9050620040126040830185620038b1565b62004021606083018462003569565b95945050505050565b600060208201905062004041600083018462003885565b92915050565b60006020820190506200405e6000830184620038b1565b92915050565b600060208201905081810360008301526200407f816200391e565b9050919050565b60006020820190508181036000830152620040a18162003986565b9050919050565b60006020820190508181036000830152620040c381620039ee565b9050919050565b60006020820190508181036000830152620040e58162003a30565b9050919050565b6000602082019050818103600083015262004108818462003b66565b905092915050565b600060208201905081810360008301526200412c818462003c58565b905092915050565b6000602082019050818103600083015262004150818462003d66565b905092915050565b60006020820190506200416f600083018462003e93565b92915050565b60006060820190506200418c600083018662003e93565b6200419b602083018562003e93565b620041aa60408301846200357a565b949350505050565b6000604051905081810181811067ffffffffffffffff82111715620041d657600080fd5b8060405250919050565b600067ffffffffffffffff821115620041f857600080fd5b602082029050602081019050919050565b600067ffffffffffffffff8211156200422157600080fd5b602082029050602081019050919050565b600067ffffffffffffffff8211156200424a57600080fd5b601f19601f8301169050602081019050919050565b6000819050602082019050919050565b6000819050602082019050919050565b6000819050602082019050919050565b6000819050602082019050919050565b6000819050602082019050919050565b6000819050602082019050919050565b600081519050919050565b600081519050919050565b600081519050919050565b600081519050919050565b600081519050919050565b600081519050919050565b600081519050919050565b6000602082019050919050565b6000602082019050919050565b6000602082019050919050565b6000602082019050919050565b6000602082019050919050565b6000602082019050919050565b600082825260208201905092915050565b600082825260208201905092915050565b600082825260208201905092915050565b600082825260208201905092915050565b600082825260208201905092915050565b600082825260208201905092915050565b600082825260208201905092915050565b600082825260208201905092915050565b6000620043ef8262004420565b9050919050565b6000620044038262004420565b9050919050565b60008115159050919050565b6000819050919050565b600073ffffffffffffffffffffffffffffffffffffffff82169050919050565b6000819050919050565b600062004457826200445e565b9050919050565b60006200446b8262004472565b9050919050565b60006200447f8262004420565b9050919050565b82818337600083830152505050565b60005b83811015620044b557808201518184015260208101905062004498565b83811115620044c5576000848401525b50505050565b6000620044d882620044f3565b9050919050565b6000819050919050565b6000819050919050565b6000620045008262004518565b9050919050565b6000601f19601f8301169050919050565b60008160f81b9050919050565b62004530816200440a565b81146200453c57600080fd5b50565b6200454a8162004416565b81146200455657600080fd5b50565b620045648162004440565b81146200457057600080fd5b5056fe60806040523480156200001157600080fd5b5060405162000e4538038062000e458339818101604052620000379190810190620000c2565b806000806101000a81548173ffffffffffffffffffffffffffffffffffffffff021916908373ffffffffffffffffffffffffffffffffffffffff16021790555082420160018190555081600154016002819055505050506200018a565b600081519050620000a58162000156565b92915050565b600081519050620000bc8162000170565b92915050565b600080600060608486031215620000d857600080fd5b6000620000e886828701620000ab565b9350506020620000fb86828701620000ab565b92505060406200010e8682870162000094565b9150509250925092565b600062000125826200012c565b9050919050565b600073ffffffffffffffffffffffffffffffffffffffff82169050919050565b6000819050919050565b620001618162000118565b81146200016d57600080fd5b50565b6200017b816200014c565b81146200018757600080fd5b50565b610cab806200019a6000396000f3fe608060405234801561001057600080fd5b50600436106100935760003560e01c80633b379797116100665780633b3797971461010f578063423b217f1461013f578063a6e664771461015d578063e9b036e91461017b578063fb31c409146101ab57610093565b806301495c1c1461009857806312fa6feb146100c95780632a24f46c146100e757806338af3eed146100f1575b600080fd5b6100b260048036036100ad91908101906108df565b6101c7565b6040516100c0929190610aa2565b60405180910390f35b6100d1610205565b6040516100de9190610a87565b60405180910390f35b6100ef610218565b005b6100f961029f565b6040516101069190610a6c565b60405180910390f35b6101296004803603610124919081019061091b565b6102c4565b6040516101369190610acb565b60405180910390f35b61014761048a565b6040516101549190610acb565b60405180910390f35b610165610490565b6040516101729190610acb565b60405180910390f35b61019560048036036101909190810190610867565b610496565b6040516101a29190610acb565b60405180910390f35b6101c560048036036101c09190810190610890565b610533565b005b600560205281600052604060002081815481106101e057fe5b9060005260206000209060020201600091509150508060000154908060010154905082565b600360009054906101000a900460ff1681565b6001600360006101000a81548160ff0219169083151502179055506000809054906101000a900473ffffffffffffffffffffffffffffffffffffffff1673ffffffffffffffffffffffffffffffffffffffff166108fc6007549081150290604051600060405180830381858888f1935050505015801561029c573d6000803e3d6000fd5b50565b6000809054906101000a900473ffffffffffffffffffffffffffffffffffffffff1681565b60006001548042116102d557600080fd5b6002548042106102e457600080fd5b6000600560008673ffffffffffffffffffffffffffffffffffffffff1673ffffffffffffffffffffffffffffffffffffffff1681526020019081526020016000208054905090508088511461033857600080fd5b8087511461034557600080fd5b600080905060008090505b8281101561047a576000600560008973ffffffffffffffffffffffffffffffffffffffff1673ffffffffffffffffffffffffffffffffffffffff16815260200190815260200160002082815481106103a457fe5b9060005260206000209060020201905060008060008d85815181106103c557fe5b60200260200101518d86815181106103d957fe5b60200260200101518d9250925092508282826040516020016103fd93929190610a2f565b60405160208183030381529060405280519060200120846000015414610426575050505061046d565b83600101548601955081158015610441575082846001015410155b1561045c576104508b846105de565b1561045b5782860395505b5b6000801b8460000181905550505050505b8080600101915050610350565b5080945050505050949350505050565b60015481565b60025481565b600080600660008473ffffffffffffffffffffffffffffffffffffffff1673ffffffffffffffffffffffffffffffffffffffff168152602001908152602001600020549050600081111561052a576000600660008573ffffffffffffffffffffffffffffffffffffffff1673ffffffffffffffffffffffffffffffffffffffff168152602001908152602001600020819055505b80915050919050565b60015480421061054257600080fd5b600560008573ffffffffffffffffffffffffffffffffffffffff1673ffffffffffffffffffffffffffffffffffffffff16815260200190815260200160002060405180604001604052808581526020018481525090806001815401808255809150509060018203906000526020600020906002020160009091929091909150600082015181600001556020820151816001015550505050505050565b600060075482116105f25760009050610707565b600073ffffffffffffffffffffffffffffffffffffffff16600860009054906101000a900473ffffffffffffffffffffffffffffffffffffffff1673ffffffffffffffffffffffffffffffffffffffff16146106ba5760075460066000600860009054906101000a900473ffffffffffffffffffffffffffffffffffffffff1673ffffffffffffffffffffffffffffffffffffffff1673ffffffffffffffffffffffffffffffffffffffff168152602001908152602001600020600082825401925050819055505b8160078190555082600860006101000a81548173ffffffffffffffffffffffffffffffffffffffff021916908373ffffffffffffffffffffffffffffffffffffffff160217905550600190505b92915050565b60008135905061071c81610c0c565b92915050565b600082601f83011261073357600080fd5b813561074661074182610b13565b610ae6565b9150818183526020840193506020810190508385602084028201111561076b57600080fd5b60005b8381101561079b57816107818882610828565b84526020840193506020830192505060018101905061076e565b5050505092915050565b600082601f8301126107b657600080fd5b81356107c96107c482610b3b565b610ae6565b915081818352602084019350602081019050838560208402820111156107ee57600080fd5b60005b8381101561081e57816108048882610852565b8452602084019350602083019250506001810190506107f1565b5050505092915050565b60008135905061083781610c23565b92915050565b60008135905061084c81610c3a565b92915050565b60008135905061086181610c51565b92915050565b60006020828403121561087957600080fd5b60006108878482850161070d565b91505092915050565b6000806000606084860312156108a557600080fd5b60006108b38682870161070d565b93505060206108c48682870161083d565b92505060406108d586828701610852565b9150509250925092565b600080604083850312156108f257600080fd5b60006109008582860161070d565b925050602061091185828601610852565b9150509250929050565b6000806000806080858703121561093157600080fd5b600085013567ffffffffffffffff81111561094b57600080fd5b610957878288016107a5565b945050602085013567ffffffffffffffff81111561097457600080fd5b61098087828801610722565b93505060406109918782880161083d565b92505060606109a28782880161070d565b91505092959194509250565b6109b781610b75565b82525050565b6109c681610b87565b82525050565b6109dd6109d882610b87565b610bc7565b82525050565b6109ec81610b93565b82525050565b610a036109fe82610b93565b610bd9565b82525050565b610a1281610bbd565b82525050565b610a29610a2482610bbd565b610be3565b82525050565b6000610a3b8286610a18565b602082019150610a4b82856109cc565b600182019150610a5b82846109f2565b602082019150819050949350505050565b6000602082019050610a8160008301846109ae565b92915050565b6000602082019050610a9c60008301846109bd565b92915050565b6000604082019050610ab760008301856109e3565b610ac46020830184610a09565b9392505050565b6000602082019050610ae06000830184610a09565b92915050565b6000604051905081810181811067ffffffffffffffff82111715610b0957600080fd5b8060405250919050565b600067ffffffffffffffff821115610b2a57600080fd5b602082029050602081019050919050565b600067ffffffffffffffff821115610b5257600080fd5b602082029050602081019050919050565b6000610b6e82610b9d565b9050919050565b6000610b8082610b9d565b9050919050565b60008115159050919050565b6000819050919050565b600073ffffffffffffffffffffffffffffffffffffffff82169050919050565b6000819050919050565b6000610bd282610bed565b9050919050565b6000819050919050565b6000819050919050565b6000610bf882610bff565b9050919050565b60008160f81b9050919050565b610c1581610b63565b8114610c2057600080fd5b50565b610c2c81610b87565b8114610c3757600080fd5b50565b610c4381610b93565b8114610c4e57600080fd5b50565b610c5a81610bbd565b8114610c6557600080fd5b5056fea365627a7a723158208961c98af191b6ec86970daa8b251a90fc78ed8855feff63f18132e01e25348d6c6578706572696d656e74616cf564736f6c63430005100040a365627a7a72315820f00f23e1ce69ef992f8b28a4e36a4fbf68b5f2875b63420881fe9f4ce4bbfcc16c6578706572696d656e74616cf564736f6c63430005100040",
  "source": "// SPDX-License-Identifier: MIT\npragma experimental ABIEncoderV2;\npragma solidity >=0.4.22 <0.9.0;\nimport './FirstPriceAuction.sol';\n\ncontract Factory {\n    \n}\ncontract SmartStore {\n    /// @author Heisenberg team\n\n    enum State {UNDEFINED, AVAILABLE, PENDING_DELIVERY, DELIVERED}\n\n    struct Listing {\n        uint listingID;\n        string itemName;\n        string itemDescription;\n        uint askingPrice;\n        address sellerID;\n    }\n\n    struct Auction {\n        uint auctionID;\n        string itemName;\n        string itemDescription;\n        address sellerId;\n        uint startTime;\n        uint biddingTime;\n        uint revealTime;\n        string method;\n    }\n\n    struct PendingItem {\n        uint listingID;\n        string itemName;\n        string itemDescription;\n        uint askingPrice;\n        string publicKey;\n    }\n\n    struct BoughtItem {\n        uint listingID;\n        string itemName;\n        string itemDescription;\n        string itemText;\n    }\n\n\n    constructor() public {\n\n    }\n\n    /// @dev list of pending deliveries for each seller\n    mapping(address => PendingItem[]) pendingDeliveries;\n    /// @dev address of the seller who is selling a particular product\n    mapping(uint => address) sellers;\n    /// @dev address of the person who has paid money to the contract to buy a particular product\n    mapping(uint => address) buyers;\n    /// @dev state of each product in the listing\n    mapping(uint => State) status;\n    /// @dev list of items which each person has bought and has been deliverd\n    mapping(address => BoughtItem[]) myItems;\n    mapping(uint => BaseAuction) auctionContracts;\n\n    /// @dev list of all products. Also includes products which have already been sold\n    Listing[] private listings;\n    Auction[] private auctions;\n\n    uint listingCounter = 0;\n    uint auctionCounter = 0;\n\n    modifier onlyAvailable(uint itemID) {\n        require (\n            status[itemID] == State.AVAILABLE,\n            \"Item not available.\"\n        );\n        _;\n    }\n\n    modifier onlySeller(uint itemID) {\n        require (\n            sellers[itemID] == msg.sender,\n            \"You are not the seller of this item.\"\n        );\n        _;\n    }\n\n\n    /**\n     * @notice sellers use this to add a new product they want to sell into the list of available products\n     * @param itemName the name of the item to be sold\n     * @param itemDescription description of the item to be sold \n     * @param askingPrice price of the item to be sold\n     */\n    function addListing(string memory itemName, string memory itemDescription, uint askingPrice) public {\n        Listing memory listing = Listing(listingCounter, itemName, itemDescription, askingPrice, msg.sender);\n        sellers[listingCounter] = msg.sender;\n        status[listingCounter] = State.AVAILABLE;\n        listings.push(listing);\n        listingCounter++;\n    }\n    function getNumberOfListings() public returns (uint) {\n        return listings.length;\n    }\n\n    function getParticularListing(uint idx) public view returns (Listing memory) {\n        return listings[idx];\n    }\n\n    function getStatusOfListing(uint itemID) public view returns (bool) {\n        if(status[itemID] == State.AVAILABLE) {\n            return true;\n        } else {\n            return false;\n        }\n    }\n\n    function addAuction(string memory itemName, string memory itemDescription, uint biddingTime, uint revealTime, string memory method) public {\n        Auction memory auction = Auction(auctionCounter, itemName, itemDescription, msg.sender, now, biddingTime, revealTime, method);\n        auctions.push(auction);\n        auctionContracts[auctionCounter] = new FirstPriceAuction(biddingTime, revealTime, msg.sender);\n        auctionCounter++;\n    }\n\n    function placeBid(uint auctionID, bytes32 _blindedBid) public payable{\n        auctionContracts[auctionID].bid(msg.sender, _blindedBid, msg.value);\n    }\n    function revealBid(uint auctionID, uint[] memory values, bool[] memory fake, bytes32 secret) public {\n        uint refundAmount = auctionContracts[auctionID].reveal(values, fake, secret, msg.sender);\n        address payable bidderAddress = msg.sender;\n        bidderAddress.transfer(refundAmount);\n    }\n    function getAuctions() public view returns (Auction[] memory) {\n        uint available = 0;\n        for(uint i = 0; i < auctions.length; i++) {\n            uint itemID = auctions[i].auctionID;\n            if(now < auctions[i].startTime + auctions[i].biddingTime) {\n                available++;\n            }\n        }\n\n        Auction[] memory activeAuctions = new Auction[](available);\n        uint index = 0;\n        for(uint i = 0; i < auctions.length; i++) {\n            uint itemID = auctions[i].auctionID;\n            if(now < auctions[i].startTime + auctions[i].biddingTime) {\n                activeAuctions[index++] = auctions[i];\n            }\n        }\n        return activeAuctions;\n    }\n    function getHash(uint value, bool fake, bytes32 secret) public view returns (bytes32) {\n        bytes32 hash = keccak256(abi.encodePacked(value, fake, secret));\n        return hash;\n    }\n    /**\n     * @notice used to get a list of all the products which are available for sale\n     * @return the list of active products\n     */\n    function getListings() public view returns (Listing[] memory) {\n        uint available = 0;\n        for(uint i = 0; i < listings.length; i++) {\n            uint itemID = listings[i].listingID;\n            if(status[itemID] == State.AVAILABLE) {\n                available++;\n            }\n        }\n\n        Listing[] memory activeListings = new Listing[](available);\n        uint index = 0;\n        for(uint i = 0; i < listings.length; i++) {\n            uint itemID = listings[i].listingID;\n            if(status[itemID] == State.AVAILABLE) {\n                activeListings[index++] = listings[i];\n            }\n        }\n        return activeListings;\n    }\n\n    /**\n     * @notice buyers use this to buy a product which is available for sale\n     * @dev calling this function adds the product into the list of pending deliveries for the corresponding seller \n     * @param itemID ID of the item to be bought\n     * @param publicKey publick key which will be used for encrypting the product string by the seller. Buyer must have the corresponding private key to decrypt the message\n     */\n    function buyListing(uint itemID, string memory publicKey) public onlyAvailable(itemID) payable {\n        require (\n            msg.value == listings[itemID].askingPrice,\n            \"Sent amount should be equal to asking price !\"\n        );\n        \n\n        buyers[itemID] = msg.sender;\n\n        Listing memory item = listings[itemID];\n\n        status[itemID] = State.PENDING_DELIVERY;\n        \n        address sellerAddress = sellers[itemID];\n        PendingItem memory pendingItem = PendingItem(item.listingID, item.itemName, item.itemDescription, item.askingPrice, publicKey);\n        pendingDeliveries[sellerAddress].push(pendingItem);\n    }\n\n    /**\n     * @notice sellers can use this to get a list of products they need to deliever\n     * @return the list of products which needs to be delievered\n     */\n    function getPendingTransactions() public view returns (PendingItem[] memory) {\n        return pendingDeliveries[msg.sender];\n    }\n\n    function getNumberOfPendingTransactions() public returns (uint) {\n        return pendingDeliveries[msg.sender].length;\n    }\n\n    function getParticularPendingListing(uint idx) public view returns (PendingItem memory) {\n        return pendingDeliveries[msg.sender][idx];\n    }\n\n    /**\n     * @notice function to deliver an item. The seller must send the itemText by correctly encrypting it with the public key assosciated with that product\n     * @param itemID ID of the product which needs to be delivered\n     * @param itemText encrypted text assosicated with the product that is being delivered\n     */ \n    function delieverItem(uint itemID, string memory itemText) public onlySeller(itemID) {\n        \n        require (\n            status[itemID] == State.PENDING_DELIVERY,\n            \"This item is not in the pending delievery state.\"\n        );\n\n        \n        status[itemID] = State.DELIVERED;\n\n        uint len = pendingDeliveries[msg.sender].length;\n        for(uint i = 0; i < len; i++) {\n            if(pendingDeliveries[msg.sender][i].listingID == itemID) {\n                pendingDeliveries[msg.sender][i] = pendingDeliveries[msg.sender][len - 1];\n                delete pendingDeliveries[msg.sender][len - 1];\n                pendingDeliveries[msg.sender].length--;\n                break;\n            }\n        }\n\n        address buyerAddress = buyers[itemID];\n        Listing memory item = listings[itemID];\n        BoughtItem memory boughtItem = BoughtItem(item.listingID, item.itemName, item.itemDescription, itemText);\n\n        myItems[buyerAddress].push(boughtItem);  \n        \n        address payable sellerAddress = msg.sender;\n        sellerAddress.transfer(listings[itemID].askingPrice);\n    }\n\n    /**\n     * @notice buyers can use this function to get a list of products which they bought and that have been delievered \n     * @return list of products which have been delievered to a particular buyer\n     */\n    function getItems() public view returns (BoughtItem[] memory){\n        return myItems[msg.sender];\n    }\n\n    function getNumberOfItems() public returns (uint) {\n        return myItems[msg.sender].length;\n    }\n\n    function getParticularOrderItem(uint idx) public view returns (BoughtItem memory) {\n        return myItems[msg.sender][idx];\n    }    \n}\n",
  "sourcePath": "/home/daksh0225/Sem7/DTB/SmartAuction/contracts/SmartStore.sol",
  "compiler": {
    "name": "solc",
    "version": "0.5.16+commit.9c3226ce.Emscripten.clang"
  },
  "schemaVersion": "3.4.3",
  "updatedAt": "2021-10-12T09:30:50.048Z",
  "networkType": "ethereum",
  "devdoc": {
    "methods": {
      "addListing(string,string,uint256)": {
        "params": {
          "askingPrice": "price of the item to be sold",
          "itemDescription": "description of the item to be sold ",
          "itemName": "the name of the item to be sold"
        }
      },
      "buyListing(uint256,string)": {
        "details": "calling this function adds the product into the list of pending deliveries for the corresponding seller ",
        "params": {
          "itemID": "ID of the item to be bought",
          "publicKey": "publick key which will be used for encrypting the product string by the seller. Buyer must have the corresponding private key to decrypt the message"
        }
      },
      "delieverItem(uint256,string)": {
        "params": {
          "itemID": "ID of the product which needs to be delivered",
          "itemText": "encrypted text assosicated with the product that is being delivered"
        }
      },
      "getItems()": {
        "return": "list of products which have been delievered to a particular buyer"
      },
      "getListings()": {
        "return": "the list of active products"
      },
      "getPendingTransactions()": {
        "return": "the list of products which needs to be delievered"
      }
    }
  },
  "userdoc": {
    "methods": {
      "addListing(string,string,uint256)": {
        "notice": "sellers use this to add a new product they want to sell into the list of available products"
      },
      "buyListing(uint256,string)": {
        "notice": "buyers use this to buy a product which is available for sale"
      },
      "delieverItem(uint256,string)": {
        "notice": "function to deliver an item. The seller must send the itemText by correctly encrypting it with the public key assosciated with that product"
      },
      "getItems()": {
        "notice": "buyers can use this function to get a list of products which they bought and that have been delievered "
      },
      "getListings()": {
        "notice": "used to get a list of all the products which are available for sale"
      },
      "getPendingTransactions()": {
        "notice": "sellers can use this to get a list of products they need to deliever"
      }
    }
  }
}