{
  "contractName": "SmartStore",
  "abi": [
    {
      "inputs": [],
      "payable": false,
      "stateMutability": "nonpayable",
      "type": "constructor"
    },
    {
      "constant": false,
      "inputs": [
        {
          "internalType": "string",
          "name": "itemName",
          "type": "string"
        },
        {
          "internalType": "string",
          "name": "itemDescription",
          "type": "string"
        },
        {
          "internalType": "uint256",
          "name": "askingPrice",
          "type": "uint256"
        }
      ],
      "name": "addListing",
      "outputs": [],
      "payable": false,
      "stateMutability": "nonpayable",
      "type": "function"
    },
    {
      "constant": false,
      "inputs": [],
      "name": "getNumberOfListings",
      "outputs": [
        {
          "internalType": "uint256",
          "name": "",
          "type": "uint256"
        }
      ],
      "payable": false,
      "stateMutability": "nonpayable",
      "type": "function"
    },
    {
      "constant": true,
      "inputs": [
        {
          "internalType": "uint256",
          "name": "idx",
          "type": "uint256"
        }
      ],
      "name": "getParticularListing",
      "outputs": [
        {
          "components": [
            {
              "internalType": "uint256",
              "name": "listingID",
              "type": "uint256"
            },
            {
              "internalType": "string",
              "name": "itemName",
              "type": "string"
            },
            {
              "internalType": "string",
              "name": "itemDescription",
              "type": "string"
            },
            {
              "internalType": "uint256",
              "name": "askingPrice",
              "type": "uint256"
            },
            {
              "internalType": "address",
              "name": "sellerID",
              "type": "address"
            }
          ],
          "internalType": "struct SmartStore.Listing",
          "name": "",
          "type": "tuple"
        }
      ],
      "payable": false,
      "stateMutability": "view",
      "type": "function"
    },
    {
      "constant": true,
      "inputs": [
        {
          "internalType": "uint256",
          "name": "itemID",
          "type": "uint256"
        }
      ],
      "name": "getStatusOfListing",
      "outputs": [
        {
          "internalType": "bool",
          "name": "",
          "type": "bool"
        }
      ],
      "payable": false,
      "stateMutability": "view",
      "type": "function"
    },
    {
      "constant": false,
      "inputs": [
        {
          "internalType": "string",
          "name": "itemName",
          "type": "string"
        },
        {
          "internalType": "string",
          "name": "itemDescription",
          "type": "string"
        },
        {
          "internalType": "uint256",
          "name": "biddingTime",
          "type": "uint256"
        },
        {
          "internalType": "uint256",
          "name": "revealTime",
          "type": "uint256"
        },
        {
          "internalType": "string",
          "name": "method",
          "type": "string"
        }
      ],
      "name": "addAuction",
      "outputs": [],
      "payable": false,
      "stateMutability": "nonpayable",
      "type": "function"
    },
    {
      "constant": false,
      "inputs": [
        {
          "internalType": "uint256",
          "name": "auctionID",
          "type": "uint256"
        },
        {
          "internalType": "bytes32",
          "name": "_blindedBid",
          "type": "bytes32"
        },
        {
          "internalType": "string",
          "name": "publicKey",
          "type": "string"
        }
      ],
      "name": "placeBid",
      "outputs": [],
      "payable": false,
      "stateMutability": "nonpayable",
      "type": "function"
    },
    {
      "constant": false,
      "inputs": [
        {
          "internalType": "uint256",
          "name": "auctionID",
          "type": "uint256"
        },
        {
          "internalType": "uint256",
          "name": "value",
          "type": "uint256"
        },
        {
          "internalType": "bytes32",
          "name": "secret",
          "type": "bytes32"
        }
      ],
      "name": "revealBid",
      "outputs": [],
      "payable": true,
      "stateMutability": "payable",
      "type": "function"
    },
    {
      "constant": true,
      "inputs": [],
      "name": "getAuctions",
      "outputs": [
        {
          "components": [
            {
              "internalType": "uint256",
              "name": "auctionID",
              "type": "uint256"
            },
            {
              "internalType": "string",
              "name": "itemName",
              "type": "string"
            },
            {
              "internalType": "string",
              "name": "itemDescription",
              "type": "string"
            },
            {
              "internalType": "address",
              "name": "sellerId",
              "type": "address"
            },
            {
              "internalType": "uint256",
              "name": "startTime",
              "type": "uint256"
            },
            {
              "internalType": "uint256",
              "name": "biddingTime",
              "type": "uint256"
            },
            {
              "internalType": "uint256",
              "name": "revealTime",
              "type": "uint256"
            },
            {
              "internalType": "string",
              "name": "method",
              "type": "string"
            }
          ],
          "internalType": "struct SmartStore.Auction[]",
          "name": "",
          "type": "tuple[]"
        }
      ],
      "payable": false,
      "stateMutability": "view",
      "type": "function"
    },
    {
      "constant": false,
      "inputs": [
        {
          "internalType": "uint256",
          "name": "auctionID",
          "type": "uint256"
        }
      ],
      "name": "endAuction",
      "outputs": [],
      "payable": false,
      "stateMutability": "nonpayable",
      "type": "function"
    },
    {
      "constant": true,
      "inputs": [
        {
          "internalType": "uint256",
          "name": "value",
          "type": "uint256"
        },
        {
          "internalType": "bytes32",
          "name": "secret",
          "type": "bytes32"
        }
      ],
      "name": "getHash",
      "outputs": [
        {
          "internalType": "bytes32",
          "name": "",
          "type": "bytes32"
        }
      ],
      "payable": false,
      "stateMutability": "view",
      "type": "function"
    },
    {
      "constant": true,
      "inputs": [],
      "name": "getListings",
      "outputs": [
        {
          "components": [
            {
              "internalType": "uint256",
              "name": "listingID",
              "type": "uint256"
            },
            {
              "internalType": "string",
              "name": "itemName",
              "type": "string"
            },
            {
              "internalType": "string",
              "name": "itemDescription",
              "type": "string"
            },
            {
              "internalType": "uint256",
              "name": "askingPrice",
              "type": "uint256"
            },
            {
              "internalType": "address",
              "name": "sellerID",
              "type": "address"
            }
          ],
          "internalType": "struct SmartStore.Listing[]",
          "name": "",
          "type": "tuple[]"
        }
      ],
      "payable": false,
      "stateMutability": "view",
      "type": "function"
    },
    {
      "constant": false,
      "inputs": [
        {
          "internalType": "uint256",
          "name": "itemID",
          "type": "uint256"
        },
        {
          "internalType": "string",
          "name": "publicKey",
          "type": "string"
        }
      ],
      "name": "buyListing",
      "outputs": [],
      "payable": true,
      "stateMutability": "payable",
      "type": "function"
    },
    {
      "constant": true,
      "inputs": [],
      "name": "getPendingTransactions",
      "outputs": [
        {
          "components": [
            {
              "internalType": "uint256",
              "name": "listingID",
              "type": "uint256"
            },
            {
              "internalType": "string",
              "name": "itemName",
              "type": "string"
            },
            {
              "internalType": "string",
              "name": "itemDescription",
              "type": "string"
            },
            {
              "internalType": "uint256",
              "name": "askingPrice",
              "type": "uint256"
            },
            {
              "internalType": "string",
              "name": "publicKey",
              "type": "string"
            }
          ],
          "internalType": "struct SmartStore.PendingItem[]",
          "name": "",
          "type": "tuple[]"
        }
      ],
      "payable": false,
      "stateMutability": "view",
      "type": "function"
    },
    {
      "constant": false,
      "inputs": [],
      "name": "getNumberOfPendingTransactions",
      "outputs": [
        {
          "internalType": "uint256",
          "name": "",
          "type": "uint256"
        }
      ],
      "payable": false,
      "stateMutability": "nonpayable",
      "type": "function"
    },
    {
      "constant": true,
      "inputs": [
        {
          "internalType": "uint256",
          "name": "idx",
          "type": "uint256"
        }
      ],
      "name": "getParticularPendingListing",
      "outputs": [
        {
          "components": [
            {
              "internalType": "uint256",
              "name": "listingID",
              "type": "uint256"
            },
            {
              "internalType": "string",
              "name": "itemName",
              "type": "string"
            },
            {
              "internalType": "string",
              "name": "itemDescription",
              "type": "string"
            },
            {
              "internalType": "uint256",
              "name": "askingPrice",
              "type": "uint256"
            },
            {
              "internalType": "string",
              "name": "publicKey",
              "type": "string"
            }
          ],
          "internalType": "struct SmartStore.PendingItem",
          "name": "",
          "type": "tuple"
        }
      ],
      "payable": false,
      "stateMutability": "view",
      "type": "function"
    },
    {
      "constant": false,
      "inputs": [
        {
          "internalType": "uint256",
          "name": "itemID",
          "type": "uint256"
        },
        {
          "internalType": "string",
          "name": "itemText",
          "type": "string"
        }
      ],
      "name": "delieverItem",
      "outputs": [],
      "payable": false,
      "stateMutability": "nonpayable",
      "type": "function"
    },
    {
      "constant": true,
      "inputs": [],
      "name": "getItems",
      "outputs": [
        {
          "components": [
            {
              "internalType": "uint256",
              "name": "listingID",
              "type": "uint256"
            },
            {
              "internalType": "string",
              "name": "itemName",
              "type": "string"
            },
            {
              "internalType": "string",
              "name": "itemDescription",
              "type": "string"
            },
            {
              "internalType": "string",
              "name": "itemText",
              "type": "string"
            }
          ],
          "internalType": "struct SmartStore.BoughtItem[]",
          "name": "",
          "type": "tuple[]"
        }
      ],
      "payable": false,
      "stateMutability": "view",
      "type": "function"
    }
  ],
  "bytecode": "0x608060405260006009556000600a5534801561001a57600080fd5b5061592a8061002a6000396000f3fe608060405260043610620001165760003560e01c8063759652d211620000a3578063cf59df3d116200006d578063cf59df3d1462000359578063d11db83f146200039d578063d7c0691914620003cd578063e51cbbf914620003fd578063f1b2d6a314620004415762000116565b8063759652d21462000289578063affe942714620002cd578063b9a2de3a14620002fd578063c6209edf146200032b5762000116565b80632fd0957611620000e55780632fd0957614620001c75780633fb7de9e14620001f5578063410d59cc14620002395780634d380a0d14620002695762000116565b8063017f47ff146200011b57806310e822fd146200014b578063298c154e146200016b5780632c57f1ea1462000199575b600080fd5b3480156200012857600080fd5b506200013362000471565b6040516200014291906200455b565b60405180910390f35b62000169600480360362000163919081019062003a27565b620004ba565b005b3480156200017857600080fd5b50620001976004803603620001919190810190620037ca565b620009a5565b005b348015620001a657600080fd5b50620001c56004803603620001bf919081019062003a27565b62000b5e565b005b348015620001d457600080fd5b50620001f36004803603620001ed9190810190620039b8565b620013da565b005b3480156200020257600080fd5b506200022160048036036200021b91908101906200391f565b62001485565b60405162000230919062004451565b60405180910390f35b3480156200024657600080fd5b5062000251620014dd565b604051620002609190620043e5565b60405180910390f35b62000287600480360362000281919081019062003a81565b62001777565b005b3480156200029657600080fd5b50620002b56004803603620002af91908101906200391f565b62001897565b604051620002c4919062004537565b60405180910390f35b348015620002da57600080fd5b50620002e562001b11565b604051620002f491906200455b565b60405180910390f35b3480156200030a57600080fd5b506200032960048036036200032391908101906200391f565b62001b1e565b005b3480156200033857600080fd5b5062000357600480360362000351919081019062003852565b62002330565b005b3480156200036657600080fd5b506200038560048036036200037f919081019062003977565b620025c1565b6040516200039491906200446e565b60405180910390f35b348015620003aa57600080fd5b50620003b5620025fb565b604051620003c491906200442d565b60405180910390f35b348015620003da57600080fd5b50620003e56200289e565b604051620003f49190620043c1565b60405180910390f35b3480156200040a57600080fd5b506200042960048036036200042391908101906200391f565b62002cd8565b60405162000438919062004513565b60405180910390f35b3480156200044e57600080fd5b506200045962002ec6565b60405162000468919062004409565b60405180910390f35b60008060003373ffffffffffffffffffffffffffffffffffffffff1673ffffffffffffffffffffffffffffffffffffffff16815260200190815260200160002080549050905090565b8160016003811115620004c957fe5b6003600083815260200190815260200160002060009054906101000a900460ff166003811115620004f657fe5b1462000539576040517f08c379a00000000000000000000000000000000000000000000000000000000081526004016200053090620044cf565b60405180910390fd5b6200054362003237565b60008090505b600780549050811015620007725784600782815481106200056657fe5b90600052602060002090600502016000015414156200076457600781815481106200058d57fe5b90600052602060002090600502016040518060a001604052908160008201548152602001600182018054600181600116156101000203166002900480601f0160208091040260200160405190810160405280929190818152602001828054600181600116156101000203166002900480156200064d5780601f1062000621576101008083540402835291602001916200064d565b820191906000526020600020905b8154815290600101906020018083116200062f57829003601f168201915b50505050508152602001600282018054600181600116156101000203166002900480601f016020809104026020016040519081016040528092919081815260200182805460018160011615610100020316600290048015620006f35780601f10620006c757610100808354040283529160200191620006f3565b820191906000526020600020905b815481529060010190602001808311620006d557829003601f168201915b50505050508152602001600382015481526020016004820160009054906101000a900473ffffffffffffffffffffffffffffffffffffffff1673ffffffffffffffffffffffffffffffffffffffff1673ffffffffffffffffffffffffffffffffffffffff1681525050915062000772565b808060010191505062000549565b5080606001513414620007bc576040517f08c379a0000000000000000000000000000000000000000000000000000000008152600401620007b390620044f1565b60405180910390fd5b336002600086815260200190815260200160002060006101000a81548173ffffffffffffffffffffffffffffffffffffffff021916908373ffffffffffffffffffffffffffffffffffffffff16021790555060026003600086815260200190815260200160002060006101000a81548160ff021916908360038111156200083f57fe5b021790555060006001600086815260200190815260200160002060009054906101000a900473ffffffffffffffffffffffffffffffffffffffff169050620008866200327c565b6040518060a00160405280846000015181526020018460200151815260200184604001518152602001846060015181526020018681525090506000808373ffffffffffffffffffffffffffffffffffffffff1673ffffffffffffffffffffffffffffffffffffffff168152602001908152602001600020819080600181540180825580915050906001820390600052602060002090600502016000909192909190915060008201518160000155602082015181600101908051906020019062000951929190620032ab565b50604082015181600201908051906020019062000970929190620032ab565b5060608201518160030155608082015181600401908051906020019062000999929190620032ab565b50505050505050505050565b620009af62003237565b6040518060a0016040528060095481526020018581526020018481526020018381526020013373ffffffffffffffffffffffffffffffffffffffff1681525090503360016000600954815260200190815260200160002060006101000a81548173ffffffffffffffffffffffffffffffffffffffff021916908373ffffffffffffffffffffffffffffffffffffffff160217905550600160036000600954815260200190815260200160002060006101000a81548160ff0219169083600381111562000a7757fe5b02179055506007819080600181540180825580915050906001820390600052602060002090600502016000909192909190915060008201518160000155602082015181600101908051906020019062000ad2929190620032ab565b50604082015181600201908051906020019062000af1929190620032ab565b506060820151816003015560808201518160040160006101000a81548173ffffffffffffffffffffffffffffffffffffffff021916908373ffffffffffffffffffffffffffffffffffffffff16021790555050505060096000815480929190600101919050555050505050565b813373ffffffffffffffffffffffffffffffffffffffff166001600083815260200190815260200160002060009054906101000a900473ffffffffffffffffffffffffffffffffffffffff1673ffffffffffffffffffffffffffffffffffffffff161462000c03576040517f08c379a000000000000000000000000000000000000000000000000000000000815260040162000bfa90620044ad565b60405180910390fd5b6002600381111562000c1157fe5b6003600085815260200190815260200160002060009054906101000a900460ff16600381111562000c3e57fe5b1462000c81576040517f08c379a000000000000000000000000000000000000000000000000000000000815260040162000c78906200448b565b60405180910390fd5b600380600085815260200190815260200160002060006101000a81548160ff0219169083600381111562000cb157fe5b021790555060008060003373ffffffffffffffffffffffffffffffffffffffff1673ffffffffffffffffffffffffffffffffffffffff16815260200190815260200160002080549050905062000d066200327c565b60008090505b828110156200123857856000803373ffffffffffffffffffffffffffffffffffffffff1673ffffffffffffffffffffffffffffffffffffffff168152602001908152602001600020828154811062000d6057fe5b90600052602060002090600502016000015414156200122a576000803373ffffffffffffffffffffffffffffffffffffffff1673ffffffffffffffffffffffffffffffffffffffff168152602001908152602001600020818154811062000dc357fe5b90600052602060002090600502016040518060a001604052908160008201548152602001600182018054600181600116156101000203166002900480601f01602080910402602001604051908101604052809291908181526020018280546001816001161561010002031660029004801562000e835780601f1062000e575761010080835404028352916020019162000e83565b820191906000526020600020905b81548152906001019060200180831162000e6557829003601f168201915b50505050508152602001600282018054600181600116156101000203166002900480601f01602080910402602001604051908101604052809291908181526020018280546001816001161561010002031660029004801562000f295780601f1062000efd5761010080835404028352916020019162000f29565b820191906000526020600020905b81548152906001019060200180831162000f0b57829003601f168201915b5050505050815260200160038201548152602001600482018054600181600116156101000203166002900480601f01602080910402602001604051908101604052809291908181526020018280546001816001161561010002031660029004801562000fd95780601f1062000fad5761010080835404028352916020019162000fd9565b820191906000526020600020905b81548152906001019060200180831162000fbb57829003601f168201915b50505050508152505091506000803373ffffffffffffffffffffffffffffffffffffffff1673ffffffffffffffffffffffffffffffffffffffff16815260200190815260200160002060018403815481106200103157fe5b90600052602060002090600502016000803373ffffffffffffffffffffffffffffffffffffffff1673ffffffffffffffffffffffffffffffffffffffff16815260200190815260200160002082815481106200108957fe5b90600052602060002090600502016000820154816000015560018201816001019080546001816001161561010002031660029004620010ca92919062003332565b5060028201816002019080546001816001161561010002031660029004620010f492919062003332565b5060038201548160030155600482018160040190805460018160011615610100020316600290046200112892919062003332565b509050506000803373ffffffffffffffffffffffffffffffffffffffff1673ffffffffffffffffffffffffffffffffffffffff16815260200190815260200160002060018403815481106200117957fe5b9060005260206000209060050201600080820160009055600182016000620011a29190620033c0565b600282016000620011b49190620033c0565b6003820160009055600482016000620011ce9190620033c0565b50506000803373ffffffffffffffffffffffffffffffffffffffff1673ffffffffffffffffffffffffffffffffffffffff1681526020019081526020016000208054809190600190036200122391906200340c565b5062001238565b808060010191505062000d0c565b5060006002600087815260200190815260200160002060009054906101000a900473ffffffffffffffffffffffffffffffffffffffff1690506200127b62003441565b6040518060800160405280846000015181526020018460200151815260200184604001518152602001878152509050600460008373ffffffffffffffffffffffffffffffffffffffff1673ffffffffffffffffffffffffffffffffffffffff16815260200190815260200160002081908060018154018082558091505090600182039060005260206000209060040201600090919290919091506000820151816000015560208201518160010190805190602001906200133d929190620032ab565b5060408201518160020190805190602001906200135c929190620032ab565b5060608201518160030190805190602001906200137b929190620032ab565b5050505060003390508073ffffffffffffffffffffffffffffffffffffffff166108fc85606001519081150290604051600060405180830381858888f19350505050158015620013cf573d6000803e3d6000fd5b505050505050505050565b6005600084815260200190815260200160002060009054906101000a900473ffffffffffffffffffffffffffffffffffffffff1673ffffffffffffffffffffffffffffffffffffffff1663f8a50ac93384846040518463ffffffff1660e01b81526004016200144c939291906200437d565b600060405180830381600087803b1580156200146757600080fd5b505af11580156200147c573d6000803e3d6000fd5b50505050505050565b6000600160038111156200149557fe5b6003600084815260200190815260200160002060009054906101000a900460ff166003811115620014c257fe5b1415620014d35760019050620014d8565b600090505b919050565b6060600460003373ffffffffffffffffffffffffffffffffffffffff1673ffffffffffffffffffffffffffffffffffffffff168152602001908152602001600020805480602002602001604051908101604052809291908181526020016000905b828210156200176e578382906000526020600020906004020160405180608001604052908160008201548152602001600182018054600181600116156101000203166002900480601f016020809104026020016040519081016040528092919081815260200182805460018160011615610100020316600290048015620016095780601f10620015dd5761010080835404028352916020019162001609565b820191906000526020600020905b815481529060010190602001808311620015eb57829003601f168201915b50505050508152602001600282018054600181600116156101000203166002900480601f016020809104026020016040519081016040528092919081815260200182805460018160011615610100020316600290048015620016af5780601f106200168357610100808354040283529160200191620016af565b820191906000526020600020905b8154815290600101906020018083116200169157829003601f168201915b50505050508152602001600382018054600181600116156101000203166002900480601f016020809104026020016040519081016040528092919081815260200182805460018160011615610100020316600290048015620017555780601f10620017295761010080835404028352916020019162001755565b820191906000526020600020905b8154815290600101906020018083116200173757829003601f168201915b505050505081525050815260200190600101906200153e565b50505050905090565b60006005600085815260200190815260200160002060009054906101000a900473ffffffffffffffffffffffffffffffffffffffff1673ffffffffffffffffffffffffffffffffffffffff1663c92fb1b88484336040518463ffffffff1660e01b8152600401620017eb9392919062004578565b602060405180830381600087803b1580156200180657600080fd5b505af11580156200181b573d6000803e3d6000fd5b505050506040513d601f19601f820116820180604052506200184191908101906200394b565b905060003390508073ffffffffffffffffffffffffffffffffffffffff166108fc839081150290604051600060405180830381858888f193505050501580156200188f573d6000803e3d6000fd5b505050505050565b620018a16200327c565b6000803373ffffffffffffffffffffffffffffffffffffffff1673ffffffffffffffffffffffffffffffffffffffff1681526020019081526020016000208281548110620018eb57fe5b90600052602060002090600502016040518060a001604052908160008201548152602001600182018054600181600116156101000203166002900480601f016020809104026020016040519081016040528092919081815260200182805460018160011615610100020316600290048015620019ab5780601f106200197f57610100808354040283529160200191620019ab565b820191906000526020600020905b8154815290600101906020018083116200198d57829003601f168201915b50505050508152602001600282018054600181600116156101000203166002900480601f01602080910402602001604051908101604052809291908181526020018280546001816001161561010002031660029004801562001a515780601f1062001a255761010080835404028352916020019162001a51565b820191906000526020600020905b81548152906001019060200180831162001a3357829003601f168201915b5050505050815260200160038201548152602001600482018054600181600116156101000203166002900480601f01602080910402602001604051908101604052809291908181526020018280546001816001161561010002031660029004801562001b015780601f1062001ad55761010080835404028352916020019162001b01565b820191906000526020600020905b81548152906001019060200180831162001ae357829003601f168201915b5050505050815250509050919050565b6000600780549050905090565b6001600381111562001b2c57fe5b6006600083815260200190815260200160002060009054906101000a900460ff16600381111562001b5957fe5b1462001b65576200232d565b6005600082815260200190815260200160002060009054906101000a900473ffffffffffffffffffffffffffffffffffffffff1673ffffffffffffffffffffffffffffffffffffffff1663abf3969e6040518163ffffffff1660e01b8152600401602060405180830381600087803b15801562001be157600080fd5b505af115801562001bf6573d6000803e3d6000fd5b505050506040513d601f19601f8201168201806040525062001c1c919081019062003759565b156200232c5760026006600083815260200190815260200160002060006101000a81548160ff0219169083600381111562001c5357fe5b021790555060006005600083815260200190815260200160002060009054906101000a900473ffffffffffffffffffffffffffffffffffffffff1673ffffffffffffffffffffffffffffffffffffffff1663dfbf53ae6040518163ffffffff1660e01b815260040160206040518083038186803b15801562001cd457600080fd5b505afa15801562001ce9573d6000803e3d6000fd5b505050506040513d601f19601f8201168201806040525062001d0f91908101906200372d565b905060006005600084815260200190815260200160002060009054906101000a900473ffffffffffffffffffffffffffffffffffffffff1673ffffffffffffffffffffffffffffffffffffffff16638cf804386040518163ffffffff1660e01b815260040160206040518083038186803b15801562001d8d57600080fd5b505afa15801562001da2573d6000803e3d6000fd5b505050506040513d601f19601f8201168201806040525062001dc891908101906200394b565b905060606005600085815260200190815260200160002060009054906101000a900473ffffffffffffffffffffffffffffffffffffffff1673ffffffffffffffffffffffffffffffffffffffff1663a058bfd26040518163ffffffff1660e01b815260040160006040518083038186803b15801562001e4657600080fd5b505afa15801562001e5b573d6000803e3d6000fd5b505050506040513d6000823e3d601f19601f8201168201806040525062001e86919081019062003785565b9050826002600086815260200190815260200160002060006101000a81548173ffffffffffffffffffffffffffffffffffffffff021916908373ffffffffffffffffffffffffffffffffffffffff16021790555062001ee462003469565b60026003600087815260200190815260200160002060006101000a81548160ff0219169083600381111562001f1557fe5b021790555060008090505b60088054905081101562002204576008818154811062001f3c57fe5b906000526020600020906008020160000154861415620021f6576008818154811062001f6457fe5b90600052602060002090600802016040518061010001604052908160008201548152602001600182018054600181600116156101000203166002900480601f016020809104026020016040519081016040528092919081815260200182805460018160011615610100020316600290048015620020255780601f1062001ff95761010080835404028352916020019162002025565b820191906000526020600020905b8154815290600101906020018083116200200757829003601f168201915b50505050508152602001600282018054600181600116156101000203166002900480601f016020809104026020016040519081016040528092919081815260200182805460018160011615610100020316600290048015620020cb5780601f106200209f57610100808354040283529160200191620020cb565b820191906000526020600020905b815481529060010190602001808311620020ad57829003601f168201915b505050505081526020016003820160009054906101000a900473ffffffffffffffffffffffffffffffffffffffff1673ffffffffffffffffffffffffffffffffffffffff1673ffffffffffffffffffffffffffffffffffffffff168152602001600482015481526020016005820154815260200160068201548152602001600782018054600181600116156101000203166002900480601f016020809104026020016040519081016040528092919081815260200182805460018160011615610100020316600290048015620021e55780601f10620021b957610100808354040283529160200191620021e5565b820191906000526020600020905b815481529060010190602001808311620021c757829003601f168201915b505050505081525050915062002204565b808060010191505062001f20565b506200220f6200327c565b6040518060a00160405280836000015181526020018360200151815260200183604001518152602001858152602001848152509050600080836060015173ffffffffffffffffffffffffffffffffffffffff1673ffffffffffffffffffffffffffffffffffffffff1681526020019081526020016000208190806001815401808255809150509060018203906000526020600020906005020160009091929091909150600082015181600001556020820151816001019080519060200190620022da929190620032ab565b506040820151816002019080519060200190620022f9929190620032ab565b5060608201518160030155608082015181600401908051906020019062002322929190620032ab565b5050505050505050505b5b50565b6200233a62003469565b60405180610100016040528060095481526020018781526020018681526020013373ffffffffffffffffffffffffffffffffffffffff16815260200142815260200185815260200184815260200183815250905060088190806001815401808255809150509060018203906000526020600020906008020160009091929091909150600082015181600001556020820151816001019080519060200190620023e4929190620032ab565b50604082015181600201908051906020019062002403929190620032ab565b5060608201518160030160006101000a81548173ffffffffffffffffffffffffffffffffffffffff021916908373ffffffffffffffffffffffffffffffffffffffff1602179055506080820151816004015560a0820151816005015560c0820151816006015560e082015181600701908051906020019062002487929190620032ab565b505050508383336040516200249c90620034c4565b620024aa93929190620045b5565b604051809103906000f080158015620024c7573d6000803e3d6000fd5b5060056000600954815260200190815260200160002060006101000a81548173ffffffffffffffffffffffffffffffffffffffff021916908373ffffffffffffffffffffffffffffffffffffffff1602179055503360016000600954815260200190815260200160002060006101000a81548173ffffffffffffffffffffffffffffffffffffffff021916908373ffffffffffffffffffffffffffffffffffffffff160217905550600160066000600954815260200190815260200160002060006101000a81548160ff02191690836003811115620025a257fe5b0217905550600960008154809291906001019190505550505050505050565b6000808383604051602001620025d99291906200434d565b6040516020818303038152906040528051906020012090508091505092915050565b60606000803373ffffffffffffffffffffffffffffffffffffffff1673ffffffffffffffffffffffffffffffffffffffff168152602001908152602001600020805480602002602001604051908101604052809291908181526020016000905b828210156200289557838290600052602060002090600502016040518060a001604052908160008201548152602001600182018054600181600116156101000203166002900480601f016020809104026020016040519081016040528092919081815260200182805460018160011615610100020316600290048015620027265780601f10620026fa5761010080835404028352916020019162002726565b820191906000526020600020905b8154815290600101906020018083116200270857829003601f168201915b50505050508152602001600282018054600181600116156101000203166002900480601f016020809104026020016040519081016040528092919081815260200182805460018160011615610100020316600290048015620027cc5780601f10620027a057610100808354040283529160200191620027cc565b820191906000526020600020905b815481529060010190602001808311620027ae57829003601f168201915b5050505050815260200160038201548152602001600482018054600181600116156101000203166002900480601f0160208091040260200160405190810160405280929190818152602001828054600181600116156101000203166002900480156200287c5780601f1062002850576101008083540402835291602001916200287c565b820191906000526020600020905b8154815290600101906020018083116200285e57829003601f168201915b505050505081525050815260200190600101906200265b565b50505050905090565b6060600080905060008090505b6008805490508110156200293e57600060088281548110620028c957fe5b906000526020600020906008020160000154905060088281548110620028eb57fe5b906000526020600020906008020160050154600883815481106200290b57fe5b906000526020600020906008020160040154014210156200292f5782806001019350505b508080600101915050620028ab565b506060816040519080825280602002602001820160405280156200297f57816020015b6200296b620034d2565b815260200190600190039081620029615790505b509050600080905060008090505b60088054905081101562002cce57600060088281548110620029ab57fe5b906000526020600020906008020160000154905060088281548110620029cd57fe5b90600052602060002090600802016005015460088381548110620029ed57fe5b9060005260206000209060080201600401540142101562002cbf576008828154811062002a1657fe5b90600052602060002090600802016040518061010001604052908160008201548152602001600182018054600181600116156101000203166002900480601f01602080910402602001604051908101604052809291908181526020018280546001816001161561010002031660029004801562002ad75780601f1062002aab5761010080835404028352916020019162002ad7565b820191906000526020600020905b81548152906001019060200180831162002ab957829003601f168201915b50505050508152602001600282018054600181600116156101000203166002900480601f01602080910402602001604051908101604052809291908181526020018280546001816001161561010002031660029004801562002b7d5780601f1062002b515761010080835404028352916020019162002b7d565b820191906000526020600020905b81548152906001019060200180831162002b5f57829003601f168201915b505050505081526020016003820160009054906101000a900473ffffffffffffffffffffffffffffffffffffffff1673ffffffffffffffffffffffffffffffffffffffff1673ffffffffffffffffffffffffffffffffffffffff168152602001600482015481526020016005820154815260200160068201548152602001600782018054600181600116156101000203166002900480601f01602080910402602001604051908101604052809291908181526020018280546001816001161561010002031660029004801562002c975780601f1062002c6b5761010080835404028352916020019162002c97565b820191906000526020600020905b81548152906001019060200180831162002c7957829003601f168201915b50505050508152505084848060010195508151811062002cb357fe5b60200260200101819052505b5080806001019150506200298d565b5081935050505090565b62002ce262003237565b6007828154811062002cf057fe5b90600052602060002090600502016040518060a001604052908160008201548152602001600182018054600181600116156101000203166002900480601f01602080910402602001604051908101604052809291908181526020018280546001816001161561010002031660029004801562002db05780601f1062002d845761010080835404028352916020019162002db0565b820191906000526020600020905b81548152906001019060200180831162002d9257829003601f168201915b50505050508152602001600282018054600181600116156101000203166002900480601f01602080910402602001604051908101604052809291908181526020018280546001816001161561010002031660029004801562002e565780601f1062002e2a5761010080835404028352916020019162002e56565b820191906000526020600020905b81548152906001019060200180831162002e3857829003601f168201915b50505050508152602001600382015481526020016004820160009054906101000a900473ffffffffffffffffffffffffffffffffffffffff1673ffffffffffffffffffffffffffffffffffffffff1673ffffffffffffffffffffffffffffffffffffffff16815250509050919050565b6060600080905060008090505b60078054905081101562002f5f5760006007828154811062002ef157fe5b90600052602060002090600502016000015490506001600381111562002f1357fe5b6003600083815260200190815260200160002060009054906101000a900460ff16600381111562002f4057fe5b141562002f505782806001019350505b50808060010191505062002ed3565b5060608160405190808252806020026020018201604052801562002fa057816020015b62002f8c6200352d565b81526020019060019003908162002f825790505b509050600080905060008090505b6007805490508110156200322d5760006007828154811062002fcc57fe5b90600052602060002090600502016000015490506001600381111562002fee57fe5b6003600083815260200190815260200160002060009054906101000a900460ff1660038111156200301b57fe5b14156200321e57600782815481106200303057fe5b90600052602060002090600502016040518060a001604052908160008201548152602001600182018054600181600116156101000203166002900480601f016020809104026020016040519081016040528092919081815260200182805460018160011615610100020316600290048015620030f05780601f10620030c457610100808354040283529160200191620030f0565b820191906000526020600020905b815481529060010190602001808311620030d257829003601f168201915b50505050508152602001600282018054600181600116156101000203166002900480601f016020809104026020016040519081016040528092919081815260200182805460018160011615610100020316600290048015620031965780601f106200316a5761010080835404028352916020019162003196565b820191906000526020600020905b8154815290600101906020018083116200317857829003601f168201915b50505050508152602001600382015481526020016004820160009054906101000a900473ffffffffffffffffffffffffffffffffffffffff1673ffffffffffffffffffffffffffffffffffffffff1673ffffffffffffffffffffffffffffffffffffffff16815250508484806001019550815181106200321257fe5b60200260200101819052505b50808060010191505062002fae565b5081935050505090565b6040518060a0016040528060008152602001606081526020016060815260200160008152602001600073ffffffffffffffffffffffffffffffffffffffff1681525090565b6040518060a0016040528060008152602001606081526020016060815260200160008152602001606081525090565b828054600181600116156101000203166002900490600052602060002090601f016020900481019282601f10620032ee57805160ff19168380011785556200331f565b828001600101855582156200331f579182015b828111156200331e57825182559160200191906001019062003301565b5b5090506200332e919062003572565b5090565b828054600181600116156101000203166002900490600052602060002090601f016020900481019282601f106200336d5780548555620033ad565b82800160010185558215620033ad57600052602060002091601f016020900482015b82811115620033ac5782548255916001019190600101906200338f565b5b509050620033bc919062003572565b5090565b50805460018160011615610100020316600290046000825580601f10620033e8575062003409565b601f01602090049060005260206000209081019062003408919062003572565b5b50565b8154818355818111156200343c576005028160050283600052602060002091820191016200343b91906200359a565b5b505050565b6040518060800160405280600081526020016060815260200160608152602001606081525090565b604051806101000160405280600081526020016060815260200160608152602001600073ffffffffffffffffffffffffffffffffffffffff168152602001600081526020016000815260200160008152602001606081525090565b610fdb806200490d83390190565b604051806101000160405280600081526020016060815260200160608152602001600073ffffffffffffffffffffffffffffffffffffffff168152602001600081526020016000815260200160008152602001606081525090565b6040518060a0016040528060008152602001606081526020016060815260200160008152602001600073ffffffffffffffffffffffffffffffffffffffff1681525090565b6200359791905b808211156200359357600081600090555060010162003579565b5090565b90565b620035ff91905b80821115620035fb57600080820160009055600182016000620035c59190620033c0565b600282016000620035d79190620033c0565b6003820160009055600482016000620035f19190620033c0565b50600501620035a1565b5090565b90565b6000815190506200361381620048a4565b92915050565b6000815190506200362a81620048be565b92915050565b6000813590506200364181620048d8565b92915050565b600082601f8301126200365957600080fd5b8151620036706200366a8262004620565b620045f2565b915080825260208301602083018583830111156200368d57600080fd5b6200369a83828462004849565b50505092915050565b600082601f830112620036b557600080fd5b8135620036cc620036c6826200464d565b620045f2565b91508082526020830160208301858383011115620036e957600080fd5b620036f68382846200483a565b50505092915050565b6000813590506200371081620048f2565b92915050565b6000815190506200372781620048f2565b92915050565b6000602082840312156200374057600080fd5b6000620037508482850162003602565b91505092915050565b6000602082840312156200376c57600080fd5b60006200377c8482850162003619565b91505092915050565b6000602082840312156200379857600080fd5b600082015167ffffffffffffffff811115620037b357600080fd5b620037c18482850162003647565b91505092915050565b600080600060608486031215620037e057600080fd5b600084013567ffffffffffffffff811115620037fb57600080fd5b6200380986828701620036a3565b935050602084013567ffffffffffffffff8111156200382757600080fd5b6200383586828701620036a3565b92505060406200384886828701620036ff565b9150509250925092565b600080600080600060a086880312156200386b57600080fd5b600086013567ffffffffffffffff8111156200388657600080fd5b6200389488828901620036a3565b955050602086013567ffffffffffffffff811115620038b257600080fd5b620038c088828901620036a3565b9450506040620038d388828901620036ff565b9350506060620038e688828901620036ff565b925050608086013567ffffffffffffffff8111156200390457600080fd5b6200391288828901620036a3565b9150509295509295909350565b6000602082840312156200393257600080fd5b60006200394284828501620036ff565b91505092915050565b6000602082840312156200395e57600080fd5b60006200396e8482850162003716565b91505092915050565b600080604083850312156200398b57600080fd5b60006200399b85828601620036ff565b9250506020620039ae8582860162003630565b9150509250929050565b600080600060608486031215620039ce57600080fd5b6000620039de86828701620036ff565b9350506020620039f18682870162003630565b925050604084013567ffffffffffffffff81111562003a0f57600080fd5b62003a1d86828701620036a3565b9150509250925092565b6000806040838503121562003a3b57600080fd5b600062003a4b85828601620036ff565b925050602083013567ffffffffffffffff81111562003a6957600080fd5b62003a7785828601620036a3565b9150509250929050565b60008060006060848603121562003a9757600080fd5b600062003aa786828701620036ff565b935050602062003aba86828701620036ff565b925050604062003acd8682870162003630565b9150509250925092565b600062003ae5838362003f9f565b905092915050565b600062003afb83836200406d565b905092915050565b600062003b1183836200416d565b905092915050565b600062003b27838362004282565b905092915050565b62003b3a81620047fe565b82525050565b62003b4b81620047aa565b82525050565b62003b5c8162004796565b82525050565b600062003b6f82620046ba565b62003b7b818562004730565b93508360208202850162003b8f856200467a565b8060005b8581101562003bd1578484038952815162003baf858262003ad7565b945062003bbc83620046fc565b925060208a0199505060018101905062003b93565b50829750879550505050505092915050565b600062003bf082620046c5565b62003bfc818562004741565b93508360208202850162003c10856200468a565b8060005b8581101562003c52578484038952815162003c30858262003aed565b945062003c3d8362004709565b925060208a0199505060018101905062003c14565b50829750879550505050505092915050565b600062003c7182620046d0565b62003c7d818562004752565b93508360208202850162003c91856200469a565b8060005b8581101562003cd3578484038952815162003cb1858262003b03565b945062003cbe8362004716565b925060208a0199505060018101905062003c95565b50829750879550505050505092915050565b600062003cf282620046db565b62003cfe818562004763565b93508360208202850162003d1285620046aa565b8060005b8581101562003d54578484038952815162003d32858262003b19565b945062003d3f8362004723565b925060208a0199505060018101905062003d16565b50829750879550505050505092915050565b62003d7181620047be565b82525050565b62003d8281620047ca565b82525050565b62003d9d62003d9782620047ca565b6200487f565b82525050565b600062003db082620046f1565b62003dbc818562004785565b935062003dce81856020860162004849565b62003dd98162004893565b840191505092915050565b600062003df182620046e6565b62003dfd818562004774565b935062003e0f81856020860162004849565b62003e1a8162004893565b840191505092915050565b600062003e3460308362004785565b91507f54686973206974656d206973206e6f7420696e207468652070656e64696e672060008301527f64656c6965766572792073746174652e000000000000000000000000000000006020830152604082019050919050565b600062003e9c60248362004785565b91507f596f7520617265206e6f74207468652073656c6c6572206f662074686973206960008301527f74656d2e000000000000000000000000000000000000000000000000000000006020830152604082019050919050565b600062003f0460138362004785565b91507f4974656d206e6f7420617661696c61626c652e000000000000000000000000006000830152602082019050919050565b600062003f46602d8362004785565b91507f53656e7420616d6f756e742073686f756c6420626520657175616c20746f206160008301527f736b696e672070726963652021000000000000000000000000000000000000006020830152604082019050919050565b60006101008301600083015162003fba600086018262004310565b506020830151848203602086015262003fd4828262003de4565b9150506040830151848203604086015262003ff0828262003de4565b915050606083015162004007606086018262003b51565b5060808301516200401c608086018262004310565b5060a08301516200403160a086018262004310565b5060c08301516200404660c086018262004310565b5060e083015184820360e086015262004060828262003de4565b9150508091505092915050565b600060808301600083015162004087600086018262004310565b5060208301518482036020860152620040a1828262003de4565b91505060408301518482036040860152620040bd828262003de4565b91505060608301518482036060860152620040d9828262003de4565b9150508091505092915050565b600060a08301600083015162004100600086018262004310565b50602083015184820360208601526200411a828262003de4565b9150506040830151848203604086015262004136828262003de4565b91505060608301516200414d606086018262004310565b50608083015162004162608086018262003b51565b508091505092915050565b600060a08301600083015162004187600086018262004310565b5060208301518482036020860152620041a1828262003de4565b91505060408301518482036040860152620041bd828262003de4565b9150506060830151620041d4606086018262004310565b506080830151620041e9608086018262003b51565b508091505092915050565b600060a0830160008301516200420e600086018262004310565b506020830151848203602086015262004228828262003de4565b9150506040830151848203604086015262004244828262003de4565b91505060608301516200425b606086018262004310565b506080830151848203608086015262004275828262003de4565b9150508091505092915050565b600060a0830160008301516200429c600086018262004310565b5060208301518482036020860152620042b6828262003de4565b91505060408301518482036040860152620042d2828262003de4565b9150506060830151620042e9606086018262004310565b506080830151848203608086015262004303828262003de4565b9150508091505092915050565b6200431b81620047f4565b82525050565b6200432c81620047f4565b82525050565b620043476200434182620047f4565b62004889565b82525050565b60006200435b828562004332565b6020820191506200436d828462003d88565b6020820191508190509392505050565b600060608201905062004394600083018662003b2f565b620043a3602083018562003d77565b8181036040830152620043b7818462003da3565b9050949350505050565b60006020820190508181036000830152620043dd818462003b62565b905092915050565b6000602082019050818103600083015262004401818462003be3565b905092915050565b6000602082019050818103600083015262004425818462003c64565b905092915050565b6000602082019050818103600083015262004449818462003ce5565b905092915050565b600060208201905062004468600083018462003d66565b92915050565b600060208201905062004485600083018462003d77565b92915050565b60006020820190508181036000830152620044a68162003e25565b9050919050565b60006020820190508181036000830152620044c88162003e8d565b9050919050565b60006020820190508181036000830152620044ea8162003ef5565b9050919050565b600060208201905081810360008301526200450c8162003f37565b9050919050565b600060208201905081810360008301526200452f8184620040e6565b905092915050565b60006020820190508181036000830152620045538184620041f4565b905092915050565b600060208201905062004572600083018462004321565b92915050565b60006060820190506200458f600083018662004321565b6200459e602083018562003d77565b620045ad604083018462003b2f565b949350505050565b6000606082019050620045cc600083018662004321565b620045db602083018562004321565b620045ea604083018462003b40565b949350505050565b6000604051905081810181811067ffffffffffffffff821117156200461657600080fd5b8060405250919050565b600067ffffffffffffffff8211156200463857600080fd5b601f19601f8301169050602081019050919050565b600067ffffffffffffffff8211156200466557600080fd5b601f19601f8301169050602081019050919050565b6000819050602082019050919050565b6000819050602082019050919050565b6000819050602082019050919050565b6000819050602082019050919050565b600081519050919050565b600081519050919050565b600081519050919050565b600081519050919050565b600081519050919050565b600081519050919050565b6000602082019050919050565b6000602082019050919050565b6000602082019050919050565b6000602082019050919050565b600082825260208201905092915050565b600082825260208201905092915050565b600082825260208201905092915050565b600082825260208201905092915050565b600082825260208201905092915050565b600082825260208201905092915050565b6000620047a382620047d4565b9050919050565b6000620047b782620047d4565b9050919050565b60008115159050919050565b6000819050919050565b600073ffffffffffffffffffffffffffffffffffffffff82169050919050565b6000819050919050565b60006200480b8262004812565b9050919050565b60006200481f8262004826565b9050919050565b60006200483382620047d4565b9050919050565b82818337600083830152505050565b60005b83811015620048695780820151818401526020810190506200484c565b8381111562004879576000848401525b50505050565b6000819050919050565b6000819050919050565b6000601f19601f8301169050919050565b620048af8162004796565b8114620048bb57600080fd5b50565b620048c981620047be565b8114620048d557600080fd5b50565b620048e381620047ca565b8114620048ef57600080fd5b50565b620048fd81620047f4565b81146200490957600080fd5b5056fe60806040523480156200001157600080fd5b5060405162000fdb38038062000fdb8339818101604052620000379190810190620000c2565b806000806101000a81548173ffffffffffffffffffffffffffffffffffffffff021916908373ffffffffffffffffffffffffffffffffffffffff16021790555082420160018190555081600154016002819055505050506200018a565b600081519050620000a58162000156565b92915050565b600081519050620000bc8162000170565b92915050565b600080600060608486031215620000d857600080fd5b6000620000e886828701620000ab565b9350506020620000fb86828701620000ab565b92505060406200010e8682870162000094565b9150509250925092565b600062000125826200012c565b9050919050565b600073ffffffffffffffffffffffffffffffffffffffff82169050919050565b6000819050919050565b620001618162000118565b81146200016d57600080fd5b50565b6200017b816200014c565b81146200018757600080fd5b50565b610e41806200019a6000396000f3fe608060405234801561001057600080fd5b50600436106100b45760003560e01c8063a6e6647711610071578063a6e6647714610180578063abf3969e1461019e578063c92fb1b8146101bc578063dfbf53ae146101ec578063e9b036e91461020a578063f8a50ac91461023a576100b4565b806312fa6feb146100b957806338af3eed146100d7578063423b217f146100f557806362ea82db146101135780638cf8043814610144578063a058bfd214610162575b600080fd5b6100c1610256565b6040516100ce9190610bf1565b60405180910390f35b6100df610269565b6040516100ec9190610bd6565b60405180910390f35b6100fd61028e565b60405161010a9190610c5e565b60405180910390f35b61012d600480360361012891908101906109fe565b610294565b60405161013b929190610c0c565b60405180910390f35b61014c610350565b6040516101599190610c5e565b60405180910390f35b61016a610356565b6040516101779190610c3c565b60405180910390f35b6101886103f4565b6040516101959190610c5e565b60405180910390f35b6101a66103fa565b6040516101b39190610bf1565b60405180910390f35b6101d660048036036101d19190810190610a8e565b610432565b6040516101e39190610c5e565b60405180910390f35b6101f46105a9565b6040516102019190610bbb565b60405180910390f35b610224600480360361021f91908101906109fe565b6105cf565b6040516102319190610c5e565b60405180910390f35b610254600480360361024f9190810190610a27565b61066c565b005b600360009054906101000a900460ff1681565b6000809054906101000a900473ffffffffffffffffffffffffffffffffffffffff1681565b60015481565b6008602052806000526040600020600091509050806000015490806001018054600181600116156101000203166002900480601f0160208091040260200160405190810160405280929190818152602001828054600181600116156101000203166002900480156103465780601f1061031b57610100808354040283529160200191610346565b820191906000526020600020905b81548152906001019060200180831161032957829003601f168201915b5050505050905082565b60055481565b60078054600181600116156101000203166002900480601f0160208091040260200160405190810160405280929190818152602001828054600181600116156101000203166002900480156103ec5780601f106103c1576101008083540402835291602001916103ec565b820191906000526020600020905b8154815290600101906020018083116103cf57829003601f168201915b505050505081565b60025481565b600060025442111561042a576001600360006101000a81548160ff0219169083151502179055506001905061042f565b600090505b90565b600060015480421161044357600080fd5b60025480421061045257600080fd5b60008090506000600860008773ffffffffffffffffffffffffffffffffffffffff1673ffffffffffffffffffffffffffffffffffffffff168152602001908152602001600020905087876040516020016104ad929190610b8f565b604051602081830303815290604052805190602001208160000154146104d75787945050506105a0565b87820191506105838689836001018054600181600116156101000203166002900480601f0160208091040260200160405190810160405280929190818152602001828054600181600116156101000203166002900480156105795780601f1061054e57610100808354040283529160200191610579565b820191906000526020600020905b81548152906001019060200180831161055c57829003601f168201915b50505050506106ff565b1561058e5787820391505b6000801b816000018190555081945050505b50509392505050565b600660009054906101000a900473ffffffffffffffffffffffffffffffffffffffff1681565b600080600960008473ffffffffffffffffffffffffffffffffffffffff1673ffffffffffffffffffffffffffffffffffffffff1681526020019081526020016000205490506000811115610663576000600960008573ffffffffffffffffffffffffffffffffffffffff1673ffffffffffffffffffffffffffffffffffffffff168152602001908152602001600020819055505b80915050919050565b60015480421061067b57600080fd5b604051806040016040528084815260200183815250600860008673ffffffffffffffffffffffffffffffffffffffff1673ffffffffffffffffffffffffffffffffffffffff1681526020019081526020016000206000820151816000015560208201518160010190805190602001906106f5929190610846565b5090505050505050565b60006005548311610713576000905061083f565b600073ffffffffffffffffffffffffffffffffffffffff16600660009054906101000a900473ffffffffffffffffffffffffffffffffffffffff1673ffffffffffffffffffffffffffffffffffffffff16146107db5760055460096000600660009054906101000a900473ffffffffffffffffffffffffffffffffffffffff1673ffffffffffffffffffffffffffffffffffffffff1673ffffffffffffffffffffffffffffffffffffffff168152602001908152602001600020600082825401925050819055505b8260058190555083600660006101000a81548173ffffffffffffffffffffffffffffffffffffffff021916908373ffffffffffffffffffffffffffffffffffffffff16021790555081600790805190602001906108399291906108c6565b50600190505b9392505050565b828054600181600116156101000203166002900490600052602060002090601f016020900481019282601f1061088757805160ff19168380011785556108b5565b828001600101855582156108b5579182015b828111156108b4578251825591602001919060010190610899565b5b5090506108c29190610946565b5090565b828054600181600116156101000203166002900490600052602060002090601f016020900481019282601f1061090757805160ff1916838001178555610935565b82800160010185558215610935579182015b82811115610934578251825591602001919060010190610919565b5b5090506109429190610946565b5090565b61096891905b8082111561096457600081600090555060010161094c565b5090565b90565b60008135905061097a81610db9565b92915050565b60008135905061098f81610dd0565b92915050565b600082601f8301126109a657600080fd5b81356109b96109b482610ca6565b610c79565b915080825260208301602083018583830111156109d557600080fd5b6109e0838284610d52565b50505092915050565b6000813590506109f881610de7565b92915050565b600060208284031215610a1057600080fd5b6000610a1e8482850161096b565b91505092915050565b600080600060608486031215610a3c57600080fd5b6000610a4a8682870161096b565b9350506020610a5b86828701610980565b925050604084013567ffffffffffffffff811115610a7857600080fd5b610a8486828701610995565b9150509250925092565b600080600060608486031215610aa357600080fd5b6000610ab1868287016109e9565b9350506020610ac286828701610980565b9250506040610ad38682870161096b565b9150509250925092565b610ae681610d00565b82525050565b610af581610cee565b82525050565b610b0481610d12565b82525050565b610b1381610d1e565b82525050565b610b2a610b2582610d1e565b610d94565b82525050565b6000610b3b82610cd2565b610b458185610cdd565b9350610b55818560208601610d61565b610b5e81610da8565b840191505092915050565b610b7281610d48565b82525050565b610b89610b8482610d48565b610d9e565b82525050565b6000610b9b8285610b78565b602082019150610bab8284610b19565b6020820191508190509392505050565b6000602082019050610bd06000830184610aec565b92915050565b6000602082019050610beb6000830184610add565b92915050565b6000602082019050610c066000830184610afb565b92915050565b6000604082019050610c216000830185610b0a565b8181036020830152610c338184610b30565b90509392505050565b60006020820190508181036000830152610c568184610b30565b905092915050565b6000602082019050610c736000830184610b69565b92915050565b6000604051905081810181811067ffffffffffffffff82111715610c9c57600080fd5b8060405250919050565b600067ffffffffffffffff821115610cbd57600080fd5b601f19601f8301169050602081019050919050565b600081519050919050565b600082825260208201905092915050565b6000610cf982610d28565b9050919050565b6000610d0b82610d28565b9050919050565b60008115159050919050565b6000819050919050565b600073ffffffffffffffffffffffffffffffffffffffff82169050919050565b6000819050919050565b82818337600083830152505050565b60005b83811015610d7f578082015181840152602081019050610d64565b83811115610d8e576000848401525b50505050565b6000819050919050565b6000819050919050565b6000601f19601f8301169050919050565b610dc281610cee565b8114610dcd57600080fd5b50565b610dd981610d1e565b8114610de457600080fd5b50565b610df081610d48565b8114610dfb57600080fd5b5056fea365627a7a723158201cbb369efaa26980ed45151b93bd168253057524f5f0d86f1f476b90fdf4a17e6c6578706572696d656e74616cf564736f6c63430005100040a365627a7a723158207ad9b4015939646029c340c31a5279a47b0116f51d5874f8b7da7059965b91556c6578706572696d656e74616cf564736f6c63430005100040",
  "source": "// SPDX-License-Identifier: MIT\npragma experimental ABIEncoderV2;\npragma solidity >=0.4.22 <0.9.0;\nimport './FirstPriceAuction.sol';\n\ncontract Factory {\n    \n}\ncontract SmartStore {\n    /// @author Heisenberg team\n\n    enum State {UNDEFINED, AVAILABLE, PENDING_DELIVERY, DELIVERED}\n    enum AuctionState {UNDEFINED, RUNNING, PENDING_DELIVERY, DELIEVERED}\n\n    struct Listing {\n        uint listingID;\n        string itemName;\n        string itemDescription;\n        uint askingPrice;\n        address sellerID;\n    }\n\n    struct Auction {\n        uint auctionID;\n        string itemName;\n        string itemDescription;\n        address sellerId;\n        uint startTime;\n        uint biddingTime;\n        uint revealTime;\n        string method;\n    }\n\n    struct PendingItem {\n        uint listingID;\n        string itemName;\n        string itemDescription;\n        uint askingPrice;\n        string publicKey;\n    }\n\n    struct BoughtItem {\n        uint listingID;\n        string itemName;\n        string itemDescription;\n        string itemText;\n    }\n\n\n    constructor() public {\n\n    }\n\n    /// @dev list of pending deliveries for each seller\n    mapping(address => PendingItem[]) pendingDeliveries;\n    /// @dev address of the seller who is selling a particular product\n    mapping(uint => address) sellers;\n    /// @dev address of the person who has paid money to the contract to buy a particular product\n    mapping(uint => address) buyers;\n    /// @dev state of each product in the listing\n    mapping(uint => State) status;\n    /// @dev list of items which each person has bought and has been deliverd\n    mapping(address => BoughtItem[]) myItems;\n    mapping(uint => BaseAuction) auctionContracts;\n\n    mapping(uint => AuctionState) auctionStatus;\n    /// @dev list of all products. Also includes products which have already been sold\n    Listing[] private listings;\n    Auction[] private auctions;\n\n    uint listingCounter = 0;\n    uint auctionCounter = 0;\n\n    modifier onlyAvailable(uint itemID) {\n        require (\n            status[itemID] == State.AVAILABLE,\n            \"Item not available.\"\n        );\n        _;\n    }\n\n    modifier onlySeller(uint itemID) {\n        require (\n            sellers[itemID] == msg.sender,\n            \"You are not the seller of this item.\"\n        );\n        _;\n    }\n\n\n    /**\n     * @notice sellers use this to add a new product they want to sell into the list of available products\n     * @param itemName the name of the item to be sold\n     * @param itemDescription description of the item to be sold \n     * @param askingPrice price of the item to be sold\n     */\n    function addListing(string memory itemName, string memory itemDescription, uint askingPrice) public {\n        Listing memory listing = Listing(listingCounter, itemName, itemDescription, askingPrice, msg.sender);\n        sellers[listingCounter] = msg.sender;\n        status[listingCounter] = State.AVAILABLE;\n        listings.push(listing);\n        listingCounter++;\n    }\n    function getNumberOfListings() public returns (uint) {\n        return listings.length;\n    }\n\n    function getParticularListing(uint idx) public view returns (Listing memory) {\n        return listings[idx];\n    }\n\n    function getStatusOfListing(uint itemID) public view returns (bool) {\n        if(status[itemID] == State.AVAILABLE) {\n            return true;\n        } else {\n            return false;\n        }\n    }\n\n    function addAuction(string memory itemName, string memory itemDescription, uint biddingTime, uint revealTime, string memory method) public {\n        Auction memory auction = Auction(listingCounter, itemName, itemDescription, msg.sender, now, biddingTime, revealTime, method);\n        auctions.push(auction);\n        auctionContracts[listingCounter] = new FirstPriceAuction(biddingTime, revealTime, msg.sender);\n        sellers[listingCounter] = msg.sender;\n        auctionStatus[listingCounter] = AuctionState.RUNNING;\n        listingCounter++;\n    }\n\n    function placeBid(uint auctionID, bytes32 _blindedBid, string memory publicKey) public{\n        auctionContracts[auctionID].bid(msg.sender, _blindedBid, publicKey);\n    }\n    function revealBid(uint auctionID, uint value, bytes32 secret) public payable{\n        uint refundAmount = auctionContracts[auctionID].reveal(value, secret, msg.sender);\n        address payable bidderAddress = msg.sender;\n        bidderAddress.transfer(refundAmount);\n    }\n    function getAuctions() public view returns (Auction[] memory) {\n        uint available = 0;\n        for(uint i = 0; i < auctions.length; i++) {\n            uint itemID = auctions[i].auctionID;\n            if(now < auctions[i].startTime + auctions[i].biddingTime) {\n                available++;\n            }\n        }\n\n        Auction[] memory activeAuctions = new Auction[](available);\n        uint index = 0;\n        for(uint i = 0; i < auctions.length; i++) {\n            uint itemID = auctions[i].auctionID;\n            if(now < auctions[i].startTime + auctions[i].biddingTime) {\n                activeAuctions[index++] = auctions[i];\n            }\n        }\n        return activeAuctions;\n    }\n    function endAuction(uint auctionID) public {\n        if(auctionStatus[auctionID] != AuctionState.RUNNING) {\n            return;\n        }\n        if(auctionContracts[auctionID].canEnd()) {\n            auctionStatus[auctionID] = AuctionState.PENDING_DELIVERY;\n            address winner = auctionContracts[auctionID].winner();\n            uint amount = auctionContracts[auctionID].winningBid();\n            string memory publicKeyOfWinner = auctionContracts[auctionID].publicKeyOfWinner();\n            buyers[auctionID] = winner;\n            Auction memory currentAuction;\n            status[auctionID] = State.PENDING_DELIVERY;\n            for(uint i = 0; i < auctions.length; i++) {\n                if(auctionID == auctions[i].auctionID) {\n                    currentAuction = auctions[i];\n                    break;\n                }\n            }\n            PendingItem memory pendingItem = PendingItem(currentAuction.auctionID, currentAuction.itemName, currentAuction.itemDescription, amount, publicKeyOfWinner);\n            pendingDeliveries[currentAuction.sellerId].push(pendingItem);\n        }\n    } \n    function getHash(uint value, bytes32 secret) public view returns (bytes32) {\n        bytes32 hash = keccak256(abi.encodePacked(value, secret));\n        return hash;\n    }\n    /**\n     * @notice used to get a list of all the products which are available for sale\n     * @return the list of active products\n     */\n    function getListings() public view returns (Listing[] memory) {\n        uint available = 0;\n        for(uint i = 0; i < listings.length; i++) {\n            uint itemID = listings[i].listingID;\n            if(status[itemID] == State.AVAILABLE) {\n                available++;\n            }\n        }\n\n        Listing[] memory activeListings = new Listing[](available);\n        uint index = 0;\n        for(uint i = 0; i < listings.length; i++) {\n            uint itemID = listings[i].listingID;\n            if(status[itemID] == State.AVAILABLE) {\n                activeListings[index++] = listings[i];\n            }\n        }\n        return activeListings;\n    }\n\n    /**\n     * @notice buyers use this to buy a product which is available for sale\n     * @dev calling this function adds the product into the list of pending deliveries for the corresponding seller \n     * @param itemID ID of the item to be bought\n     * @param publicKey publick key which will be used for encrypting the product string by the seller. Buyer must have the corresponding private key to decrypt the message\n     */\n    function buyListing(uint itemID, string memory publicKey) public onlyAvailable(itemID) payable {\n        Listing memory item;\n        for(uint i = 0; i < listings.length; i++) {\n            if(listings[i].listingID == itemID) {\n                item = listings[i];\n                break;\n            }\n        }\n        require (\n            msg.value == item.askingPrice,\n            \"Sent amount should be equal to asking price !\"\n        );\n        \n\n        buyers[itemID] = msg.sender;\n\n        status[itemID] = State.PENDING_DELIVERY;\n        \n        address sellerAddress = sellers[itemID];\n        PendingItem memory pendingItem = PendingItem(item.listingID, item.itemName, item.itemDescription, item.askingPrice, publicKey);\n        pendingDeliveries[sellerAddress].push(pendingItem);\n    }\n\n    /**\n     * @notice sellers can use this to get a list of products they need to deliever\n     * @return the list of products which needs to be delievered\n     */\n    function getPendingTransactions() public view returns (PendingItem[] memory) {\n        return pendingDeliveries[msg.sender];\n    }\n\n    function getNumberOfPendingTransactions() public returns (uint) {\n        return pendingDeliveries[msg.sender].length;\n    }\n\n    function getParticularPendingListing(uint idx) public view returns (PendingItem memory) {\n        return pendingDeliveries[msg.sender][idx];\n    }\n\n    /**\n     * @notice function to deliver an item. The seller must send the itemText by correctly encrypting it with the public key assosciated with that product\n     * @param itemID ID of the product which needs to be delivered\n     * @param itemText encrypted text assosicated with the product that is being delivered\n     */ \n    function delieverItem(uint itemID, string memory itemText) public onlySeller(itemID) {\n        \n        require (\n            status[itemID] == State.PENDING_DELIVERY,\n            \"This item is not in the pending delievery state.\"\n        );\n\n        \n        status[itemID] = State.DELIVERED;\n\n        uint len = pendingDeliveries[msg.sender].length;\n        PendingItem memory pendingItem;\n        for(uint i = 0; i < len; i++) {\n            if(pendingDeliveries[msg.sender][i].listingID == itemID) {\n                pendingItem = pendingDeliveries[msg.sender][i];\n                pendingDeliveries[msg.sender][i] = pendingDeliveries[msg.sender][len - 1];\n                delete pendingDeliveries[msg.sender][len - 1];\n                pendingDeliveries[msg.sender].length--;\n                break;\n            }\n        }\n\n        address buyerAddress = buyers[itemID];\n        BoughtItem memory boughtItem = BoughtItem(pendingItem.listingID, pendingItem.itemName, pendingItem.itemDescription, itemText);\n\n        myItems[buyerAddress].push(boughtItem);  \n        \n        address payable sellerAddress = msg.sender;\n        sellerAddress.transfer(pendingItem.askingPrice);\n    }\n\n    /**\n     * @notice buyers can use this function to get a list of products which they bought and that have been delievered \n     * @return list of products which have been delievered to a particular buyer\n     */\n    function getItems() public view returns (BoughtItem[] memory){\n        return myItems[msg.sender];\n    }\n}\n",
  "sourcePath": "/home/vasu0403/college/sem7/Blockchain/SmartAuction/contracts/SmartStore.sol",
  "compiler": {
    "name": "solc",
    "version": "0.5.16+commit.9c3226ce.Emscripten.clang"
  },
  "schemaVersion": "3.4.3",
  "updatedAt": "2021-10-12T09:51:15.397Z",
  "networkType": "ethereum",
  "devdoc": {
    "methods": {
      "addListing(string,string,uint256)": {
        "params": {
          "askingPrice": "price of the item to be sold",
          "itemDescription": "description of the item to be sold ",
          "itemName": "the name of the item to be sold"
        }
      },
      "buyListing(uint256,string)": {
        "details": "calling this function adds the product into the list of pending deliveries for the corresponding seller ",
        "params": {
          "itemID": "ID of the item to be bought",
          "publicKey": "publick key which will be used for encrypting the product string by the seller. Buyer must have the corresponding private key to decrypt the message"
        }
      },
      "delieverItem(uint256,string)": {
        "params": {
          "itemID": "ID of the product which needs to be delivered",
          "itemText": "encrypted text assosicated with the product that is being delivered"
        }
      },
      "getItems()": {
        "return": "list of products which have been delievered to a particular buyer"
      },
      "getListings()": {
        "return": "the list of active products"
      },
      "getPendingTransactions()": {
        "return": "the list of products which needs to be delievered"
      }
    }
  },
  "userdoc": {
    "methods": {
      "addListing(string,string,uint256)": {
        "notice": "sellers use this to add a new product they want to sell into the list of available products"
      },
      "buyListing(uint256,string)": {
        "notice": "buyers use this to buy a product which is available for sale"
      },
      "delieverItem(uint256,string)": {
        "notice": "function to deliver an item. The seller must send the itemText by correctly encrypting it with the public key assosciated with that product"
      },
      "getItems()": {
        "notice": "buyers can use this function to get a list of products which they bought and that have been delievered "
      },
      "getListings()": {
        "notice": "used to get a list of all the products which are available for sale"
      },
      "getPendingTransactions()": {
        "notice": "sellers can use this to get a list of products they need to deliever"
      }
    }
  }
}