{
  "contractName": "SmartStore",
  "abi": [
    {
      "inputs": [],
      "payable": false,
      "stateMutability": "nonpayable",
      "type": "constructor"
    },
    {
      "constant": false,
      "inputs": [
        {
          "internalType": "string",
          "name": "itemName",
          "type": "string"
        },
        {
          "internalType": "string",
          "name": "itemDescription",
          "type": "string"
        },
        {
          "internalType": "uint256",
          "name": "askingPrice",
          "type": "uint256"
        }
      ],
      "name": "addListing",
      "outputs": [],
      "payable": false,
      "stateMutability": "nonpayable",
      "type": "function"
    },
    {
      "constant": false,
      "inputs": [],
      "name": "getNumberOfListings",
      "outputs": [
        {
          "internalType": "uint256",
          "name": "",
          "type": "uint256"
        }
      ],
      "payable": false,
      "stateMutability": "nonpayable",
      "type": "function"
    },
    {
      "constant": true,
      "inputs": [
        {
          "internalType": "uint256",
          "name": "idx",
          "type": "uint256"
        }
      ],
      "name": "getParticularListing",
      "outputs": [
        {
          "components": [
            {
              "internalType": "uint256",
              "name": "listingID",
              "type": "uint256"
            },
            {
              "internalType": "string",
              "name": "itemName",
              "type": "string"
            },
            {
              "internalType": "string",
              "name": "itemDescription",
              "type": "string"
            },
            {
              "internalType": "uint256",
              "name": "askingPrice",
              "type": "uint256"
            },
            {
              "internalType": "address",
              "name": "sellerID",
              "type": "address"
            }
          ],
          "internalType": "struct SmartStore.Listing",
          "name": "",
          "type": "tuple"
        }
      ],
      "payable": false,
      "stateMutability": "view",
      "type": "function"
    },
    {
      "constant": true,
      "inputs": [
        {
          "internalType": "uint256",
          "name": "itemID",
          "type": "uint256"
        }
      ],
      "name": "getStatusOfListing",
      "outputs": [
        {
          "internalType": "bool",
          "name": "",
          "type": "bool"
        }
      ],
      "payable": false,
      "stateMutability": "view",
      "type": "function"
    },
    {
      "constant": false,
      "inputs": [
        {
          "internalType": "string",
          "name": "itemName",
          "type": "string"
        },
        {
          "internalType": "string",
          "name": "itemDescription",
          "type": "string"
        },
        {
          "internalType": "uint256",
          "name": "biddingTime",
          "type": "uint256"
        },
        {
          "internalType": "uint256",
          "name": "revealTime",
          "type": "uint256"
        },
        {
          "internalType": "string",
          "name": "method",
          "type": "string"
        }
      ],
      "name": "addAuction",
      "outputs": [],
      "payable": false,
      "stateMutability": "nonpayable",
      "type": "function"
    },
    {
      "constant": false,
      "inputs": [
        {
          "internalType": "uint256",
          "name": "auctionID",
          "type": "uint256"
        },
        {
          "internalType": "bytes32",
          "name": "_blindedBid",
          "type": "bytes32"
        }
      ],
      "name": "placeBid",
      "outputs": [],
      "payable": true,
      "stateMutability": "payable",
      "type": "function"
    },
    {
      "constant": false,
      "inputs": [
        {
          "internalType": "uint256",
          "name": "auctionID",
          "type": "uint256"
        },
        {
          "internalType": "uint256[]",
          "name": "values",
          "type": "uint256[]"
        },
        {
          "internalType": "bool[]",
          "name": "fake",
          "type": "bool[]"
        },
        {
          "internalType": "bytes32",
          "name": "secret",
          "type": "bytes32"
        }
      ],
      "name": "revealBid",
      "outputs": [],
      "payable": false,
      "stateMutability": "nonpayable",
      "type": "function"
    },
    {
      "constant": true,
      "inputs": [],
      "name": "getAuctions",
      "outputs": [
        {
          "components": [
            {
              "internalType": "uint256",
              "name": "auctionID",
              "type": "uint256"
            },
            {
              "internalType": "string",
              "name": "itemName",
              "type": "string"
            },
            {
              "internalType": "string",
              "name": "itemDescription",
              "type": "string"
            },
            {
              "internalType": "address",
              "name": "sellerId",
              "type": "address"
            },
            {
              "internalType": "uint256",
              "name": "startTime",
              "type": "uint256"
            },
            {
              "internalType": "uint256",
              "name": "biddingTime",
              "type": "uint256"
            },
            {
              "internalType": "uint256",
              "name": "revealTime",
              "type": "uint256"
            },
            {
              "internalType": "string",
              "name": "method",
              "type": "string"
            }
          ],
          "internalType": "struct SmartStore.Auction[]",
          "name": "",
          "type": "tuple[]"
        }
      ],
      "payable": false,
      "stateMutability": "view",
      "type": "function"
    },
    {
      "constant": true,
      "inputs": [
        {
          "internalType": "uint256",
          "name": "value",
          "type": "uint256"
        },
        {
          "internalType": "bool",
          "name": "fake",
          "type": "bool"
        },
        {
          "internalType": "bytes32",
          "name": "secret",
          "type": "bytes32"
        }
      ],
      "name": "getHash",
      "outputs": [
        {
          "internalType": "bytes32",
          "name": "",
          "type": "bytes32"
        }
      ],
      "payable": false,
      "stateMutability": "view",
      "type": "function"
    },
    {
      "constant": true,
      "inputs": [],
      "name": "getListings",
      "outputs": [
        {
          "components": [
            {
              "internalType": "uint256",
              "name": "listingID",
              "type": "uint256"
            },
            {
              "internalType": "string",
              "name": "itemName",
              "type": "string"
            },
            {
              "internalType": "string",
              "name": "itemDescription",
              "type": "string"
            },
            {
              "internalType": "uint256",
              "name": "askingPrice",
              "type": "uint256"
            },
            {
              "internalType": "address",
              "name": "sellerID",
              "type": "address"
            }
          ],
          "internalType": "struct SmartStore.Listing[]",
          "name": "",
          "type": "tuple[]"
        }
      ],
      "payable": false,
      "stateMutability": "view",
      "type": "function"
    },
    {
      "constant": false,
      "inputs": [
        {
          "internalType": "uint256",
          "name": "itemID",
          "type": "uint256"
        },
        {
          "internalType": "string",
          "name": "publicKey",
          "type": "string"
        }
      ],
      "name": "buyListing",
      "outputs": [],
      "payable": true,
      "stateMutability": "payable",
      "type": "function"
    },
    {
      "constant": true,
      "inputs": [],
      "name": "getPendingTransactions",
      "outputs": [
        {
          "components": [
            {
              "internalType": "uint256",
              "name": "listingID",
              "type": "uint256"
            },
            {
              "internalType": "string",
              "name": "itemName",
              "type": "string"
            },
            {
              "internalType": "string",
              "name": "itemDescription",
              "type": "string"
            },
            {
              "internalType": "uint256",
              "name": "askingPrice",
              "type": "uint256"
            },
            {
              "internalType": "string",
              "name": "publicKey",
              "type": "string"
            }
          ],
          "internalType": "struct SmartStore.PendingItem[]",
          "name": "",
          "type": "tuple[]"
        }
      ],
      "payable": false,
      "stateMutability": "view",
      "type": "function"
    },
    {
      "constant": false,
      "inputs": [],
      "name": "getNumberOfPendingTransactions",
      "outputs": [
        {
          "internalType": "uint256",
          "name": "",
          "type": "uint256"
        }
      ],
      "payable": false,
      "stateMutability": "nonpayable",
      "type": "function"
    },
    {
      "constant": true,
      "inputs": [
        {
          "internalType": "uint256",
          "name": "idx",
          "type": "uint256"
        }
      ],
      "name": "getParticularPendingListing",
      "outputs": [
        {
          "components": [
            {
              "internalType": "uint256",
              "name": "listingID",
              "type": "uint256"
            },
            {
              "internalType": "string",
              "name": "itemName",
              "type": "string"
            },
            {
              "internalType": "string",
              "name": "itemDescription",
              "type": "string"
            },
            {
              "internalType": "uint256",
              "name": "askingPrice",
              "type": "uint256"
            },
            {
              "internalType": "string",
              "name": "publicKey",
              "type": "string"
            }
          ],
          "internalType": "struct SmartStore.PendingItem",
          "name": "",
          "type": "tuple"
        }
      ],
      "payable": false,
      "stateMutability": "view",
      "type": "function"
    },
    {
      "constant": false,
      "inputs": [
        {
          "internalType": "uint256",
          "name": "itemID",
          "type": "uint256"
        },
        {
          "internalType": "string",
          "name": "itemText",
          "type": "string"
        }
      ],
      "name": "delieverItem",
      "outputs": [],
      "payable": false,
      "stateMutability": "nonpayable",
      "type": "function"
    },
    {
      "constant": true,
      "inputs": [],
      "name": "getItems",
      "outputs": [
        {
          "components": [
            {
              "internalType": "uint256",
              "name": "listingID",
              "type": "uint256"
            },
            {
              "internalType": "string",
              "name": "itemName",
              "type": "string"
            },
            {
              "internalType": "string",
              "name": "itemDescription",
              "type": "string"
            },
            {
              "internalType": "string",
              "name": "itemText",
              "type": "string"
            }
          ],
          "internalType": "struct SmartStore.BoughtItem[]",
          "name": "",
          "type": "tuple[]"
        }
      ],
      "payable": false,
      "stateMutability": "view",
      "type": "function"
    }
  ],
  "bytecode": "0x60806040526000600855600060095534801561001a57600080fd5b506150178061002a6000396000f3fe6080604052600436106200010a5760003560e01c806366ab1d521162000097578063d11db83f1162000061578063d11db83f1462000363578063d7c069191462000393578063e51cbbf914620003c3578063f1b2d6a31462000407576200010a565b806366ab1d5214620002a1578063759652d214620002c1578063affe94271462000305578063c6209edf1462000335576200010a565b8063298c154e11620000d9578063298c154e14620001d15780632c57f1ea14620001ff5780633fb7de9e146200022d578063410d59cc1462000271576200010a565b8063017f47ff146200010f57806309422aff146200013f57806310e822fd146200018357806319b8d0e814620001a3575b600080fd5b3480156200011c57600080fd5b506200012762000437565b60405162000136919062003d74565b60405180910390f35b3480156200014c57600080fd5b506200016b6004803603620001659190810190620030a5565b62000480565b6040516200017a919062003c87565b60405180910390f35b620001a160048036036200019b91908101906200313c565b620004bd565b005b348015620001b057600080fd5b50620001cf6004803603620001c9919081019062003007565b62000972565b005b348015620001de57600080fd5b50620001fd6004803603620001f7919081019062002e5a565b62000a95565b005b3480156200020c57600080fd5b506200022b60048036036200022591908101906200313c565b62000c4e565b005b3480156200023a57600080fd5b5062000259600480360362000253919081019062002faf565b62001459565b60405162000268919062003c6a565b60405180910390f35b3480156200027e57600080fd5b5062000289620014b1565b60405162000298919062003ba3565b60405180910390f35b620002bf6004803603620002b99190810190620030fb565b6200174b565b005b348015620002ce57600080fd5b50620002ed6004803603620002e7919081019062002faf565b620017f5565b604051620002fc919062003d50565b60405180910390f35b3480156200031257600080fd5b506200031d62001a6f565b6040516200032c919062003d74565b60405180910390f35b3480156200034257600080fd5b506200036160048036036200035b919081019062002ee2565b62001a7c565b005b3480156200037057600080fd5b506200037b62001c81565b6040516200038a919062003beb565b60405180910390f35b348015620003a057600080fd5b50620003ab62001f24565b604051620003ba919062003b7f565b60405180910390f35b348015620003d057600080fd5b50620003ef6004803603620003e9919081019062002faf565b6200235e565b604051620003fe919062003d2c565b60405180910390f35b3480156200041457600080fd5b506200041f6200254c565b6040516200042e919062003bc7565b60405180910390f35b60008060003373ffffffffffffffffffffffffffffffffffffffff1673ffffffffffffffffffffffffffffffffffffffff16815260200190815260200160002080549050905090565b6000808484846040516020016200049a9392919062003aff565b604051602081830303815290604052805190602001209050809150509392505050565b8160016003811115620004cc57fe5b6003600083815260200190815260200160002060009054906101000a900460ff166003811115620004f957fe5b146200053c576040517f08c379a0000000000000000000000000000000000000000000000000000000008152600401620005339062003ce8565b60405180910390fd5b600683815481106200054a57fe5b9060005260206000209060050201600301543414620005a0576040517f08c379a0000000000000000000000000000000000000000000000000000000008152600401620005979062003d0a565b60405180910390fd5b336002600085815260200190815260200160002060006101000a81548173ffffffffffffffffffffffffffffffffffffffff021916908373ffffffffffffffffffffffffffffffffffffffff160217905550620005fc620028bd565b600684815481106200060a57fe5b90600052602060002090600502016040518060a001604052908160008201548152602001600182018054600181600116156101000203166002900480601f016020809104026020016040519081016040528092919081815260200182805460018160011615610100020316600290048015620006ca5780601f106200069e57610100808354040283529160200191620006ca565b820191906000526020600020905b815481529060010190602001808311620006ac57829003601f168201915b50505050508152602001600282018054600181600116156101000203166002900480601f016020809104026020016040519081016040528092919081815260200182805460018160011615610100020316600290048015620007705780601f10620007445761010080835404028352916020019162000770565b820191906000526020600020905b8154815290600101906020018083116200075257829003601f168201915b50505050508152602001600382015481526020016004820160009054906101000a900473ffffffffffffffffffffffffffffffffffffffff1673ffffffffffffffffffffffffffffffffffffffff1673ffffffffffffffffffffffffffffffffffffffff1681525050905060026003600086815260200190815260200160002060006101000a81548160ff021916908360038111156200080c57fe5b021790555060006001600086815260200190815260200160002060009054906101000a900473ffffffffffffffffffffffffffffffffffffffff1690506200085362002902565b6040518060a00160405280846000015181526020018460200151815260200184604001518152602001846060015181526020018681525090506000808373ffffffffffffffffffffffffffffffffffffffff1673ffffffffffffffffffffffffffffffffffffffff16815260200190815260200160002081908060018154018082558091505090600182039060005260206000209060050201600090919290919091506000820151816000015560208201518160010190805190602001906200091e92919062002931565b5060408201518160020190805190602001906200093d92919062002931565b506060820151816003015560808201518160040190805190602001906200096692919062002931565b50505050505050505050565b60006005600086815260200190815260200160002060009054906101000a900473ffffffffffffffffffffffffffffffffffffffff1673ffffffffffffffffffffffffffffffffffffffff16633b379797858585336040518563ffffffff1660e01b8152600401620009e8949392919062003c0f565b602060405180830381600087803b15801562000a0357600080fd5b505af115801562000a18573d6000803e3d6000fd5b505050506040513d601f19601f8201168201806040525062000a3e919081019062002fdb565b905060003390508073ffffffffffffffffffffffffffffffffffffffff166108fc839081150290604051600060405180830381858888f1935050505015801562000a8c573d6000803e3d6000fd5b50505050505050565b62000a9f620028bd565b6040518060a0016040528060085481526020018581526020018481526020018381526020013373ffffffffffffffffffffffffffffffffffffffff1681525090503360016000600854815260200190815260200160002060006101000a81548173ffffffffffffffffffffffffffffffffffffffff021916908373ffffffffffffffffffffffffffffffffffffffff160217905550600160036000600854815260200190815260200160002060006101000a81548160ff0219169083600381111562000b6757fe5b02179055506006819080600181540180825580915050906001820390600052602060002090600502016000909192909190915060008201518160000155602082015181600101908051906020019062000bc292919062002931565b50604082015181600201908051906020019062000be192919062002931565b506060820151816003015560808201518160040160006101000a81548173ffffffffffffffffffffffffffffffffffffffff021916908373ffffffffffffffffffffffffffffffffffffffff16021790555050505060086000815480929190600101919050555050505050565b813373ffffffffffffffffffffffffffffffffffffffff166001600083815260200190815260200160002060009054906101000a900473ffffffffffffffffffffffffffffffffffffffff1673ffffffffffffffffffffffffffffffffffffffff161462000cf3576040517f08c379a000000000000000000000000000000000000000000000000000000000815260040162000cea9062003cc6565b60405180910390fd5b6002600381111562000d0157fe5b6003600085815260200190815260200160002060009054906101000a900460ff16600381111562000d2e57fe5b1462000d71576040517f08c379a000000000000000000000000000000000000000000000000000000000815260040162000d689062003ca4565b60405180910390fd5b600380600085815260200190815260200160002060006101000a81548160ff0219169083600381111562000da157fe5b021790555060008060003373ffffffffffffffffffffffffffffffffffffffff1673ffffffffffffffffffffffffffffffffffffffff16815260200190815260200160002080549050905060008090505b81811015620010b357846000803373ffffffffffffffffffffffffffffffffffffffff1673ffffffffffffffffffffffffffffffffffffffff168152602001908152602001600020828154811062000e4657fe5b9060005260206000209060050201600001541415620010a5576000803373ffffffffffffffffffffffffffffffffffffffff1673ffffffffffffffffffffffffffffffffffffffff168152602001908152602001600020600183038154811062000eac57fe5b90600052602060002090600502016000803373ffffffffffffffffffffffffffffffffffffffff1673ffffffffffffffffffffffffffffffffffffffff168152602001908152602001600020828154811062000f0457fe5b9060005260206000209060050201600082015481600001556001820181600101908054600181600116156101000203166002900462000f45929190620029b8565b506002820181600201908054600181600116156101000203166002900462000f6f929190620029b8565b50600382015481600301556004820181600401908054600181600116156101000203166002900462000fa3929190620029b8565b509050506000803373ffffffffffffffffffffffffffffffffffffffff1673ffffffffffffffffffffffffffffffffffffffff168152602001908152602001600020600183038154811062000ff457fe5b90600052602060002090600502016000808201600090556001820160006200101d919062002a46565b6002820160006200102f919062002a46565b600382016000905560048201600062001049919062002a46565b50506000803373ffffffffffffffffffffffffffffffffffffffff1673ffffffffffffffffffffffffffffffffffffffff1681526020019081526020016000208054809190600190036200109e919062002a92565b50620010b3565b808060010191505062000df2565b5060006002600086815260200190815260200160002060009054906101000a900473ffffffffffffffffffffffffffffffffffffffff169050620010f6620028bd565b600686815481106200110457fe5b90600052602060002090600502016040518060a001604052908160008201548152602001600182018054600181600116156101000203166002900480601f016020809104026020016040519081016040528092919081815260200182805460018160011615610100020316600290048015620011c45780601f106200119857610100808354040283529160200191620011c4565b820191906000526020600020905b815481529060010190602001808311620011a657829003601f168201915b50505050508152602001600282018054600181600116156101000203166002900480601f0160208091040260200160405190810160405280929190818152602001828054600181600116156101000203166002900480156200126a5780601f106200123e576101008083540402835291602001916200126a565b820191906000526020600020905b8154815290600101906020018083116200124c57829003601f168201915b50505050508152602001600382015481526020016004820160009054906101000a900473ffffffffffffffffffffffffffffffffffffffff1673ffffffffffffffffffffffffffffffffffffffff1673ffffffffffffffffffffffffffffffffffffffff16815250509050620012df62002ac7565b6040518060800160405280836000015181526020018360200151815260200183604001518152602001878152509050600460008473ffffffffffffffffffffffffffffffffffffffff1673ffffffffffffffffffffffffffffffffffffffff1681526020019081526020016000208190806001815401808255809150509060018203906000526020600020906004020160009091929091909150600082015181600001556020820151816001019080519060200190620013a192919062002931565b506040820151816002019080519060200190620013c092919062002931565b506060820151816003019080519060200190620013df92919062002931565b5050505060003390508073ffffffffffffffffffffffffffffffffffffffff166108fc60068a815481106200141057fe5b9060005260206000209060050201600301549081150290604051600060405180830381858888f193505050501580156200144e573d6000803e3d6000fd5b505050505050505050565b6000600160038111156200146957fe5b6003600084815260200190815260200160002060009054906101000a900460ff1660038111156200149657fe5b1415620014a75760019050620014ac565b600090505b919050565b6060600460003373ffffffffffffffffffffffffffffffffffffffff1673ffffffffffffffffffffffffffffffffffffffff168152602001908152602001600020805480602002602001604051908101604052809291908181526020016000905b8282101562001742578382906000526020600020906004020160405180608001604052908160008201548152602001600182018054600181600116156101000203166002900480601f016020809104026020016040519081016040528092919081815260200182805460018160011615610100020316600290048015620015dd5780601f10620015b157610100808354040283529160200191620015dd565b820191906000526020600020905b815481529060010190602001808311620015bf57829003601f168201915b50505050508152602001600282018054600181600116156101000203166002900480601f016020809104026020016040519081016040528092919081815260200182805460018160011615610100020316600290048015620016835780601f10620016575761010080835404028352916020019162001683565b820191906000526020600020905b8154815290600101906020018083116200166557829003601f168201915b50505050508152602001600382018054600181600116156101000203166002900480601f016020809104026020016040519081016040528092919081815260200182805460018160011615610100020316600290048015620017295780601f10620016fd5761010080835404028352916020019162001729565b820191906000526020600020905b8154815290600101906020018083116200170b57829003601f168201915b5050505050815250508152602001906001019062001512565b50505050905090565b6005600083815260200190815260200160002060009054906101000a900473ffffffffffffffffffffffffffffffffffffffff1673ffffffffffffffffffffffffffffffffffffffff1663fb31c4093383346040518463ffffffff1660e01b8152600401620017bd9392919062003b42565b600060405180830381600087803b158015620017d857600080fd5b505af1158015620017ed573d6000803e3d6000fd5b505050505050565b620017ff62002902565b6000803373ffffffffffffffffffffffffffffffffffffffff1673ffffffffffffffffffffffffffffffffffffffff16815260200190815260200160002082815481106200184957fe5b90600052602060002090600502016040518060a001604052908160008201548152602001600182018054600181600116156101000203166002900480601f016020809104026020016040519081016040528092919081815260200182805460018160011615610100020316600290048015620019095780601f10620018dd5761010080835404028352916020019162001909565b820191906000526020600020905b815481529060010190602001808311620018eb57829003601f168201915b50505050508152602001600282018054600181600116156101000203166002900480601f016020809104026020016040519081016040528092919081815260200182805460018160011615610100020316600290048015620019af5780601f106200198357610100808354040283529160200191620019af565b820191906000526020600020905b8154815290600101906020018083116200199157829003601f168201915b5050505050815260200160038201548152602001600482018054600181600116156101000203166002900480601f01602080910402602001604051908101604052809291908181526020018280546001816001161561010002031660029004801562001a5f5780601f1062001a335761010080835404028352916020019162001a5f565b820191906000526020600020905b81548152906001019060200180831162001a4157829003601f168201915b5050505050815250509050919050565b6000600680549050905090565b62001a8662002aef565b60405180610100016040528060095481526020018781526020018681526020013373ffffffffffffffffffffffffffffffffffffffff1681526020014281526020018581526020018481526020018381525090506007819080600181540180825580915050906001820390600052602060002090600802016000909192909190915060008201518160000155602082015181600101908051906020019062001b3092919062002931565b50604082015181600201908051906020019062001b4f92919062002931565b5060608201518160030160006101000a81548173ffffffffffffffffffffffffffffffffffffffff021916908373ffffffffffffffffffffffffffffffffffffffff1602179055506080820151816004015560a0820151816005015560c0820151816006015560e082015181600701908051906020019062001bd392919062002931565b5050505083833360405162001be89062002b4a565b62001bf69392919062003d91565b604051809103906000f08015801562001c13573d6000803e3d6000fd5b5060056000600954815260200190815260200160002060006101000a81548173ffffffffffffffffffffffffffffffffffffffff021916908373ffffffffffffffffffffffffffffffffffffffff160217905550600960008154809291906001019190505550505050505050565b60606000803373ffffffffffffffffffffffffffffffffffffffff1673ffffffffffffffffffffffffffffffffffffffff168152602001908152602001600020805480602002602001604051908101604052809291908181526020016000905b8282101562001f1b57838290600052602060002090600502016040518060a001604052908160008201548152602001600182018054600181600116156101000203166002900480601f01602080910402602001604051908101604052809291908181526020018280546001816001161561010002031660029004801562001dac5780601f1062001d805761010080835404028352916020019162001dac565b820191906000526020600020905b81548152906001019060200180831162001d8e57829003601f168201915b50505050508152602001600282018054600181600116156101000203166002900480601f01602080910402602001604051908101604052809291908181526020018280546001816001161561010002031660029004801562001e525780601f1062001e265761010080835404028352916020019162001e52565b820191906000526020600020905b81548152906001019060200180831162001e3457829003601f168201915b5050505050815260200160038201548152602001600482018054600181600116156101000203166002900480601f01602080910402602001604051908101604052809291908181526020018280546001816001161561010002031660029004801562001f025780601f1062001ed65761010080835404028352916020019162001f02565b820191906000526020600020905b81548152906001019060200180831162001ee457829003601f168201915b5050505050815250508152602001906001019062001ce1565b50505050905090565b6060600080905060008090505b60078054905081101562001fc45760006007828154811062001f4f57fe5b90600052602060002090600802016000015490506007828154811062001f7157fe5b9060005260206000209060080201600501546007838154811062001f9157fe5b9060005260206000209060080201600401540142101562001fb55782806001019350505b50808060010191505062001f31565b506060816040519080825280602002602001820160405280156200200557816020015b62001ff162002b58565b81526020019060019003908162001fe75790505b509050600080905060008090505b60078054905081101562002354576000600782815481106200203157fe5b9060005260206000209060080201600001549050600782815481106200205357fe5b906000526020600020906008020160050154600783815481106200207357fe5b906000526020600020906008020160040154014210156200234557600782815481106200209c57fe5b90600052602060002090600802016040518061010001604052908160008201548152602001600182018054600181600116156101000203166002900480601f0160208091040260200160405190810160405280929190818152602001828054600181600116156101000203166002900480156200215d5780601f1062002131576101008083540402835291602001916200215d565b820191906000526020600020905b8154815290600101906020018083116200213f57829003601f168201915b50505050508152602001600282018054600181600116156101000203166002900480601f016020809104026020016040519081016040528092919081815260200182805460018160011615610100020316600290048015620022035780601f10620021d75761010080835404028352916020019162002203565b820191906000526020600020905b815481529060010190602001808311620021e557829003601f168201915b505050505081526020016003820160009054906101000a900473ffffffffffffffffffffffffffffffffffffffff1673ffffffffffffffffffffffffffffffffffffffff1673ffffffffffffffffffffffffffffffffffffffff168152602001600482015481526020016005820154815260200160068201548152602001600782018054600181600116156101000203166002900480601f0160208091040260200160405190810160405280929190818152602001828054600181600116156101000203166002900480156200231d5780601f10620022f1576101008083540402835291602001916200231d565b820191906000526020600020905b815481529060010190602001808311620022ff57829003601f168201915b5050505050815250508484806001019550815181106200233957fe5b60200260200101819052505b50808060010191505062002013565b5081935050505090565b62002368620028bd565b600682815481106200237657fe5b90600052602060002090600502016040518060a001604052908160008201548152602001600182018054600181600116156101000203166002900480601f016020809104026020016040519081016040528092919081815260200182805460018160011615610100020316600290048015620024365780601f106200240a5761010080835404028352916020019162002436565b820191906000526020600020905b8154815290600101906020018083116200241857829003601f168201915b50505050508152602001600282018054600181600116156101000203166002900480601f016020809104026020016040519081016040528092919081815260200182805460018160011615610100020316600290048015620024dc5780601f10620024b057610100808354040283529160200191620024dc565b820191906000526020600020905b815481529060010190602001808311620024be57829003601f168201915b50505050508152602001600382015481526020016004820160009054906101000a900473ffffffffffffffffffffffffffffffffffffffff1673ffffffffffffffffffffffffffffffffffffffff1673ffffffffffffffffffffffffffffffffffffffff16815250509050919050565b6060600080905060008090505b600680549050811015620025e5576000600682815481106200257757fe5b9060005260206000209060050201600001549050600160038111156200259957fe5b6003600083815260200190815260200160002060009054906101000a900460ff166003811115620025c657fe5b1415620025d65782806001019350505b50808060010191505062002559565b506060816040519080825280602002602001820160405280156200262657816020015b6200261262002bb3565b815260200190600190039081620026085790505b509050600080905060008090505b600680549050811015620028b3576000600682815481106200265257fe5b9060005260206000209060050201600001549050600160038111156200267457fe5b6003600083815260200190815260200160002060009054906101000a900460ff166003811115620026a157fe5b1415620028a45760068281548110620026b657fe5b90600052602060002090600502016040518060a001604052908160008201548152602001600182018054600181600116156101000203166002900480601f016020809104026020016040519081016040528092919081815260200182805460018160011615610100020316600290048015620027765780601f106200274a5761010080835404028352916020019162002776565b820191906000526020600020905b8154815290600101906020018083116200275857829003601f168201915b50505050508152602001600282018054600181600116156101000203166002900480601f0160208091040260200160405190810160405280929190818152602001828054600181600116156101000203166002900480156200281c5780601f10620027f0576101008083540402835291602001916200281c565b820191906000526020600020905b815481529060010190602001808311620027fe57829003601f168201915b50505050508152602001600382015481526020016004820160009054906101000a900473ffffffffffffffffffffffffffffffffffffffff1673ffffffffffffffffffffffffffffffffffffffff1673ffffffffffffffffffffffffffffffffffffffff16815250508484806001019550815181106200289857fe5b60200260200101819052505b50808060010191505062002634565b5081935050505090565b6040518060a0016040528060008152602001606081526020016060815260200160008152602001600073ffffffffffffffffffffffffffffffffffffffff1681525090565b6040518060a0016040528060008152602001606081526020016060815260200160008152602001606081525090565b828054600181600116156101000203166002900490600052602060002090601f016020900481019282601f106200297457805160ff1916838001178555620029a5565b82800160010185558215620029a5579182015b82811115620029a457825182559160200191906001019062002987565b5b509050620029b4919062002bf8565b5090565b828054600181600116156101000203166002900490600052602060002090601f016020900481019282601f10620029f3578054855562002a33565b8280016001018555821562002a3357600052602060002091601f016020900482015b8281111562002a3257825482559160010191906001019062002a15565b5b50905062002a42919062002bf8565b5090565b50805460018160011615610100020316600290046000825580601f1062002a6e575062002a8f565b601f01602090049060005260206000209081019062002a8e919062002bf8565b5b50565b81548183558181111562002ac25760050281600502836000526020600020918201910162002ac1919062002c20565b5b505050565b6040518060800160405280600081526020016060815260200160608152602001606081525090565b604051806101000160405280600081526020016060815260200160608152602001600073ffffffffffffffffffffffffffffffffffffffff168152602001600081526020016000815260200160008152602001606081525090565b610e45806200419083390190565b604051806101000160405280600081526020016060815260200160608152602001600073ffffffffffffffffffffffffffffffffffffffff168152602001600081526020016000815260200160008152602001606081525090565b6040518060a0016040528060008152602001606081526020016060815260200160008152602001600073ffffffffffffffffffffffffffffffffffffffff1681525090565b62002c1d91905b8082111562002c1957600081600090555060010162002bff565b5090565b90565b62002c8591905b8082111562002c815760008082016000905560018201600062002c4b919062002a46565b60028201600062002c5d919062002a46565b600382016000905560048201600062002c77919062002a46565b5060050162002c27565b5090565b90565b600082601f83011262002c9a57600080fd5b813562002cb162002cab8262003dfc565b62003dce565b9150818183526020840193506020810190508385602084028201111562002cd757600080fd5b60005b8381101562002d0b578162002cf0888262002da2565b84526020840193506020830192505060018101905062002cda565b5050505092915050565b600082601f83011262002d2757600080fd5b813562002d3e62002d388262003e25565b62003dce565b9150818183526020840193506020810190508385602084028201111562002d6457600080fd5b60005b8381101562002d98578162002d7d888262002e2c565b84526020840193506020830192505060018101905062002d67565b5050505092915050565b60008135905062002db38162004141565b92915050565b60008135905062002dca816200415b565b92915050565b600082601f83011262002de257600080fd5b813562002df962002df38262003e4e565b62003dce565b9150808252602083016020830185838301111562002e1657600080fd5b62002e23838284620040a2565b50505092915050565b60008135905062002e3d8162004175565b92915050565b60008151905062002e548162004175565b92915050565b60008060006060848603121562002e7057600080fd5b600084013567ffffffffffffffff81111562002e8b57600080fd5b62002e998682870162002dd0565b935050602084013567ffffffffffffffff81111562002eb757600080fd5b62002ec58682870162002dd0565b925050604062002ed88682870162002e2c565b9150509250925092565b600080600080600060a0868803121562002efb57600080fd5b600086013567ffffffffffffffff81111562002f1657600080fd5b62002f248882890162002dd0565b955050602086013567ffffffffffffffff81111562002f4257600080fd5b62002f508882890162002dd0565b945050604062002f638882890162002e2c565b935050606062002f768882890162002e2c565b925050608086013567ffffffffffffffff81111562002f9457600080fd5b62002fa28882890162002dd0565b9150509295509295909350565b60006020828403121562002fc257600080fd5b600062002fd28482850162002e2c565b91505092915050565b60006020828403121562002fee57600080fd5b600062002ffe8482850162002e43565b91505092915050565b600080600080608085870312156200301e57600080fd5b60006200302e8782880162002e2c565b945050602085013567ffffffffffffffff8111156200304c57600080fd5b6200305a8782880162002d15565b935050604085013567ffffffffffffffff8111156200307857600080fd5b620030868782880162002c88565b9250506060620030998782880162002db9565b91505092959194509250565b600080600060608486031215620030bb57600080fd5b6000620030cb8682870162002e2c565b9350506020620030de8682870162002da2565b9250506040620030f18682870162002db9565b9150509250925092565b600080604083850312156200310f57600080fd5b60006200311f8582860162002e2c565b9250506020620031328582860162002db9565b9150509250929050565b600080604083850312156200315057600080fd5b6000620031608582860162002e2c565b925050602083013567ffffffffffffffff8111156200317e57600080fd5b6200318c8582860162002dd0565b9150509250929050565b6000620031a483836200352d565b60208301905092915050565b6000620031be838362003751565b905092915050565b6000620031d483836200381f565b905092915050565b6000620031ea83836200391f565b905092915050565b600062003200838362003a34565b905092915050565b600062003216838362003ac2565b60208301905092915050565b6200322d8162004066565b82525050565b6200323e8162004012565b82525050565b6200324f8162003ffe565b82525050565b6000620032628262003edb565b6200326e818562003f76565b93506200327b8362003e7b565b8060005b83811015620032b257815162003296888262003196565b9750620032a38362003f28565b9250506001810190506200327f565b5085935050505092915050565b6000620032cc8262003ee6565b620032d8818562003f87565b935083602082028501620032ec8562003e8b565b8060005b858110156200332e57848403895281516200330c8582620031b0565b9450620033198362003f35565b925060208a01995050600181019050620032f0565b50829750879550505050505092915050565b60006200334d8262003ef1565b62003359818562003f98565b9350836020820285016200336d8562003e9b565b8060005b85811015620033af57848403895281516200338d8582620031c6565b94506200339a8362003f42565b925060208a0199505060018101905062003371565b50829750879550505050505092915050565b6000620033ce8262003efc565b620033da818562003fa9565b935083602082028501620033ee8562003eab565b8060005b858110156200343057848403895281516200340e8582620031dc565b94506200341b8362003f4f565b925060208a01995050600181019050620033f2565b50829750879550505050505092915050565b60006200344f8262003f07565b6200345b818562003fba565b9350836020820285016200346f8562003ebb565b8060005b85811015620034b157848403895281516200348f8582620031f2565b94506200349c8362003f5c565b925060208a0199505060018101905062003473565b50829750879550505050505092915050565b6000620034d08262003f12565b620034dc818562003fcb565b9350620034e98362003ecb565b8060005b838110156200352057815162003504888262003208565b9750620035118362003f69565b925050600181019050620034ed565b5085935050505092915050565b620035388162004026565b82525050565b620035498162004026565b82525050565b620035646200355e8262004026565b620040e7565b82525050565b620035758162004032565b82525050565b620035906200358a8262004032565b620040fb565b82525050565b6000620035a38262003f1d565b620035af818562003fdc565b9350620035c1818560208601620040b1565b620035cc8162004123565b840191505092915050565b6000620035e660308362003fed565b91507f54686973206974656d206973206e6f7420696e207468652070656e64696e672060008301527f64656c6965766572792073746174652e000000000000000000000000000000006020830152604082019050919050565b60006200364e60248362003fed565b91507f596f7520617265206e6f74207468652073656c6c6572206f662074686973206960008301527f74656d2e000000000000000000000000000000000000000000000000000000006020830152604082019050919050565b6000620036b660138362003fed565b91507f4974656d206e6f7420617661696c61626c652e000000000000000000000000006000830152602082019050919050565b6000620036f8602d8362003fed565b91507f53656e7420616d6f756e742073686f756c6420626520657175616c20746f206160008301527f736b696e672070726963652021000000000000000000000000000000000000006020830152604082019050919050565b6000610100830160008301516200376c600086018262003ac2565b506020830151848203602086015262003786828262003596565b91505060408301518482036040860152620037a2828262003596565b9150506060830151620037b9606086018262003244565b506080830151620037ce608086018262003ac2565b5060a0830151620037e360a086018262003ac2565b5060c0830151620037f860c086018262003ac2565b5060e083015184820360e086015262003812828262003596565b9150508091505092915050565b600060808301600083015162003839600086018262003ac2565b506020830151848203602086015262003853828262003596565b915050604083015184820360408601526200386f828262003596565b915050606083015184820360608601526200388b828262003596565b9150508091505092915050565b600060a083016000830151620038b2600086018262003ac2565b5060208301518482036020860152620038cc828262003596565b91505060408301518482036040860152620038e8828262003596565b9150506060830151620038ff606086018262003ac2565b50608083015162003914608086018262003244565b508091505092915050565b600060a08301600083015162003939600086018262003ac2565b506020830151848203602086015262003953828262003596565b915050604083015184820360408601526200396f828262003596565b915050606083015162003986606086018262003ac2565b5060808301516200399b608086018262003244565b508091505092915050565b600060a083016000830151620039c0600086018262003ac2565b5060208301518482036020860152620039da828262003596565b91505060408301518482036040860152620039f6828262003596565b915050606083015162003a0d606086018262003ac2565b506080830151848203608086015262003a27828262003596565b9150508091505092915050565b600060a08301600083015162003a4e600086018262003ac2565b506020830151848203602086015262003a68828262003596565b9150506040830151848203604086015262003a84828262003596565b915050606083015162003a9b606086018262003ac2565b506080830151848203608086015262003ab5828262003596565b9150508091505092915050565b62003acd816200405c565b82525050565b62003ade816200405c565b82525050565b62003af962003af3826200405c565b62004105565b82525050565b600062003b0d828662003ae4565b60208201915062003b1f82856200354f565b60018201915062003b3182846200357b565b602082019150819050949350505050565b600060608201905062003b59600083018662003222565b62003b6860208301856200356a565b62003b77604083018462003ad3565b949350505050565b6000602082019050818103600083015262003b9b8184620032bf565b905092915050565b6000602082019050818103600083015262003bbf818462003340565b905092915050565b6000602082019050818103600083015262003be38184620033c1565b905092915050565b6000602082019050818103600083015262003c07818462003442565b905092915050565b6000608082019050818103600083015262003c2b8187620034c3565b9050818103602083015262003c41818662003255565b905062003c5260408301856200356a565b62003c61606083018462003222565b95945050505050565b600060208201905062003c8160008301846200353e565b92915050565b600060208201905062003c9e60008301846200356a565b92915050565b6000602082019050818103600083015262003cbf81620035d7565b9050919050565b6000602082019050818103600083015262003ce1816200363f565b9050919050565b6000602082019050818103600083015262003d0381620036a7565b9050919050565b6000602082019050818103600083015262003d2581620036e9565b9050919050565b6000602082019050818103600083015262003d48818462003898565b905092915050565b6000602082019050818103600083015262003d6c8184620039a6565b905092915050565b600060208201905062003d8b600083018462003ad3565b92915050565b600060608201905062003da8600083018662003ad3565b62003db7602083018562003ad3565b62003dc6604083018462003233565b949350505050565b6000604051905081810181811067ffffffffffffffff8211171562003df257600080fd5b8060405250919050565b600067ffffffffffffffff82111562003e1457600080fd5b602082029050602081019050919050565b600067ffffffffffffffff82111562003e3d57600080fd5b602082029050602081019050919050565b600067ffffffffffffffff82111562003e6657600080fd5b601f19601f8301169050602081019050919050565b6000819050602082019050919050565b6000819050602082019050919050565b6000819050602082019050919050565b6000819050602082019050919050565b6000819050602082019050919050565b6000819050602082019050919050565b600081519050919050565b600081519050919050565b600081519050919050565b600081519050919050565b600081519050919050565b600081519050919050565b600081519050919050565b6000602082019050919050565b6000602082019050919050565b6000602082019050919050565b6000602082019050919050565b6000602082019050919050565b6000602082019050919050565b600082825260208201905092915050565b600082825260208201905092915050565b600082825260208201905092915050565b600082825260208201905092915050565b600082825260208201905092915050565b600082825260208201905092915050565b600082825260208201905092915050565b600082825260208201905092915050565b60006200400b826200403c565b9050919050565b60006200401f826200403c565b9050919050565b60008115159050919050565b6000819050919050565b600073ffffffffffffffffffffffffffffffffffffffff82169050919050565b6000819050919050565b600062004073826200407a565b9050919050565b600062004087826200408e565b9050919050565b60006200409b826200403c565b9050919050565b82818337600083830152505050565b60005b83811015620040d1578082015181840152602081019050620040b4565b83811115620040e1576000848401525b50505050565b6000620040f4826200410f565b9050919050565b6000819050919050565b6000819050919050565b60006200411c8262004134565b9050919050565b6000601f19601f8301169050919050565b60008160f81b9050919050565b6200414c8162004026565b81146200415857600080fd5b50565b620041668162004032565b81146200417257600080fd5b50565b62004180816200405c565b81146200418c57600080fd5b5056fe60806040523480156200001157600080fd5b5060405162000e4538038062000e458339818101604052620000379190810190620000c2565b806000806101000a81548173ffffffffffffffffffffffffffffffffffffffff021916908373ffffffffffffffffffffffffffffffffffffffff16021790555082420160018190555081600154016002819055505050506200018a565b600081519050620000a58162000156565b92915050565b600081519050620000bc8162000170565b92915050565b600080600060608486031215620000d857600080fd5b6000620000e886828701620000ab565b9350506020620000fb86828701620000ab565b92505060406200010e8682870162000094565b9150509250925092565b600062000125826200012c565b9050919050565b600073ffffffffffffffffffffffffffffffffffffffff82169050919050565b6000819050919050565b620001618162000118565b81146200016d57600080fd5b50565b6200017b816200014c565b81146200018757600080fd5b50565b610cab806200019a6000396000f3fe608060405234801561001057600080fd5b50600436106100935760003560e01c80633b379797116100665780633b3797971461010f578063423b217f1461013f578063a6e664771461015d578063e9b036e91461017b578063fb31c409146101ab57610093565b806301495c1c1461009857806312fa6feb146100c95780632a24f46c146100e757806338af3eed146100f1575b600080fd5b6100b260048036036100ad91908101906108df565b6101c7565b6040516100c0929190610aa2565b60405180910390f35b6100d1610205565b6040516100de9190610a87565b60405180910390f35b6100ef610218565b005b6100f961029f565b6040516101069190610a6c565b60405180910390f35b6101296004803603610124919081019061091b565b6102c4565b6040516101369190610acb565b60405180910390f35b61014761048a565b6040516101549190610acb565b60405180910390f35b610165610490565b6040516101729190610acb565b60405180910390f35b61019560048036036101909190810190610867565b610496565b6040516101a29190610acb565b60405180910390f35b6101c560048036036101c09190810190610890565b610533565b005b600560205281600052604060002081815481106101e057fe5b9060005260206000209060020201600091509150508060000154908060010154905082565b600360009054906101000a900460ff1681565b6001600360006101000a81548160ff0219169083151502179055506000809054906101000a900473ffffffffffffffffffffffffffffffffffffffff1673ffffffffffffffffffffffffffffffffffffffff166108fc6007549081150290604051600060405180830381858888f1935050505015801561029c573d6000803e3d6000fd5b50565b6000809054906101000a900473ffffffffffffffffffffffffffffffffffffffff1681565b60006001548042116102d557600080fd5b6002548042106102e457600080fd5b6000600560008673ffffffffffffffffffffffffffffffffffffffff1673ffffffffffffffffffffffffffffffffffffffff1681526020019081526020016000208054905090508088511461033857600080fd5b8087511461034557600080fd5b600080905060008090505b8281101561047a576000600560008973ffffffffffffffffffffffffffffffffffffffff1673ffffffffffffffffffffffffffffffffffffffff16815260200190815260200160002082815481106103a457fe5b9060005260206000209060020201905060008060008d85815181106103c557fe5b60200260200101518d86815181106103d957fe5b60200260200101518d9250925092508282826040516020016103fd93929190610a2f565b60405160208183030381529060405280519060200120846000015414610426575050505061046d565b83600101548601955081158015610441575082846001015410155b1561045c576104508b846105de565b1561045b5782860395505b5b6000801b8460000181905550505050505b8080600101915050610350565b5080945050505050949350505050565b60015481565b60025481565b600080600660008473ffffffffffffffffffffffffffffffffffffffff1673ffffffffffffffffffffffffffffffffffffffff168152602001908152602001600020549050600081111561052a576000600660008573ffffffffffffffffffffffffffffffffffffffff1673ffffffffffffffffffffffffffffffffffffffff168152602001908152602001600020819055505b80915050919050565b60015480421061054257600080fd5b600560008573ffffffffffffffffffffffffffffffffffffffff1673ffffffffffffffffffffffffffffffffffffffff16815260200190815260200160002060405180604001604052808581526020018481525090806001815401808255809150509060018203906000526020600020906002020160009091929091909150600082015181600001556020820151816001015550505050505050565b600060075482116105f25760009050610707565b600073ffffffffffffffffffffffffffffffffffffffff16600860009054906101000a900473ffffffffffffffffffffffffffffffffffffffff1673ffffffffffffffffffffffffffffffffffffffff16146106ba5760075460066000600860009054906101000a900473ffffffffffffffffffffffffffffffffffffffff1673ffffffffffffffffffffffffffffffffffffffff1673ffffffffffffffffffffffffffffffffffffffff168152602001908152602001600020600082825401925050819055505b8160078190555082600860006101000a81548173ffffffffffffffffffffffffffffffffffffffff021916908373ffffffffffffffffffffffffffffffffffffffff160217905550600190505b92915050565b60008135905061071c81610c0c565b92915050565b600082601f83011261073357600080fd5b813561074661074182610b13565b610ae6565b9150818183526020840193506020810190508385602084028201111561076b57600080fd5b60005b8381101561079b57816107818882610828565b84526020840193506020830192505060018101905061076e565b5050505092915050565b600082601f8301126107b657600080fd5b81356107c96107c482610b3b565b610ae6565b915081818352602084019350602081019050838560208402820111156107ee57600080fd5b60005b8381101561081e57816108048882610852565b8452602084019350602083019250506001810190506107f1565b5050505092915050565b60008135905061083781610c23565b92915050565b60008135905061084c81610c3a565b92915050565b60008135905061086181610c51565b92915050565b60006020828403121561087957600080fd5b60006108878482850161070d565b91505092915050565b6000806000606084860312156108a557600080fd5b60006108b38682870161070d565b93505060206108c48682870161083d565b92505060406108d586828701610852565b9150509250925092565b600080604083850312156108f257600080fd5b60006109008582860161070d565b925050602061091185828601610852565b9150509250929050565b6000806000806080858703121561093157600080fd5b600085013567ffffffffffffffff81111561094b57600080fd5b610957878288016107a5565b945050602085013567ffffffffffffffff81111561097457600080fd5b61098087828801610722565b93505060406109918782880161083d565b92505060606109a28782880161070d565b91505092959194509250565b6109b781610b75565b82525050565b6109c681610b87565b82525050565b6109dd6109d882610b87565b610bc7565b82525050565b6109ec81610b93565b82525050565b610a036109fe82610b93565b610bd9565b82525050565b610a1281610bbd565b82525050565b610a29610a2482610bbd565b610be3565b82525050565b6000610a3b8286610a18565b602082019150610a4b82856109cc565b600182019150610a5b82846109f2565b602082019150819050949350505050565b6000602082019050610a8160008301846109ae565b92915050565b6000602082019050610a9c60008301846109bd565b92915050565b6000604082019050610ab760008301856109e3565b610ac46020830184610a09565b9392505050565b6000602082019050610ae06000830184610a09565b92915050565b6000604051905081810181811067ffffffffffffffff82111715610b0957600080fd5b8060405250919050565b600067ffffffffffffffff821115610b2a57600080fd5b602082029050602081019050919050565b600067ffffffffffffffff821115610b5257600080fd5b602082029050602081019050919050565b6000610b6e82610b9d565b9050919050565b6000610b8082610b9d565b9050919050565b60008115159050919050565b6000819050919050565b600073ffffffffffffffffffffffffffffffffffffffff82169050919050565b6000819050919050565b6000610bd282610bed565b9050919050565b6000819050919050565b6000819050919050565b6000610bf882610bff565b9050919050565b60008160f81b9050919050565b610c1581610b63565b8114610c2057600080fd5b50565b610c2c81610b87565b8114610c3757600080fd5b50565b610c4381610b93565b8114610c4e57600080fd5b50565b610c5a81610bbd565b8114610c6557600080fd5b5056fea365627a7a723158208961c98af191b6ec86970daa8b251a90fc78ed8855feff63f18132e01e25348d6c6578706572696d656e74616cf564736f6c63430005100040a365627a7a72315820175723b3f8998927834e125847374a8349c312ec2b9aca2af9143de276493d296c6578706572696d656e74616cf564736f6c63430005100040",
  "source": "// SPDX-License-Identifier: MIT\npragma experimental ABIEncoderV2;\npragma solidity >=0.4.22 <0.9.0;\nimport './FirstPriceAuction.sol';\n\ncontract Factory {\n    \n}\ncontract SmartStore {\n    /// @author Heisenberg team\n\n    enum State {UNDEFINED, AVAILABLE, PENDING_DELIVERY, DELIVERED}\n\n    struct Listing {\n        uint listingID;\n        string itemName;\n        string itemDescription;\n        uint askingPrice;\n        address sellerID;\n    }\n\n    struct Auction {\n        uint auctionID;\n        string itemName;\n        string itemDescription;\n        address sellerId;\n        uint startTime;\n        uint biddingTime;\n        uint revealTime;\n        string method;\n    }\n\n    struct PendingItem {\n        uint listingID;\n        string itemName;\n        string itemDescription;\n        uint askingPrice;\n        string publicKey;\n    }\n\n    struct BoughtItem {\n        uint listingID;\n        string itemName;\n        string itemDescription;\n        string itemText;\n    }\n\n\n    constructor() public {\n\n    }\n\n    /// @dev list of pending deliveries for each seller\n    mapping(address => PendingItem[]) pendingDeliveries;\n    /// @dev address of the seller who is selling a particular product\n    mapping(uint => address) sellers;\n    /// @dev address of the person who has paid money to the contract to buy a particular product\n    mapping(uint => address) buyers;\n    /// @dev state of each product in the listing\n    mapping(uint => State) status;\n    /// @dev list of items which each person has bought and has been deliverd\n    mapping(address => BoughtItem[]) myItems;\n    mapping(uint => BaseAuction) auctionContracts;\n\n    /// @dev list of all products. Also includes products which have already been sold\n    Listing[] private listings;\n    Auction[] private auctions;\n\n    uint listingCounter = 0;\n    uint auctionCounter = 0;\n\n    modifier onlyAvailable(uint itemID) {\n        require (\n            status[itemID] == State.AVAILABLE,\n            \"Item not available.\"\n        );\n        _;\n    }\n\n    modifier onlySeller(uint itemID) {\n        require (\n            sellers[itemID] == msg.sender,\n            \"You are not the seller of this item.\"\n        );\n        _;\n    }\n\n\n    /**\n     * @notice sellers use this to add a new product they want to sell into the list of available products\n     * @param itemName the name of the item to be sold\n     * @param itemDescription description of the item to be sold \n     * @param askingPrice price of the item to be sold\n     */\n    function addListing(string memory itemName, string memory itemDescription, uint askingPrice) public {\n        Listing memory listing = Listing(listingCounter, itemName, itemDescription, askingPrice, msg.sender);\n        sellers[listingCounter] = msg.sender;\n        status[listingCounter] = State.AVAILABLE;\n        listings.push(listing);\n        listingCounter++;\n    }\n    function getNumberOfListings() public returns (uint) {\n        return listings.length;\n    }\n\n    function getParticularListing(uint idx) public view returns (Listing memory) {\n        return listings[idx];\n    }\n\n    function getStatusOfListing(uint itemID) public view returns (bool) {\n        if(status[itemID] == State.AVAILABLE) {\n            return true;\n        } else {\n            return false;\n        }\n    }\n\n    function addAuction(string memory itemName, string memory itemDescription, uint biddingTime, uint revealTime, string memory method) public {\n        Auction memory auction = Auction(auctionCounter, itemName, itemDescription, msg.sender, now, biddingTime, revealTime, method);\n        auctions.push(auction);\n        auctionContracts[auctionCounter] = new FirstPriceAuction(biddingTime, revealTime, msg.sender);\n        auctionCounter++;\n    }\n\n    function placeBid(uint auctionID, bytes32 _blindedBid) public payable{\n        auctionContracts[auctionID].bid(msg.sender, _blindedBid, msg.value);\n    }\n    function revealBid(uint auctionID, uint[] memory values, bool[] memory fake, bytes32 secret) public {\n        uint refundAmount = auctionContracts[auctionID].reveal(values, fake, secret, msg.sender);\n        address payable bidderAddress = msg.sender;\n        bidderAddress.transfer(refundAmount);\n    }\n    function getAuctions() public view returns (Auction[] memory) {\n        uint available = 0;\n        for(uint i = 0; i < auctions.length; i++) {\n            uint itemID = auctions[i].auctionID;\n            if(now < auctions[i].startTime + auctions[i].biddingTime) {\n                available++;\n            }\n        }\n\n        Auction[] memory activeAuctions = new Auction[](available);\n        uint index = 0;\n        for(uint i = 0; i < auctions.length; i++) {\n            uint itemID = auctions[i].auctionID;\n            if(now < auctions[i].startTime + auctions[i].biddingTime) {\n                activeAuctions[index++] = auctions[i];\n            }\n        }\n        return activeAuctions;\n    }\n    function getHash(uint value, bool fake, bytes32 secret) public view returns (bytes32) {\n        bytes32 hash = keccak256(abi.encodePacked(value, fake, secret));\n        return hash;\n    }\n    /**\n     * @notice used to get a list of all the products which are available for sale\n     * @return the list of active products\n     */\n    function getListings() public view returns (Listing[] memory) {\n        uint available = 0;\n        for(uint i = 0; i < listings.length; i++) {\n            uint itemID = listings[i].listingID;\n            if(status[itemID] == State.AVAILABLE) {\n                available++;\n            }\n        }\n\n        Listing[] memory activeListings = new Listing[](available);\n        uint index = 0;\n        for(uint i = 0; i < listings.length; i++) {\n            uint itemID = listings[i].listingID;\n            if(status[itemID] == State.AVAILABLE) {\n                activeListings[index++] = listings[i];\n            }\n        }\n        return activeListings;\n    }\n\n    /**\n     * @notice buyers use this to buy a product which is available for sale\n     * @dev calling this function adds the product into the list of pending deliveries for the corresponding seller \n     * @param itemID ID of the item to be bought\n     * @param publicKey publick key which will be used for encrypting the product string by the seller. Buyer must have the corresponding private key to decrypt the message\n     */\n    function buyListing(uint itemID, string memory publicKey) public onlyAvailable(itemID) payable {\n        require (\n            msg.value == listings[itemID].askingPrice,\n            \"Sent amount should be equal to asking price !\"\n        );\n        \n\n        buyers[itemID] = msg.sender;\n\n        Listing memory item = listings[itemID];\n\n        status[itemID] = State.PENDING_DELIVERY;\n        \n        address sellerAddress = sellers[itemID];\n        PendingItem memory pendingItem = PendingItem(item.listingID, item.itemName, item.itemDescription, item.askingPrice, publicKey);\n        pendingDeliveries[sellerAddress].push(pendingItem);\n    }\n\n    /**\n     * @notice sellers can use this to get a list of products they need to deliever\n     * @return the list of products which needs to be delievered\n     */\n    function getPendingTransactions() public view returns (PendingItem[] memory) {\n        return pendingDeliveries[msg.sender];\n    }\n\n    function getNumberOfPendingTransactions() public returns (uint) {\n        return pendingDeliveries[msg.sender].length;\n    }\n\n    function getParticularPendingListing(uint idx) public view returns (PendingItem memory) {\n        return pendingDeliveries[msg.sender][idx];\n    }\n\n    /**\n     * @notice function to deliver an item. The seller must send the itemText by correctly encrypting it with the public key assosciated with that product\n     * @param itemID ID of the product which needs to be delivered\n     * @param itemText encrypted text assosicated with the product that is being delivered\n     */ \n    function delieverItem(uint itemID, string memory itemText) public onlySeller(itemID) {\n        \n        require (\n            status[itemID] == State.PENDING_DELIVERY,\n            \"This item is not in the pending delievery state.\"\n        );\n\n        \n        status[itemID] = State.DELIVERED;\n\n        uint len = pendingDeliveries[msg.sender].length;\n        for(uint i = 0; i < len; i++) {\n            if(pendingDeliveries[msg.sender][i].listingID == itemID) {\n                pendingDeliveries[msg.sender][i] = pendingDeliveries[msg.sender][len - 1];\n                delete pendingDeliveries[msg.sender][len - 1];\n                pendingDeliveries[msg.sender].length--;\n                break;\n            }\n        }\n\n        address buyerAddress = buyers[itemID];\n        Listing memory item = listings[itemID];\n        BoughtItem memory boughtItem = BoughtItem(item.listingID, item.itemName, item.itemDescription, itemText);\n\n        myItems[buyerAddress].push(boughtItem);  \n        \n        address payable sellerAddress = msg.sender;\n        sellerAddress.transfer(listings[itemID].askingPrice);\n    }\n\n    /**\n     * @notice buyers can use this function to get a list of products which they bought and that have been delievered \n     * @return list of products which have been delievered to a particular buyer\n     */\n    function getItems() public view returns (BoughtItem[] memory){\n        return myItems[msg.sender];\n    }\n}\n",
  "sourcePath": "/home/vasu0403/college/sem7/Blockchain/SmartAuction/contracts/SmartStore.sol",
  "compiler": {
    "name": "solc",
    "version": "0.5.16+commit.9c3226ce.Emscripten.clang"
  },
  "schemaVersion": "3.4.3",
  "updatedAt": "2021-10-12T07:35:47.226Z",
  "networkType": "ethereum",
  "devdoc": {
    "methods": {
      "addListing(string,string,uint256)": {
        "params": {
          "askingPrice": "price of the item to be sold",
          "itemDescription": "description of the item to be sold ",
          "itemName": "the name of the item to be sold"
        }
      },
      "buyListing(uint256,string)": {
        "details": "calling this function adds the product into the list of pending deliveries for the corresponding seller ",
        "params": {
          "itemID": "ID of the item to be bought",
          "publicKey": "publick key which will be used for encrypting the product string by the seller. Buyer must have the corresponding private key to decrypt the message"
        }
      },
      "delieverItem(uint256,string)": {
        "params": {
          "itemID": "ID of the product which needs to be delivered",
          "itemText": "encrypted text assosicated with the product that is being delivered"
        }
      },
      "getItems()": {
        "return": "list of products which have been delievered to a particular buyer"
      },
      "getListings()": {
        "return": "the list of active products"
      },
      "getPendingTransactions()": {
        "return": "the list of products which needs to be delievered"
      }
    }
  },
  "userdoc": {
    "methods": {
      "addListing(string,string,uint256)": {
        "notice": "sellers use this to add a new product they want to sell into the list of available products"
      },
      "buyListing(uint256,string)": {
        "notice": "buyers use this to buy a product which is available for sale"
      },
      "delieverItem(uint256,string)": {
        "notice": "function to deliver an item. The seller must send the itemText by correctly encrypting it with the public key assosciated with that product"
      },
      "getItems()": {
        "notice": "buyers can use this function to get a list of products which they bought and that have been delievered "
      },
      "getListings()": {
        "notice": "used to get a list of all the products which are available for sale"
      },
      "getPendingTransactions()": {
        "notice": "sellers can use this to get a list of products they need to deliever"
      }
    }
  }
}