{
  "contractName": "SmartStore",
  "abi": [
    {
      "inputs": [],
      "payable": false,
      "stateMutability": "nonpayable",
      "type": "constructor"
    },
    {
      "constant": false,
      "inputs": [
        {
          "internalType": "string",
          "name": "itemName",
          "type": "string"
        },
        {
          "internalType": "string",
          "name": "itemDescription",
          "type": "string"
        },
        {
          "internalType": "uint256",
          "name": "askingPrice",
          "type": "uint256"
        }
      ],
      "name": "addListing",
      "outputs": [],
      "payable": false,
      "stateMutability": "nonpayable",
      "type": "function"
    },
    {
      "constant": false,
      "inputs": [],
      "name": "getNumberOfListings",
      "outputs": [
        {
          "internalType": "uint256",
          "name": "",
          "type": "uint256"
        }
      ],
      "payable": false,
      "stateMutability": "nonpayable",
      "type": "function"
    },
    {
      "constant": true,
      "inputs": [
        {
          "internalType": "uint256",
          "name": "idx",
          "type": "uint256"
        }
      ],
      "name": "getParticularListing",
      "outputs": [
        {
          "components": [
            {
              "internalType": "uint256",
              "name": "listingID",
              "type": "uint256"
            },
            {
              "internalType": "string",
              "name": "itemName",
              "type": "string"
            },
            {
              "internalType": "string",
              "name": "itemDescription",
              "type": "string"
            },
            {
              "internalType": "uint256",
              "name": "askingPrice",
              "type": "uint256"
            },
            {
              "internalType": "address",
              "name": "sellerID",
              "type": "address"
            }
          ],
          "internalType": "struct SmartStore.Listing",
          "name": "",
          "type": "tuple"
        }
      ],
      "payable": false,
      "stateMutability": "view",
      "type": "function"
    },
    {
      "constant": true,
      "inputs": [
        {
          "internalType": "uint256",
          "name": "itemID",
          "type": "uint256"
        }
      ],
      "name": "getStatusOfListing",
      "outputs": [
        {
          "internalType": "bool",
          "name": "",
          "type": "bool"
        }
      ],
      "payable": false,
      "stateMutability": "view",
      "type": "function"
    },
    {
      "constant": false,
      "inputs": [
        {
          "internalType": "string",
          "name": "itemName",
          "type": "string"
        },
        {
          "internalType": "string",
          "name": "itemDescription",
          "type": "string"
        },
        {
          "internalType": "uint256",
          "name": "biddingTime",
          "type": "uint256"
        },
        {
          "internalType": "uint256",
          "name": "revealTime",
          "type": "uint256"
        },
        {
          "internalType": "string",
          "name": "method",
          "type": "string"
        }
      ],
      "name": "addAuction",
      "outputs": [],
      "payable": false,
      "stateMutability": "nonpayable",
      "type": "function"
    },
    {
      "constant": false,
      "inputs": [
        {
          "internalType": "uint256",
          "name": "auctionID",
          "type": "uint256"
        },
        {
          "internalType": "bytes32",
          "name": "_blindedBid",
          "type": "bytes32"
        },
        {
          "internalType": "string",
          "name": "publicKey",
          "type": "string"
        }
      ],
      "name": "placeBid",
      "outputs": [],
      "payable": false,
      "stateMutability": "nonpayable",
      "type": "function"
    },
    {
      "constant": false,
      "inputs": [
        {
          "internalType": "uint256",
          "name": "auctionID",
          "type": "uint256"
        },
        {
          "internalType": "uint256",
          "name": "value",
          "type": "uint256"
        },
        {
          "internalType": "bytes32",
          "name": "secret",
          "type": "bytes32"
        }
      ],
      "name": "revealBid",
      "outputs": [],
      "payable": true,
      "stateMutability": "payable",
      "type": "function"
    },
    {
      "constant": true,
      "inputs": [],
      "name": "getAuctions",
      "outputs": [
        {
          "components": [
            {
              "internalType": "uint256",
              "name": "auctionID",
              "type": "uint256"
            },
            {
              "internalType": "string",
              "name": "itemName",
              "type": "string"
            },
            {
              "internalType": "string",
              "name": "itemDescription",
              "type": "string"
            },
            {
              "internalType": "address",
              "name": "sellerId",
              "type": "address"
            },
            {
              "internalType": "uint256",
              "name": "startTime",
              "type": "uint256"
            },
            {
              "internalType": "uint256",
              "name": "biddingTime",
              "type": "uint256"
            },
            {
              "internalType": "uint256",
              "name": "revealTime",
              "type": "uint256"
            },
            {
              "internalType": "string",
              "name": "method",
              "type": "string"
            }
          ],
          "internalType": "struct SmartStore.Auction[]",
          "name": "",
          "type": "tuple[]"
        }
      ],
      "payable": false,
      "stateMutability": "view",
      "type": "function"
    },
    {
      "constant": false,
      "inputs": [
        {
          "internalType": "uint256",
          "name": "auctionID",
          "type": "uint256"
        }
      ],
      "name": "endAuction",
      "outputs": [],
      "payable": false,
      "stateMutability": "nonpayable",
      "type": "function"
    },
    {
      "constant": true,
      "inputs": [
        {
          "internalType": "uint256",
          "name": "value",
          "type": "uint256"
        },
        {
          "internalType": "bytes32",
          "name": "secret",
          "type": "bytes32"
        }
      ],
      "name": "getHash",
      "outputs": [
        {
          "internalType": "bytes32",
          "name": "",
          "type": "bytes32"
        }
      ],
      "payable": false,
      "stateMutability": "view",
      "type": "function"
    },
    {
      "constant": true,
      "inputs": [],
      "name": "getListings",
      "outputs": [
        {
          "components": [
            {
              "internalType": "uint256",
              "name": "listingID",
              "type": "uint256"
            },
            {
              "internalType": "string",
              "name": "itemName",
              "type": "string"
            },
            {
              "internalType": "string",
              "name": "itemDescription",
              "type": "string"
            },
            {
              "internalType": "uint256",
              "name": "askingPrice",
              "type": "uint256"
            },
            {
              "internalType": "address",
              "name": "sellerID",
              "type": "address"
            }
          ],
          "internalType": "struct SmartStore.Listing[]",
          "name": "",
          "type": "tuple[]"
        }
      ],
      "payable": false,
      "stateMutability": "view",
      "type": "function"
    },
    {
      "constant": false,
      "inputs": [
        {
          "internalType": "uint256",
          "name": "itemID",
          "type": "uint256"
        },
        {
          "internalType": "string",
          "name": "publicKey",
          "type": "string"
        }
      ],
      "name": "buyListing",
      "outputs": [],
      "payable": true,
      "stateMutability": "payable",
      "type": "function"
    },
    {
      "constant": true,
      "inputs": [],
      "name": "getPendingTransactions",
      "outputs": [
        {
          "components": [
            {
              "internalType": "uint256",
              "name": "listingID",
              "type": "uint256"
            },
            {
              "internalType": "string",
              "name": "itemName",
              "type": "string"
            },
            {
              "internalType": "string",
              "name": "itemDescription",
              "type": "string"
            },
            {
              "internalType": "uint256",
              "name": "askingPrice",
              "type": "uint256"
            },
            {
              "internalType": "string",
              "name": "publicKey",
              "type": "string"
            }
          ],
          "internalType": "struct SmartStore.PendingItem[]",
          "name": "",
          "type": "tuple[]"
        }
      ],
      "payable": false,
      "stateMutability": "view",
      "type": "function"
    },
    {
      "constant": false,
      "inputs": [],
      "name": "getNumberOfPendingTransactions",
      "outputs": [
        {
          "internalType": "uint256",
          "name": "",
          "type": "uint256"
        }
      ],
      "payable": false,
      "stateMutability": "nonpayable",
      "type": "function"
    },
    {
      "constant": true,
      "inputs": [
        {
          "internalType": "uint256",
          "name": "idx",
          "type": "uint256"
        }
      ],
      "name": "getParticularPendingListing",
      "outputs": [
        {
          "components": [
            {
              "internalType": "uint256",
              "name": "listingID",
              "type": "uint256"
            },
            {
              "internalType": "string",
              "name": "itemName",
              "type": "string"
            },
            {
              "internalType": "string",
              "name": "itemDescription",
              "type": "string"
            },
            {
              "internalType": "uint256",
              "name": "askingPrice",
              "type": "uint256"
            },
            {
              "internalType": "string",
              "name": "publicKey",
              "type": "string"
            }
          ],
          "internalType": "struct SmartStore.PendingItem",
          "name": "",
          "type": "tuple"
        }
      ],
      "payable": false,
      "stateMutability": "view",
      "type": "function"
    },
    {
      "constant": false,
      "inputs": [
        {
          "internalType": "uint256",
          "name": "itemID",
          "type": "uint256"
        },
        {
          "internalType": "string",
          "name": "itemText",
          "type": "string"
        }
      ],
      "name": "delieverItem",
      "outputs": [],
      "payable": false,
      "stateMutability": "nonpayable",
      "type": "function"
    },
    {
      "constant": true,
      "inputs": [],
      "name": "getItems",
      "outputs": [
        {
          "components": [
            {
              "internalType": "uint256",
              "name": "listingID",
              "type": "uint256"
            },
            {
              "internalType": "string",
              "name": "itemName",
              "type": "string"
            },
            {
              "internalType": "string",
              "name": "itemDescription",
              "type": "string"
            },
            {
              "internalType": "string",
              "name": "itemText",
              "type": "string"
            }
          ],
          "internalType": "struct SmartStore.BoughtItem[]",
          "name": "",
          "type": "tuple[]"
        }
      ],
      "payable": false,
      "stateMutability": "view",
      "type": "function"
    },
    {
      "constant": false,
      "inputs": [],
      "name": "getNumberOfItems",
      "outputs": [
        {
          "internalType": "uint256",
          "name": "",
          "type": "uint256"
        }
      ],
      "payable": false,
      "stateMutability": "nonpayable",
      "type": "function"
    },
    {
      "constant": true,
      "inputs": [
        {
          "internalType": "uint256",
          "name": "idx",
          "type": "uint256"
        }
      ],
      "name": "getParticularOrderItem",
      "outputs": [
        {
          "components": [
            {
              "internalType": "uint256",
              "name": "listingID",
              "type": "uint256"
            },
            {
              "internalType": "string",
              "name": "itemName",
              "type": "string"
            },
            {
              "internalType": "string",
              "name": "itemDescription",
              "type": "string"
            },
            {
              "internalType": "string",
              "name": "itemText",
              "type": "string"
            }
          ],
          "internalType": "struct SmartStore.BoughtItem",
          "name": "",
          "type": "tuple"
        }
      ],
      "payable": false,
      "stateMutability": "view",
      "type": "function"
    }
  ],
  "bytecode": "0x608060405260006009556000600a5534801561001a57600080fd5b50615d0e8061002a6000396000f3fe6080604052600436106200012e5760003560e01c8063759652d211620000af578063cf59df3d116200006d578063cf59df3d14620003e5578063d11db83f1462000429578063d7c069191462000459578063e51cbbf91462000489578063f1b2d6a314620004cd576200012e565b8063759652d214620002d15780639c02f56f1462000315578063affe94271462000359578063b9a2de3a1462000389578063c6209edf14620003b7576200012e565b80632fd0957611620000fd5780632fd0957614620001df5780633fb7de9e146200020d578063410d59cc14620002515780634d380a0d1462000281578063730ef26914620002a1576200012e565b8063017f47ff146200013357806310e822fd1462000163578063298c154e14620001835780632c57f1ea14620001b1575b600080fd5b3480156200014057600080fd5b506200014b620004fd565b6040516200015a91906200493f565b60405180910390f35b6200018160048036036200017b919081019062003d6e565b62000546565b005b3480156200019057600080fd5b50620001af6004803603620001a9919081019062003b11565b62000a31565b005b348015620001be57600080fd5b50620001dd6004803603620001d7919081019062003d6e565b62000bea565b005b348015620001ec57600080fd5b506200020b600480360362000205919081019062003cff565b62001466565b005b3480156200021a57600080fd5b5062000239600480360362000233919081019062003c66565b62001511565b60405162000248919062004811565b60405180910390f35b3480156200025e57600080fd5b506200026962001569565b604051620002789190620047a5565b60405180910390f35b6200029f600480360362000299919081019062003dc8565b62001803565b005b348015620002ae57600080fd5b50620002b962001923565b604051620002c891906200493f565b60405180910390f35b348015620002de57600080fd5b50620002fd6004803603620002f7919081019062003c66565b6200196d565b6040516200030c91906200491b565b60405180910390f35b3480156200032257600080fd5b506200034160048036036200033b919081019062003c66565b62001be7565b604051620003509190620048d3565b60405180910390f35b3480156200036657600080fd5b506200037162001e58565b6040516200038091906200493f565b60405180910390f35b3480156200039657600080fd5b50620003b56004803603620003af919081019062003c66565b62001e65565b005b348015620003c457600080fd5b50620003e36004803603620003dd919081019062003b99565b62002677565b005b348015620003f257600080fd5b506200041160048036036200040b919081019062003cbe565b62002908565b6040516200042091906200482e565b60405180910390f35b3480156200043657600080fd5b506200044162002942565b604051620004509190620047ed565b60405180910390f35b3480156200046657600080fd5b506200047162002be5565b60405162000480919062004781565b60405180910390f35b3480156200049657600080fd5b50620004b56004803603620004af919081019062003c66565b6200301f565b604051620004c49190620048f7565b60405180910390f35b348015620004da57600080fd5b50620004e56200320d565b604051620004f49190620047c9565b60405180910390f35b60008060003373ffffffffffffffffffffffffffffffffffffffff1673ffffffffffffffffffffffffffffffffffffffff16815260200190815260200160002080549050905090565b81600160038111156200055557fe5b6003600083815260200190815260200160002060009054906101000a900460ff1660038111156200058257fe5b14620005c5576040517f08c379a0000000000000000000000000000000000000000000000000000000008152600401620005bc906200488f565b60405180910390fd5b620005cf6200357e565b60008090505b600780549050811015620007fe578460078281548110620005f257fe5b9060005260206000209060050201600001541415620007f057600781815481106200061957fe5b90600052602060002090600502016040518060a001604052908160008201548152602001600182018054600181600116156101000203166002900480601f016020809104026020016040519081016040528092919081815260200182805460018160011615610100020316600290048015620006d95780601f10620006ad57610100808354040283529160200191620006d9565b820191906000526020600020905b815481529060010190602001808311620006bb57829003601f168201915b50505050508152602001600282018054600181600116156101000203166002900480601f0160208091040260200160405190810160405280929190818152602001828054600181600116156101000203166002900480156200077f5780601f1062000753576101008083540402835291602001916200077f565b820191906000526020600020905b8154815290600101906020018083116200076157829003601f168201915b50505050508152602001600382015481526020016004820160009054906101000a900473ffffffffffffffffffffffffffffffffffffffff1673ffffffffffffffffffffffffffffffffffffffff1673ffffffffffffffffffffffffffffffffffffffff16815250509150620007fe565b8080600101915050620005d5565b508060600151341462000848576040517f08c379a00000000000000000000000000000000000000000000000000000000081526004016200083f90620048b1565b60405180910390fd5b336002600086815260200190815260200160002060006101000a81548173ffffffffffffffffffffffffffffffffffffffff021916908373ffffffffffffffffffffffffffffffffffffffff16021790555060026003600086815260200190815260200160002060006101000a81548160ff02191690836003811115620008cb57fe5b021790555060006001600086815260200190815260200160002060009054906101000a900473ffffffffffffffffffffffffffffffffffffffff16905062000912620035c3565b6040518060a00160405280846000015181526020018460200151815260200184604001518152602001846060015181526020018681525090506000808373ffffffffffffffffffffffffffffffffffffffff1673ffffffffffffffffffffffffffffffffffffffff1681526020019081526020016000208190806001815401808255809150509060018203906000526020600020906005020160009091929091909150600082015181600001556020820151816001019080519060200190620009dd929190620035f2565b506040820151816002019080519060200190620009fc929190620035f2565b5060608201518160030155608082015181600401908051906020019062000a25929190620035f2565b50505050505050505050565b62000a3b6200357e565b6040518060a0016040528060095481526020018581526020018481526020018381526020013373ffffffffffffffffffffffffffffffffffffffff1681525090503360016000600954815260200190815260200160002060006101000a81548173ffffffffffffffffffffffffffffffffffffffff021916908373ffffffffffffffffffffffffffffffffffffffff160217905550600160036000600954815260200190815260200160002060006101000a81548160ff0219169083600381111562000b0357fe5b02179055506007819080600181540180825580915050906001820390600052602060002090600502016000909192909190915060008201518160000155602082015181600101908051906020019062000b5e929190620035f2565b50604082015181600201908051906020019062000b7d929190620035f2565b506060820151816003015560808201518160040160006101000a81548173ffffffffffffffffffffffffffffffffffffffff021916908373ffffffffffffffffffffffffffffffffffffffff16021790555050505060096000815480929190600101919050555050505050565b813373ffffffffffffffffffffffffffffffffffffffff166001600083815260200190815260200160002060009054906101000a900473ffffffffffffffffffffffffffffffffffffffff1673ffffffffffffffffffffffffffffffffffffffff161462000c8f576040517f08c379a000000000000000000000000000000000000000000000000000000000815260040162000c86906200486d565b60405180910390fd5b6002600381111562000c9d57fe5b6003600085815260200190815260200160002060009054906101000a900460ff16600381111562000cca57fe5b1462000d0d576040517f08c379a000000000000000000000000000000000000000000000000000000000815260040162000d04906200484b565b60405180910390fd5b600380600085815260200190815260200160002060006101000a81548160ff0219169083600381111562000d3d57fe5b021790555060008060003373ffffffffffffffffffffffffffffffffffffffff1673ffffffffffffffffffffffffffffffffffffffff16815260200190815260200160002080549050905062000d92620035c3565b60008090505b82811015620012c457856000803373ffffffffffffffffffffffffffffffffffffffff1673ffffffffffffffffffffffffffffffffffffffff168152602001908152602001600020828154811062000dec57fe5b9060005260206000209060050201600001541415620012b6576000803373ffffffffffffffffffffffffffffffffffffffff1673ffffffffffffffffffffffffffffffffffffffff168152602001908152602001600020818154811062000e4f57fe5b90600052602060002090600502016040518060a001604052908160008201548152602001600182018054600181600116156101000203166002900480601f01602080910402602001604051908101604052809291908181526020018280546001816001161561010002031660029004801562000f0f5780601f1062000ee35761010080835404028352916020019162000f0f565b820191906000526020600020905b81548152906001019060200180831162000ef157829003601f168201915b50505050508152602001600282018054600181600116156101000203166002900480601f01602080910402602001604051908101604052809291908181526020018280546001816001161561010002031660029004801562000fb55780601f1062000f895761010080835404028352916020019162000fb5565b820191906000526020600020905b81548152906001019060200180831162000f9757829003601f168201915b5050505050815260200160038201548152602001600482018054600181600116156101000203166002900480601f016020809104026020016040519081016040528092919081815260200182805460018160011615610100020316600290048015620010655780601f10620010395761010080835404028352916020019162001065565b820191906000526020600020905b8154815290600101906020018083116200104757829003601f168201915b50505050508152505091506000803373ffffffffffffffffffffffffffffffffffffffff1673ffffffffffffffffffffffffffffffffffffffff1681526020019081526020016000206001840381548110620010bd57fe5b90600052602060002090600502016000803373ffffffffffffffffffffffffffffffffffffffff1673ffffffffffffffffffffffffffffffffffffffff16815260200190815260200160002082815481106200111557fe5b906000526020600020906005020160008201548160000155600182018160010190805460018160011615610100020316600290046200115692919062003679565b50600282018160020190805460018160011615610100020316600290046200118092919062003679565b506003820154816003015560048201816004019080546001816001161561010002031660029004620011b492919062003679565b509050506000803373ffffffffffffffffffffffffffffffffffffffff1673ffffffffffffffffffffffffffffffffffffffff16815260200190815260200160002060018403815481106200120557fe5b90600052602060002090600502016000808201600090556001820160006200122e919062003707565b60028201600062001240919062003707565b60038201600090556004820160006200125a919062003707565b50506000803373ffffffffffffffffffffffffffffffffffffffff1673ffffffffffffffffffffffffffffffffffffffff168152602001908152602001600020805480919060019003620012af919062003753565b50620012c4565b808060010191505062000d98565b5060006002600087815260200190815260200160002060009054906101000a900473ffffffffffffffffffffffffffffffffffffffff1690506200130762003788565b6040518060800160405280846000015181526020018460200151815260200184604001518152602001878152509050600460008373ffffffffffffffffffffffffffffffffffffffff1673ffffffffffffffffffffffffffffffffffffffff1681526020019081526020016000208190806001815401808255809150509060018203906000526020600020906004020160009091929091909150600082015181600001556020820151816001019080519060200190620013c9929190620035f2565b506040820151816002019080519060200190620013e8929190620035f2565b50606082015181600301908051906020019062001407929190620035f2565b5050505060003390508073ffffffffffffffffffffffffffffffffffffffff166108fc85606001519081150290604051600060405180830381858888f193505050501580156200145b573d6000803e3d6000fd5b505050505050505050565b6005600084815260200190815260200160002060009054906101000a900473ffffffffffffffffffffffffffffffffffffffff1673ffffffffffffffffffffffffffffffffffffffff1663f8a50ac93384846040518463ffffffff1660e01b8152600401620014d8939291906200473d565b600060405180830381600087803b158015620014f357600080fd5b505af115801562001508573d6000803e3d6000fd5b50505050505050565b6000600160038111156200152157fe5b6003600084815260200190815260200160002060009054906101000a900460ff1660038111156200154e57fe5b14156200155f576001905062001564565b600090505b919050565b6060600460003373ffffffffffffffffffffffffffffffffffffffff1673ffffffffffffffffffffffffffffffffffffffff168152602001908152602001600020805480602002602001604051908101604052809291908181526020016000905b82821015620017fa578382906000526020600020906004020160405180608001604052908160008201548152602001600182018054600181600116156101000203166002900480601f016020809104026020016040519081016040528092919081815260200182805460018160011615610100020316600290048015620016955780601f10620016695761010080835404028352916020019162001695565b820191906000526020600020905b8154815290600101906020018083116200167757829003601f168201915b50505050508152602001600282018054600181600116156101000203166002900480601f0160208091040260200160405190810160405280929190818152602001828054600181600116156101000203166002900480156200173b5780601f106200170f576101008083540402835291602001916200173b565b820191906000526020600020905b8154815290600101906020018083116200171d57829003601f168201915b50505050508152602001600382018054600181600116156101000203166002900480601f016020809104026020016040519081016040528092919081815260200182805460018160011615610100020316600290048015620017e15780601f10620017b557610100808354040283529160200191620017e1565b820191906000526020600020905b815481529060010190602001808311620017c357829003601f168201915b50505050508152505081526020019060010190620015ca565b50505050905090565b60006005600085815260200190815260200160002060009054906101000a900473ffffffffffffffffffffffffffffffffffffffff1673ffffffffffffffffffffffffffffffffffffffff1663c92fb1b88484336040518463ffffffff1660e01b815260040162001877939291906200495c565b602060405180830381600087803b1580156200189257600080fd5b505af1158015620018a7573d6000803e3d6000fd5b505050506040513d601f19601f82011682018060405250620018cd919081019062003c92565b905060003390508073ffffffffffffffffffffffffffffffffffffffff166108fc839081150290604051600060405180830381858888f193505050501580156200191b573d6000803e3d6000fd5b505050505050565b6000600460003373ffffffffffffffffffffffffffffffffffffffff1673ffffffffffffffffffffffffffffffffffffffff16815260200190815260200160002080549050905090565b62001977620035c3565b6000803373ffffffffffffffffffffffffffffffffffffffff1673ffffffffffffffffffffffffffffffffffffffff1681526020019081526020016000208281548110620019c157fe5b90600052602060002090600502016040518060a001604052908160008201548152602001600182018054600181600116156101000203166002900480601f01602080910402602001604051908101604052809291908181526020018280546001816001161561010002031660029004801562001a815780601f1062001a555761010080835404028352916020019162001a81565b820191906000526020600020905b81548152906001019060200180831162001a6357829003601f168201915b50505050508152602001600282018054600181600116156101000203166002900480601f01602080910402602001604051908101604052809291908181526020018280546001816001161561010002031660029004801562001b275780601f1062001afb5761010080835404028352916020019162001b27565b820191906000526020600020905b81548152906001019060200180831162001b0957829003601f168201915b5050505050815260200160038201548152602001600482018054600181600116156101000203166002900480601f01602080910402602001604051908101604052809291908181526020018280546001816001161561010002031660029004801562001bd75780601f1062001bab5761010080835404028352916020019162001bd7565b820191906000526020600020905b81548152906001019060200180831162001bb957829003601f168201915b5050505050815250509050919050565b62001bf162003788565b600460003373ffffffffffffffffffffffffffffffffffffffff1673ffffffffffffffffffffffffffffffffffffffff168152602001908152602001600020828154811062001c3c57fe5b906000526020600020906004020160405180608001604052908160008201548152602001600182018054600181600116156101000203166002900480601f01602080910402602001604051908101604052809291908181526020018280546001816001161561010002031660029004801562001cfc5780601f1062001cd05761010080835404028352916020019162001cfc565b820191906000526020600020905b81548152906001019060200180831162001cde57829003601f168201915b50505050508152602001600282018054600181600116156101000203166002900480601f01602080910402602001604051908101604052809291908181526020018280546001816001161561010002031660029004801562001da25780601f1062001d765761010080835404028352916020019162001da2565b820191906000526020600020905b81548152906001019060200180831162001d8457829003601f168201915b50505050508152602001600382018054600181600116156101000203166002900480601f01602080910402602001604051908101604052809291908181526020018280546001816001161561010002031660029004801562001e485780601f1062001e1c5761010080835404028352916020019162001e48565b820191906000526020600020905b81548152906001019060200180831162001e2a57829003601f168201915b5050505050815250509050919050565b6000600780549050905090565b6001600381111562001e7357fe5b6006600083815260200190815260200160002060009054906101000a900460ff16600381111562001ea057fe5b1462001eac5762002674565b6005600082815260200190815260200160002060009054906101000a900473ffffffffffffffffffffffffffffffffffffffff1673ffffffffffffffffffffffffffffffffffffffff1663abf3969e6040518163ffffffff1660e01b8152600401602060405180830381600087803b15801562001f2857600080fd5b505af115801562001f3d573d6000803e3d6000fd5b505050506040513d601f19601f8201168201806040525062001f63919081019062003aa0565b15620026735760026006600083815260200190815260200160002060006101000a81548160ff0219169083600381111562001f9a57fe5b021790555060006005600083815260200190815260200160002060009054906101000a900473ffffffffffffffffffffffffffffffffffffffff1673ffffffffffffffffffffffffffffffffffffffff1663dfbf53ae6040518163ffffffff1660e01b815260040160206040518083038186803b1580156200201b57600080fd5b505afa15801562002030573d6000803e3d6000fd5b505050506040513d601f19601f8201168201806040525062002056919081019062003a74565b905060006005600084815260200190815260200160002060009054906101000a900473ffffffffffffffffffffffffffffffffffffffff1673ffffffffffffffffffffffffffffffffffffffff16638cf804386040518163ffffffff1660e01b815260040160206040518083038186803b158015620020d457600080fd5b505afa158015620020e9573d6000803e3d6000fd5b505050506040513d601f19601f820116820180604052506200210f919081019062003c92565b905060606005600085815260200190815260200160002060009054906101000a900473ffffffffffffffffffffffffffffffffffffffff1673ffffffffffffffffffffffffffffffffffffffff1663a058bfd26040518163ffffffff1660e01b815260040160006040518083038186803b1580156200218d57600080fd5b505afa158015620021a2573d6000803e3d6000fd5b505050506040513d6000823e3d601f19601f82011682018060405250620021cd919081019062003acc565b9050826002600086815260200190815260200160002060006101000a81548173ffffffffffffffffffffffffffffffffffffffff021916908373ffffffffffffffffffffffffffffffffffffffff1602179055506200222b620037b0565b60026003600087815260200190815260200160002060006101000a81548160ff021916908360038111156200225c57fe5b021790555060008090505b6008805490508110156200254b57600881815481106200228357fe5b9060005260206000209060080201600001548614156200253d5760088181548110620022ab57fe5b90600052602060002090600802016040518061010001604052908160008201548152602001600182018054600181600116156101000203166002900480601f0160208091040260200160405190810160405280929190818152602001828054600181600116156101000203166002900480156200236c5780601f1062002340576101008083540402835291602001916200236c565b820191906000526020600020905b8154815290600101906020018083116200234e57829003601f168201915b50505050508152602001600282018054600181600116156101000203166002900480601f016020809104026020016040519081016040528092919081815260200182805460018160011615610100020316600290048015620024125780601f10620023e65761010080835404028352916020019162002412565b820191906000526020600020905b815481529060010190602001808311620023f457829003601f168201915b505050505081526020016003820160009054906101000a900473ffffffffffffffffffffffffffffffffffffffff1673ffffffffffffffffffffffffffffffffffffffff1673ffffffffffffffffffffffffffffffffffffffff168152602001600482015481526020016005820154815260200160068201548152602001600782018054600181600116156101000203166002900480601f0160208091040260200160405190810160405280929190818152602001828054600181600116156101000203166002900480156200252c5780601f1062002500576101008083540402835291602001916200252c565b820191906000526020600020905b8154815290600101906020018083116200250e57829003601f168201915b50505050508152505091506200254b565b808060010191505062002267565b5062002556620035c3565b6040518060a00160405280836000015181526020018360200151815260200183604001518152602001858152602001848152509050600080836060015173ffffffffffffffffffffffffffffffffffffffff1673ffffffffffffffffffffffffffffffffffffffff168152602001908152602001600020819080600181540180825580915050906001820390600052602060002090600502016000909192909190915060008201518160000155602082015181600101908051906020019062002621929190620035f2565b50604082015181600201908051906020019062002640929190620035f2565b5060608201518160030155608082015181600401908051906020019062002669929190620035f2565b5050505050505050505b5b50565b62002681620037b0565b60405180610100016040528060095481526020018781526020018681526020013373ffffffffffffffffffffffffffffffffffffffff168152602001428152602001858152602001848152602001838152509050600881908060018154018082558091505090600182039060005260206000209060080201600090919290919091506000820151816000015560208201518160010190805190602001906200272b929190620035f2565b5060408201518160020190805190602001906200274a929190620035f2565b5060608201518160030160006101000a81548173ffffffffffffffffffffffffffffffffffffffff021916908373ffffffffffffffffffffffffffffffffffffffff1602179055506080820151816004015560a0820151816005015560c0820151816006015560e0820151816007019080519060200190620027ce929190620035f2565b50505050838333604051620027e3906200380b565b620027f19392919062004999565b604051809103906000f0801580156200280e573d6000803e3d6000fd5b5060056000600954815260200190815260200160002060006101000a81548173ffffffffffffffffffffffffffffffffffffffff021916908373ffffffffffffffffffffffffffffffffffffffff1602179055503360016000600954815260200190815260200160002060006101000a81548173ffffffffffffffffffffffffffffffffffffffff021916908373ffffffffffffffffffffffffffffffffffffffff160217905550600160066000600954815260200190815260200160002060006101000a81548160ff02191690836003811115620028e957fe5b0217905550600960008154809291906001019190505550505050505050565b6000808383604051602001620029209291906200470d565b6040516020818303038152906040528051906020012090508091505092915050565b60606000803373ffffffffffffffffffffffffffffffffffffffff1673ffffffffffffffffffffffffffffffffffffffff168152602001908152602001600020805480602002602001604051908101604052809291908181526020016000905b8282101562002bdc57838290600052602060002090600502016040518060a001604052908160008201548152602001600182018054600181600116156101000203166002900480601f01602080910402602001604051908101604052809291908181526020018280546001816001161561010002031660029004801562002a6d5780601f1062002a415761010080835404028352916020019162002a6d565b820191906000526020600020905b81548152906001019060200180831162002a4f57829003601f168201915b50505050508152602001600282018054600181600116156101000203166002900480601f01602080910402602001604051908101604052809291908181526020018280546001816001161561010002031660029004801562002b135780601f1062002ae75761010080835404028352916020019162002b13565b820191906000526020600020905b81548152906001019060200180831162002af557829003601f168201915b5050505050815260200160038201548152602001600482018054600181600116156101000203166002900480601f01602080910402602001604051908101604052809291908181526020018280546001816001161561010002031660029004801562002bc35780601f1062002b975761010080835404028352916020019162002bc3565b820191906000526020600020905b81548152906001019060200180831162002ba557829003601f168201915b50505050508152505081526020019060010190620029a2565b50505050905090565b6060600080905060008090505b60088054905081101562002c855760006008828154811062002c1057fe5b90600052602060002090600802016000015490506008828154811062002c3257fe5b9060005260206000209060080201600501546008838154811062002c5257fe5b9060005260206000209060080201600401540142101562002c765782806001019350505b50808060010191505062002bf2565b5060608160405190808252806020026020018201604052801562002cc657816020015b62002cb262003819565b81526020019060019003908162002ca85790505b509050600080905060008090505b600880549050811015620030155760006008828154811062002cf257fe5b90600052602060002090600802016000015490506008828154811062002d1457fe5b9060005260206000209060080201600501546008838154811062002d3457fe5b9060005260206000209060080201600401540142101562003006576008828154811062002d5d57fe5b90600052602060002090600802016040518061010001604052908160008201548152602001600182018054600181600116156101000203166002900480601f01602080910402602001604051908101604052809291908181526020018280546001816001161561010002031660029004801562002e1e5780601f1062002df25761010080835404028352916020019162002e1e565b820191906000526020600020905b81548152906001019060200180831162002e0057829003601f168201915b50505050508152602001600282018054600181600116156101000203166002900480601f01602080910402602001604051908101604052809291908181526020018280546001816001161561010002031660029004801562002ec45780601f1062002e985761010080835404028352916020019162002ec4565b820191906000526020600020905b81548152906001019060200180831162002ea657829003601f168201915b505050505081526020016003820160009054906101000a900473ffffffffffffffffffffffffffffffffffffffff1673ffffffffffffffffffffffffffffffffffffffff1673ffffffffffffffffffffffffffffffffffffffff168152602001600482015481526020016005820154815260200160068201548152602001600782018054600181600116156101000203166002900480601f01602080910402602001604051908101604052809291908181526020018280546001816001161561010002031660029004801562002fde5780601f1062002fb25761010080835404028352916020019162002fde565b820191906000526020600020905b81548152906001019060200180831162002fc057829003601f168201915b50505050508152505084848060010195508151811062002ffa57fe5b60200260200101819052505b50808060010191505062002cd4565b5081935050505090565b620030296200357e565b600782815481106200303757fe5b90600052602060002090600502016040518060a001604052908160008201548152602001600182018054600181600116156101000203166002900480601f016020809104026020016040519081016040528092919081815260200182805460018160011615610100020316600290048015620030f75780601f10620030cb57610100808354040283529160200191620030f7565b820191906000526020600020905b815481529060010190602001808311620030d957829003601f168201915b50505050508152602001600282018054600181600116156101000203166002900480601f0160208091040260200160405190810160405280929190818152602001828054600181600116156101000203166002900480156200319d5780601f1062003171576101008083540402835291602001916200319d565b820191906000526020600020905b8154815290600101906020018083116200317f57829003601f168201915b50505050508152602001600382015481526020016004820160009054906101000a900473ffffffffffffffffffffffffffffffffffffffff1673ffffffffffffffffffffffffffffffffffffffff1673ffffffffffffffffffffffffffffffffffffffff16815250509050919050565b6060600080905060008090505b600780549050811015620032a6576000600782815481106200323857fe5b9060005260206000209060050201600001549050600160038111156200325a57fe5b6003600083815260200190815260200160002060009054906101000a900460ff1660038111156200328757fe5b1415620032975782806001019350505b5080806001019150506200321a565b50606081604051908082528060200260200182016040528015620032e757816020015b620032d362003874565b815260200190600190039081620032c95790505b509050600080905060008090505b60078054905081101562003574576000600782815481106200331357fe5b9060005260206000209060050201600001549050600160038111156200333557fe5b6003600083815260200190815260200160002060009054906101000a900460ff1660038111156200336257fe5b14156200356557600782815481106200337757fe5b90600052602060002090600502016040518060a001604052908160008201548152602001600182018054600181600116156101000203166002900480601f016020809104026020016040519081016040528092919081815260200182805460018160011615610100020316600290048015620034375780601f106200340b5761010080835404028352916020019162003437565b820191906000526020600020905b8154815290600101906020018083116200341957829003601f168201915b50505050508152602001600282018054600181600116156101000203166002900480601f016020809104026020016040519081016040528092919081815260200182805460018160011615610100020316600290048015620034dd5780601f10620034b157610100808354040283529160200191620034dd565b820191906000526020600020905b815481529060010190602001808311620034bf57829003601f168201915b50505050508152602001600382015481526020016004820160009054906101000a900473ffffffffffffffffffffffffffffffffffffffff1673ffffffffffffffffffffffffffffffffffffffff1673ffffffffffffffffffffffffffffffffffffffff16815250508484806001019550815181106200355957fe5b60200260200101819052505b508080600101915050620032f5565b5081935050505090565b6040518060a0016040528060008152602001606081526020016060815260200160008152602001600073ffffffffffffffffffffffffffffffffffffffff1681525090565b6040518060a0016040528060008152602001606081526020016060815260200160008152602001606081525090565b828054600181600116156101000203166002900490600052602060002090601f016020900481019282601f106200363557805160ff191683800117855562003666565b8280016001018555821562003666579182015b828111156200366557825182559160200191906001019062003648565b5b509050620036759190620038b9565b5090565b828054600181600116156101000203166002900490600052602060002090601f016020900481019282601f10620036b45780548555620036f4565b82800160010185558215620036f457600052602060002091601f016020900482015b82811115620036f3578254825591600101919060010190620036d6565b5b509050620037039190620038b9565b5090565b50805460018160011615610100020316600290046000825580601f106200372f575062003750565b601f0160209004906000526020600020908101906200374f9190620038b9565b5b50565b8154818355818111156200378357600502816005028360005260206000209182019101620037829190620038e1565b5b505050565b6040518060800160405280600081526020016060815260200160608152602001606081525090565b604051806101000160405280600081526020016060815260200160608152602001600073ffffffffffffffffffffffffffffffffffffffff168152602001600081526020016000815260200160008152602001606081525090565b610fdb8062004cf183390190565b604051806101000160405280600081526020016060815260200160608152602001600073ffffffffffffffffffffffffffffffffffffffff168152602001600081526020016000815260200160008152602001606081525090565b6040518060a0016040528060008152602001606081526020016060815260200160008152602001600073ffffffffffffffffffffffffffffffffffffffff1681525090565b620038de91905b80821115620038da576000816000905550600101620038c0565b5090565b90565b6200394691905b8082111562003942576000808201600090556001820160006200390c919062003707565b6002820160006200391e919062003707565b600382016000905560048201600062003938919062003707565b50600501620038e8565b5090565b90565b6000815190506200395a8162004c88565b92915050565b600081519050620039718162004ca2565b92915050565b600081359050620039888162004cbc565b92915050565b600082601f830112620039a057600080fd5b8151620039b7620039b18262004a04565b620049d6565b91508082526020830160208301858383011115620039d457600080fd5b620039e183828462004c2d565b50505092915050565b600082601f830112620039fc57600080fd5b813562003a1362003a0d8262004a31565b620049d6565b9150808252602083016020830185838301111562003a3057600080fd5b62003a3d83828462004c1e565b50505092915050565b60008135905062003a578162004cd6565b92915050565b60008151905062003a6e8162004cd6565b92915050565b60006020828403121562003a8757600080fd5b600062003a978482850162003949565b91505092915050565b60006020828403121562003ab357600080fd5b600062003ac38482850162003960565b91505092915050565b60006020828403121562003adf57600080fd5b600082015167ffffffffffffffff81111562003afa57600080fd5b62003b08848285016200398e565b91505092915050565b60008060006060848603121562003b2757600080fd5b600084013567ffffffffffffffff81111562003b4257600080fd5b62003b5086828701620039ea565b935050602084013567ffffffffffffffff81111562003b6e57600080fd5b62003b7c86828701620039ea565b925050604062003b8f8682870162003a46565b9150509250925092565b600080600080600060a0868803121562003bb257600080fd5b600086013567ffffffffffffffff81111562003bcd57600080fd5b62003bdb88828901620039ea565b955050602086013567ffffffffffffffff81111562003bf957600080fd5b62003c0788828901620039ea565b945050604062003c1a8882890162003a46565b935050606062003c2d8882890162003a46565b925050608086013567ffffffffffffffff81111562003c4b57600080fd5b62003c5988828901620039ea565b9150509295509295909350565b60006020828403121562003c7957600080fd5b600062003c898482850162003a46565b91505092915050565b60006020828403121562003ca557600080fd5b600062003cb58482850162003a5d565b91505092915050565b6000806040838503121562003cd257600080fd5b600062003ce28582860162003a46565b925050602062003cf58582860162003977565b9150509250929050565b60008060006060848603121562003d1557600080fd5b600062003d258682870162003a46565b935050602062003d388682870162003977565b925050604084013567ffffffffffffffff81111562003d5657600080fd5b62003d6486828701620039ea565b9150509250925092565b6000806040838503121562003d8257600080fd5b600062003d928582860162003a46565b925050602083013567ffffffffffffffff81111562003db057600080fd5b62003dbe85828601620039ea565b9150509250929050565b60008060006060848603121562003dde57600080fd5b600062003dee8682870162003a46565b935050602062003e018682870162003a46565b925050604062003e148682870162003977565b9150509250925092565b600062003e2c8383620042e6565b905092915050565b600062003e4283836200442d565b905092915050565b600062003e5883836200452d565b905092915050565b600062003e6e838362004642565b905092915050565b62003e818162004be2565b82525050565b62003e928162004b8e565b82525050565b62003ea38162004b7a565b82525050565b600062003eb68262004a9e565b62003ec2818562004b14565b93508360208202850162003ed68562004a5e565b8060005b8581101562003f18578484038952815162003ef6858262003e1e565b945062003f038362004ae0565b925060208a0199505060018101905062003eda565b50829750879550505050505092915050565b600062003f378262004aa9565b62003f43818562004b25565b93508360208202850162003f578562004a6e565b8060005b8581101562003f99578484038952815162003f77858262003e34565b945062003f848362004aed565b925060208a0199505060018101905062003f5b565b50829750879550505050505092915050565b600062003fb88262004ab4565b62003fc4818562004b36565b93508360208202850162003fd88562004a7e565b8060005b858110156200401a578484038952815162003ff8858262003e4a565b9450620040058362004afa565b925060208a0199505060018101905062003fdc565b50829750879550505050505092915050565b6000620040398262004abf565b62004045818562004b47565b935083602082028501620040598562004a8e565b8060005b858110156200409b578484038952815162004079858262003e60565b9450620040868362004b07565b925060208a019950506001810190506200405d565b50829750879550505050505092915050565b620040b88162004ba2565b82525050565b620040c98162004bae565b82525050565b620040e4620040de8262004bae565b62004c63565b82525050565b6000620040f78262004ad5565b62004103818562004b69565b93506200411581856020860162004c2d565b620041208162004c77565b840191505092915050565b6000620041388262004aca565b62004144818562004b58565b93506200415681856020860162004c2d565b620041618162004c77565b840191505092915050565b60006200417b60308362004b69565b91507f54686973206974656d206973206e6f7420696e207468652070656e64696e672060008301527f64656c6965766572792073746174652e000000000000000000000000000000006020830152604082019050919050565b6000620041e360248362004b69565b91507f596f7520617265206e6f74207468652073656c6c6572206f662074686973206960008301527f74656d2e000000000000000000000000000000000000000000000000000000006020830152604082019050919050565b60006200424b60138362004b69565b91507f4974656d206e6f7420617661696c61626c652e000000000000000000000000006000830152602082019050919050565b60006200428d602d8362004b69565b91507f53656e7420616d6f756e742073686f756c6420626520657175616c20746f206160008301527f736b696e672070726963652021000000000000000000000000000000000000006020830152604082019050919050565b600061010083016000830151620043016000860182620046d0565b50602083015184820360208601526200431b82826200412b565b915050604083015184820360408601526200433782826200412b565b91505060608301516200434e606086018262003e98565b506080830151620043636080860182620046d0565b5060a08301516200437860a0860182620046d0565b5060c08301516200438d60c0860182620046d0565b5060e083015184820360e0860152620043a782826200412b565b9150508091505092915050565b6000608083016000830151620043ce6000860182620046d0565b5060208301518482036020860152620043e882826200412b565b915050604083015184820360408601526200440482826200412b565b915050606083015184820360608601526200442082826200412b565b9150508091505092915050565b6000608083016000830151620044476000860182620046d0565b50602083015184820360208601526200446182826200412b565b915050604083015184820360408601526200447d82826200412b565b915050606083015184820360608601526200449982826200412b565b9150508091505092915050565b600060a083016000830151620044c06000860182620046d0565b5060208301518482036020860152620044da82826200412b565b91505060408301518482036040860152620044f682826200412b565b91505060608301516200450d6060860182620046d0565b50608083015162004522608086018262003e98565b508091505092915050565b600060a083016000830151620045476000860182620046d0565b50602083015184820360208601526200456182826200412b565b915050604083015184820360408601526200457d82826200412b565b9150506060830151620045946060860182620046d0565b506080830151620045a9608086018262003e98565b508091505092915050565b600060a083016000830151620045ce6000860182620046d0565b5060208301518482036020860152620045e882826200412b565b915050604083015184820360408601526200460482826200412b565b91505060608301516200461b6060860182620046d0565b50608083015184820360808601526200463582826200412b565b9150508091505092915050565b600060a0830160008301516200465c6000860182620046d0565b50602083015184820360208601526200467682826200412b565b915050604083015184820360408601526200469282826200412b565b9150506060830151620046a96060860182620046d0565b5060808301518482036080860152620046c382826200412b565b9150508091505092915050565b620046db8162004bd8565b82525050565b620046ec8162004bd8565b82525050565b62004707620047018262004bd8565b62004c6d565b82525050565b60006200471b8285620046f2565b6020820191506200472d8284620040cf565b6020820191508190509392505050565b600060608201905062004754600083018662003e76565b620047636020830185620040be565b8181036040830152620047778184620040ea565b9050949350505050565b600060208201905081810360008301526200479d818462003ea9565b905092915050565b60006020820190508181036000830152620047c1818462003f2a565b905092915050565b60006020820190508181036000830152620047e5818462003fab565b905092915050565b600060208201905081810360008301526200480981846200402c565b905092915050565b6000602082019050620048286000830184620040ad565b92915050565b6000602082019050620048456000830184620040be565b92915050565b6000602082019050818103600083015262004866816200416c565b9050919050565b600060208201905081810360008301526200488881620041d4565b9050919050565b60006020820190508181036000830152620048aa816200423c565b9050919050565b60006020820190508181036000830152620048cc816200427e565b9050919050565b60006020820190508181036000830152620048ef8184620043b4565b905092915050565b60006020820190508181036000830152620049138184620044a6565b905092915050565b60006020820190508181036000830152620049378184620045b4565b905092915050565b6000602082019050620049566000830184620046e1565b92915050565b6000606082019050620049736000830186620046e1565b620049826020830185620040be565b62004991604083018462003e76565b949350505050565b6000606082019050620049b06000830186620046e1565b620049bf6020830185620046e1565b620049ce604083018462003e87565b949350505050565b6000604051905081810181811067ffffffffffffffff82111715620049fa57600080fd5b8060405250919050565b600067ffffffffffffffff82111562004a1c57600080fd5b601f19601f8301169050602081019050919050565b600067ffffffffffffffff82111562004a4957600080fd5b601f19601f8301169050602081019050919050565b6000819050602082019050919050565b6000819050602082019050919050565b6000819050602082019050919050565b6000819050602082019050919050565b600081519050919050565b600081519050919050565b600081519050919050565b600081519050919050565b600081519050919050565b600081519050919050565b6000602082019050919050565b6000602082019050919050565b6000602082019050919050565b6000602082019050919050565b600082825260208201905092915050565b600082825260208201905092915050565b600082825260208201905092915050565b600082825260208201905092915050565b600082825260208201905092915050565b600082825260208201905092915050565b600062004b878262004bb8565b9050919050565b600062004b9b8262004bb8565b9050919050565b60008115159050919050565b6000819050919050565b600073ffffffffffffffffffffffffffffffffffffffff82169050919050565b6000819050919050565b600062004bef8262004bf6565b9050919050565b600062004c038262004c0a565b9050919050565b600062004c178262004bb8565b9050919050565b82818337600083830152505050565b60005b8381101562004c4d57808201518184015260208101905062004c30565b8381111562004c5d576000848401525b50505050565b6000819050919050565b6000819050919050565b6000601f19601f8301169050919050565b62004c938162004b7a565b811462004c9f57600080fd5b50565b62004cad8162004ba2565b811462004cb957600080fd5b50565b62004cc78162004bae565b811462004cd357600080fd5b50565b62004ce18162004bd8565b811462004ced57600080fd5b5056fe60806040523480156200001157600080fd5b5060405162000fdb38038062000fdb8339818101604052620000379190810190620000c2565b806000806101000a81548173ffffffffffffffffffffffffffffffffffffffff021916908373ffffffffffffffffffffffffffffffffffffffff16021790555082420160018190555081600154016002819055505050506200018a565b600081519050620000a58162000156565b92915050565b600081519050620000bc8162000170565b92915050565b600080600060608486031215620000d857600080fd5b6000620000e886828701620000ab565b9350506020620000fb86828701620000ab565b92505060406200010e8682870162000094565b9150509250925092565b600062000125826200012c565b9050919050565b600073ffffffffffffffffffffffffffffffffffffffff82169050919050565b6000819050919050565b620001618162000118565b81146200016d57600080fd5b50565b6200017b816200014c565b81146200018757600080fd5b50565b610e41806200019a6000396000f3fe608060405234801561001057600080fd5b50600436106100b45760003560e01c8063a6e6647711610071578063a6e6647714610180578063abf3969e1461019e578063c92fb1b8146101bc578063dfbf53ae146101ec578063e9b036e91461020a578063f8a50ac91461023a576100b4565b806312fa6feb146100b957806338af3eed146100d7578063423b217f146100f557806362ea82db146101135780638cf8043814610144578063a058bfd214610162575b600080fd5b6100c1610256565b6040516100ce9190610bf1565b60405180910390f35b6100df610269565b6040516100ec9190610bd6565b60405180910390f35b6100fd61028e565b60405161010a9190610c5e565b60405180910390f35b61012d600480360361012891908101906109fe565b610294565b60405161013b929190610c0c565b60405180910390f35b61014c610350565b6040516101599190610c5e565b60405180910390f35b61016a610356565b6040516101779190610c3c565b60405180910390f35b6101886103f4565b6040516101959190610c5e565b60405180910390f35b6101a66103fa565b6040516101b39190610bf1565b60405180910390f35b6101d660048036036101d19190810190610a8e565b610432565b6040516101e39190610c5e565b60405180910390f35b6101f46105a9565b6040516102019190610bbb565b60405180910390f35b610224600480360361021f91908101906109fe565b6105cf565b6040516102319190610c5e565b60405180910390f35b610254600480360361024f9190810190610a27565b61066c565b005b600360009054906101000a900460ff1681565b6000809054906101000a900473ffffffffffffffffffffffffffffffffffffffff1681565b60015481565b6008602052806000526040600020600091509050806000015490806001018054600181600116156101000203166002900480601f0160208091040260200160405190810160405280929190818152602001828054600181600116156101000203166002900480156103465780601f1061031b57610100808354040283529160200191610346565b820191906000526020600020905b81548152906001019060200180831161032957829003601f168201915b5050505050905082565b60055481565b60078054600181600116156101000203166002900480601f0160208091040260200160405190810160405280929190818152602001828054600181600116156101000203166002900480156103ec5780601f106103c1576101008083540402835291602001916103ec565b820191906000526020600020905b8154815290600101906020018083116103cf57829003601f168201915b505050505081565b60025481565b600060025442111561042a576001600360006101000a81548160ff0219169083151502179055506001905061042f565b600090505b90565b600060015480421161044357600080fd5b60025480421061045257600080fd5b60008090506000600860008773ffffffffffffffffffffffffffffffffffffffff1673ffffffffffffffffffffffffffffffffffffffff168152602001908152602001600020905087876040516020016104ad929190610b8f565b604051602081830303815290604052805190602001208160000154146104d75787945050506105a0565b87820191506105838689836001018054600181600116156101000203166002900480601f0160208091040260200160405190810160405280929190818152602001828054600181600116156101000203166002900480156105795780601f1061054e57610100808354040283529160200191610579565b820191906000526020600020905b81548152906001019060200180831161055c57829003601f168201915b50505050506106ff565b1561058e5787820391505b6000801b816000018190555081945050505b50509392505050565b600660009054906101000a900473ffffffffffffffffffffffffffffffffffffffff1681565b600080600960008473ffffffffffffffffffffffffffffffffffffffff1673ffffffffffffffffffffffffffffffffffffffff1681526020019081526020016000205490506000811115610663576000600960008573ffffffffffffffffffffffffffffffffffffffff1673ffffffffffffffffffffffffffffffffffffffff168152602001908152602001600020819055505b80915050919050565b60015480421061067b57600080fd5b604051806040016040528084815260200183815250600860008673ffffffffffffffffffffffffffffffffffffffff1673ffffffffffffffffffffffffffffffffffffffff1681526020019081526020016000206000820151816000015560208201518160010190805190602001906106f5929190610846565b5090505050505050565b60006005548311610713576000905061083f565b600073ffffffffffffffffffffffffffffffffffffffff16600660009054906101000a900473ffffffffffffffffffffffffffffffffffffffff1673ffffffffffffffffffffffffffffffffffffffff16146107db5760055460096000600660009054906101000a900473ffffffffffffffffffffffffffffffffffffffff1673ffffffffffffffffffffffffffffffffffffffff1673ffffffffffffffffffffffffffffffffffffffff168152602001908152602001600020600082825401925050819055505b8260058190555083600660006101000a81548173ffffffffffffffffffffffffffffffffffffffff021916908373ffffffffffffffffffffffffffffffffffffffff16021790555081600790805190602001906108399291906108c6565b50600190505b9392505050565b828054600181600116156101000203166002900490600052602060002090601f016020900481019282601f1061088757805160ff19168380011785556108b5565b828001600101855582156108b5579182015b828111156108b4578251825591602001919060010190610899565b5b5090506108c29190610946565b5090565b828054600181600116156101000203166002900490600052602060002090601f016020900481019282601f1061090757805160ff1916838001178555610935565b82800160010185558215610935579182015b82811115610934578251825591602001919060010190610919565b5b5090506109429190610946565b5090565b61096891905b8082111561096457600081600090555060010161094c565b5090565b90565b60008135905061097a81610db9565b92915050565b60008135905061098f81610dd0565b92915050565b600082601f8301126109a657600080fd5b81356109b96109b482610ca6565b610c79565b915080825260208301602083018583830111156109d557600080fd5b6109e0838284610d52565b50505092915050565b6000813590506109f881610de7565b92915050565b600060208284031215610a1057600080fd5b6000610a1e8482850161096b565b91505092915050565b600080600060608486031215610a3c57600080fd5b6000610a4a8682870161096b565b9350506020610a5b86828701610980565b925050604084013567ffffffffffffffff811115610a7857600080fd5b610a8486828701610995565b9150509250925092565b600080600060608486031215610aa357600080fd5b6000610ab1868287016109e9565b9350506020610ac286828701610980565b9250506040610ad38682870161096b565b9150509250925092565b610ae681610d00565b82525050565b610af581610cee565b82525050565b610b0481610d12565b82525050565b610b1381610d1e565b82525050565b610b2a610b2582610d1e565b610d94565b82525050565b6000610b3b82610cd2565b610b458185610cdd565b9350610b55818560208601610d61565b610b5e81610da8565b840191505092915050565b610b7281610d48565b82525050565b610b89610b8482610d48565b610d9e565b82525050565b6000610b9b8285610b78565b602082019150610bab8284610b19565b6020820191508190509392505050565b6000602082019050610bd06000830184610aec565b92915050565b6000602082019050610beb6000830184610add565b92915050565b6000602082019050610c066000830184610afb565b92915050565b6000604082019050610c216000830185610b0a565b8181036020830152610c338184610b30565b90509392505050565b60006020820190508181036000830152610c568184610b30565b905092915050565b6000602082019050610c736000830184610b69565b92915050565b6000604051905081810181811067ffffffffffffffff82111715610c9c57600080fd5b8060405250919050565b600067ffffffffffffffff821115610cbd57600080fd5b601f19601f8301169050602081019050919050565b600081519050919050565b600082825260208201905092915050565b6000610cf982610d28565b9050919050565b6000610d0b82610d28565b9050919050565b60008115159050919050565b6000819050919050565b600073ffffffffffffffffffffffffffffffffffffffff82169050919050565b6000819050919050565b82818337600083830152505050565b60005b83811015610d7f578082015181840152602081019050610d64565b83811115610d8e576000848401525b50505050565b6000819050919050565b6000819050919050565b6000601f19601f8301169050919050565b610dc281610cee565b8114610dcd57600080fd5b50565b610dd981610d1e565b8114610de457600080fd5b50565b610df081610d48565b8114610dfb57600080fd5b5056fea365627a7a723158201cbb369efaa26980ed45151b93bd168253057524f5f0d86f1f476b90fdf4a17e6c6578706572696d656e74616cf564736f6c63430005100040a365627a7a72315820a652789968769e634100223e93025ecf20857881aaf6188f435aa3d7c3f034616c6578706572696d656e74616cf564736f6c63430005100040",
  "source": "// SPDX-License-Identifier: MIT\npragma experimental ABIEncoderV2;\npragma solidity >=0.4.22 <0.9.0;\nimport './FirstPriceAuction.sol';\n\ncontract Factory {\n    \n}\ncontract SmartStore {\n    /// @author Heisenberg team\n\n    enum State {UNDEFINED, AVAILABLE, PENDING_DELIVERY, DELIVERED}\n    enum AuctionState {UNDEFINED, RUNNING, PENDING_DELIVERY, DELIEVERED}\n\n    struct Listing {\n        uint listingID;\n        string itemName;\n        string itemDescription;\n        uint askingPrice;\n        address sellerID;\n    }\n\n    struct Auction {\n        uint auctionID;\n        string itemName;\n        string itemDescription;\n        address sellerId;\n        uint startTime;\n        uint biddingTime;\n        uint revealTime;\n        string method;\n    }\n\n    struct PendingItem {\n        uint listingID;\n        string itemName;\n        string itemDescription;\n        uint askingPrice;\n        string publicKey;\n    }\n\n    struct BoughtItem {\n        uint listingID;\n        string itemName;\n        string itemDescription;\n        string itemText;\n    }\n\n\n    constructor() public {\n\n    }\n\n    /// @dev list of pending deliveries for each seller\n    mapping(address => PendingItem[]) pendingDeliveries;\n    /// @dev address of the seller who is selling a particular product\n    mapping(uint => address) sellers;\n    /// @dev address of the person who has paid money to the contract to buy a particular product\n    mapping(uint => address) buyers;\n    /// @dev state of each product in the listing\n    mapping(uint => State) status;\n    /// @dev list of items which each person has bought and has been deliverd\n    mapping(address => BoughtItem[]) myItems;\n    mapping(uint => BaseAuction) auctionContracts;\n\n    mapping(uint => AuctionState) auctionStatus;\n    /// @dev list of all products. Also includes products which have already been sold\n    Listing[] private listings;\n    Auction[] private auctions;\n\n    uint listingCounter = 0;\n    uint auctionCounter = 0;\n\n    modifier onlyAvailable(uint itemID) {\n        require (\n            status[itemID] == State.AVAILABLE,\n            \"Item not available.\"\n        );\n        _;\n    }\n\n    modifier onlySeller(uint itemID) {\n        require (\n            sellers[itemID] == msg.sender,\n            \"You are not the seller of this item.\"\n        );\n        _;\n    }\n\n\n    /**\n     * @notice sellers use this to add a new product they want to sell into the list of available products\n     * @param itemName the name of the item to be sold\n     * @param itemDescription description of the item to be sold \n     * @param askingPrice price of the item to be sold\n     */\n    function addListing(string memory itemName, string memory itemDescription, uint askingPrice) public {\n        Listing memory listing = Listing(listingCounter, itemName, itemDescription, askingPrice, msg.sender);\n        sellers[listingCounter] = msg.sender;\n        status[listingCounter] = State.AVAILABLE;\n        listings.push(listing);\n        listingCounter++;\n    }\n    function getNumberOfListings() public returns (uint) {\n        return listings.length;\n    }\n\n    function getParticularListing(uint idx) public view returns (Listing memory) {\n        return listings[idx];\n    }\n\n    function getStatusOfListing(uint itemID) public view returns (bool) {\n        if(status[itemID] == State.AVAILABLE) {\n            return true;\n        } else {\n            return false;\n        }\n    }\n\n    function addAuction(string memory itemName, string memory itemDescription, uint biddingTime, uint revealTime, string memory method) public {\n        Auction memory auction = Auction(listingCounter, itemName, itemDescription, msg.sender, now, biddingTime, revealTime, method);\n        auctions.push(auction);\n        auctionContracts[listingCounter] = new FirstPriceAuction(biddingTime, revealTime, msg.sender);\n        sellers[listingCounter] = msg.sender;\n        auctionStatus[listingCounter] = AuctionState.RUNNING;\n        listingCounter++;\n    }\n\n    function placeBid(uint auctionID, bytes32 _blindedBid, string memory publicKey) public{\n        auctionContracts[auctionID].bid(msg.sender, _blindedBid, publicKey);\n    }\n    function revealBid(uint auctionID, uint value, bytes32 secret) public payable{\n        uint refundAmount = auctionContracts[auctionID].reveal(value, secret, msg.sender);\n        address payable bidderAddress = msg.sender;\n        bidderAddress.transfer(refundAmount);\n    }\n    function getAuctions() public view returns (Auction[] memory) {\n        uint available = 0;\n        for(uint i = 0; i < auctions.length; i++) {\n            uint itemID = auctions[i].auctionID;\n            if(now < auctions[i].startTime + auctions[i].biddingTime) {\n                available++;\n            }\n        }\n\n        Auction[] memory activeAuctions = new Auction[](available);\n        uint index = 0;\n        for(uint i = 0; i < auctions.length; i++) {\n            uint itemID = auctions[i].auctionID;\n            if(now < auctions[i].startTime + auctions[i].biddingTime) {\n                activeAuctions[index++] = auctions[i];\n            }\n        }\n        return activeAuctions;\n    }\n    function endAuction(uint auctionID) public {\n        if(auctionStatus[auctionID] != AuctionState.RUNNING) {\n            return;\n        }\n        if(auctionContracts[auctionID].canEnd()) {\n            auctionStatus[auctionID] = AuctionState.PENDING_DELIVERY;\n            address winner = auctionContracts[auctionID].winner();\n            uint amount = auctionContracts[auctionID].winningBid();\n            string memory publicKeyOfWinner = auctionContracts[auctionID].publicKeyOfWinner();\n            buyers[auctionID] = winner;\n            Auction memory currentAuction;\n            status[auctionID] = State.PENDING_DELIVERY;\n            for(uint i = 0; i < auctions.length; i++) {\n                if(auctionID == auctions[i].auctionID) {\n                    currentAuction = auctions[i];\n                    break;\n                }\n            }\n            PendingItem memory pendingItem = PendingItem(currentAuction.auctionID, currentAuction.itemName, currentAuction.itemDescription, amount, publicKeyOfWinner);\n            pendingDeliveries[currentAuction.sellerId].push(pendingItem);\n        }\n    } \n    function getHash(uint value, bytes32 secret) public view returns (bytes32) {\n        bytes32 hash = keccak256(abi.encodePacked(value, secret));\n        return hash;\n    }\n    /**\n     * @notice used to get a list of all the products which are available for sale\n     * @return the list of active products\n     */\n    function getListings() public view returns (Listing[] memory) {\n        uint available = 0;\n        for(uint i = 0; i < listings.length; i++) {\n            uint itemID = listings[i].listingID;\n            if(status[itemID] == State.AVAILABLE) {\n                available++;\n            }\n        }\n\n        Listing[] memory activeListings = new Listing[](available);\n        uint index = 0;\n        for(uint i = 0; i < listings.length; i++) {\n            uint itemID = listings[i].listingID;\n            if(status[itemID] == State.AVAILABLE) {\n                activeListings[index++] = listings[i];\n            }\n        }\n        return activeListings;\n    }\n\n    /**\n     * @notice buyers use this to buy a product which is available for sale\n     * @dev calling this function adds the product into the list of pending deliveries for the corresponding seller \n     * @param itemID ID of the item to be bought\n     * @param publicKey publick key which will be used for encrypting the product string by the seller. Buyer must have the corresponding private key to decrypt the message\n     */\n    function buyListing(uint itemID, string memory publicKey) public onlyAvailable(itemID) payable {\n        Listing memory item;\n        for(uint i = 0; i < listings.length; i++) {\n            if(listings[i].listingID == itemID) {\n                item = listings[i];\n                break;\n            }\n        }\n        require (\n            msg.value == item.askingPrice,\n            \"Sent amount should be equal to asking price !\"\n        );\n        \n\n        buyers[itemID] = msg.sender;\n\n        status[itemID] = State.PENDING_DELIVERY;\n        \n        address sellerAddress = sellers[itemID];\n        PendingItem memory pendingItem = PendingItem(item.listingID, item.itemName, item.itemDescription, item.askingPrice, publicKey);\n        pendingDeliveries[sellerAddress].push(pendingItem);\n    }\n\n    /**\n     * @notice sellers can use this to get a list of products they need to deliever\n     * @return the list of products which needs to be delievered\n     */\n    function getPendingTransactions() public view returns (PendingItem[] memory) {\n        return pendingDeliveries[msg.sender];\n    }\n\n    function getNumberOfPendingTransactions() public returns (uint) {\n        return pendingDeliveries[msg.sender].length;\n    }\n\n    function getParticularPendingListing(uint idx) public view returns (PendingItem memory) {\n        return pendingDeliveries[msg.sender][idx];\n    }\n\n    /**\n     * @notice function to deliver an item. The seller must send the itemText by correctly encrypting it with the public key assosciated with that product\n     * @param itemID ID of the product which needs to be delivered\n     * @param itemText encrypted text assosicated with the product that is being delivered\n     */ \n    function delieverItem(uint itemID, string memory itemText) public onlySeller(itemID) {\n        \n        require (\n            status[itemID] == State.PENDING_DELIVERY,\n            \"This item is not in the pending delievery state.\"\n        );\n\n        \n        status[itemID] = State.DELIVERED;\n\n        uint len = pendingDeliveries[msg.sender].length;\n        PendingItem memory pendingItem;\n        for(uint i = 0; i < len; i++) {\n            if(pendingDeliveries[msg.sender][i].listingID == itemID) {\n                pendingItem = pendingDeliveries[msg.sender][i];\n                pendingDeliveries[msg.sender][i] = pendingDeliveries[msg.sender][len - 1];\n                delete pendingDeliveries[msg.sender][len - 1];\n                pendingDeliveries[msg.sender].length--;\n                break;\n            }\n        }\n\n        address buyerAddress = buyers[itemID];\n        BoughtItem memory boughtItem = BoughtItem(pendingItem.listingID, pendingItem.itemName, pendingItem.itemDescription, itemText);\n\n        myItems[buyerAddress].push(boughtItem);  \n        \n        address payable sellerAddress = msg.sender;\n        sellerAddress.transfer(pendingItem.askingPrice);\n    }\n\n    /**\n     * @notice buyers can use this function to get a list of products which they bought and that have been delievered \n     * @return list of products which have been delievered to a particular buyer\n     */\n    function getItems() public view returns (BoughtItem[] memory){\n        return myItems[msg.sender];\n    }\n\n    function getNumberOfItems() public returns (uint) {\n        return myItems[msg.sender].length;\n    }\n\n    function getParticularOrderItem(uint idx) public view returns (BoughtItem memory) {\n        return myItems[msg.sender][idx];\n    }    \n}\n",
  "sourcePath": "/home/daksh0225/Sem7/DTB/SmartAuction/contracts/SmartStore.sol",
  "compiler": {
    "name": "solc",
    "version": "0.5.16+commit.9c3226ce.Emscripten.clang"
  },
  "schemaVersion": "3.4.3",
  "updatedAt": "2021-10-12T10:01:32.551Z",
  "networkType": "ethereum",
  "devdoc": {
    "methods": {
      "addListing(string,string,uint256)": {
        "params": {
          "askingPrice": "price of the item to be sold",
          "itemDescription": "description of the item to be sold ",
          "itemName": "the name of the item to be sold"
        }
      },
      "buyListing(uint256,string)": {
        "details": "calling this function adds the product into the list of pending deliveries for the corresponding seller ",
        "params": {
          "itemID": "ID of the item to be bought",
          "publicKey": "publick key which will be used for encrypting the product string by the seller. Buyer must have the corresponding private key to decrypt the message"
        }
      },
      "delieverItem(uint256,string)": {
        "params": {
          "itemID": "ID of the product which needs to be delivered",
          "itemText": "encrypted text assosicated with the product that is being delivered"
        }
      },
      "getItems()": {
        "return": "list of products which have been delievered to a particular buyer"
      },
      "getListings()": {
        "return": "the list of active products"
      },
      "getPendingTransactions()": {
        "return": "the list of products which needs to be delievered"
      }
    }
  },
  "userdoc": {
    "methods": {
      "addListing(string,string,uint256)": {
        "notice": "sellers use this to add a new product they want to sell into the list of available products"
      },
      "buyListing(uint256,string)": {
        "notice": "buyers use this to buy a product which is available for sale"
      },
      "delieverItem(uint256,string)": {
        "notice": "function to deliver an item. The seller must send the itemText by correctly encrypting it with the public key assosciated with that product"
      },
      "getItems()": {
        "notice": "buyers can use this function to get a list of products which they bought and that have been delievered "
      },
      "getListings()": {
        "notice": "used to get a list of all the products which are available for sale"
      },
      "getPendingTransactions()": {
        "notice": "sellers can use this to get a list of products they need to deliever"
      }
    }
  }
}