{
  "contractName": "SmartStore",
  "abi": [
    {
      "inputs": [],
      "payable": false,
      "stateMutability": "nonpayable",
      "type": "constructor"
    },
    {
      "constant": false,
      "inputs": [
        {
          "internalType": "string",
          "name": "itemName",
          "type": "string"
        },
        {
          "internalType": "string",
          "name": "itemDescription",
          "type": "string"
        },
        {
          "internalType": "uint256",
          "name": "askingPrice",
          "type": "uint256"
        }
      ],
      "name": "addListing",
      "outputs": [],
      "payable": false,
      "stateMutability": "nonpayable",
      "type": "function"
    },
    {
      "constant": false,
      "inputs": [],
      "name": "getNumberOfListings",
      "outputs": [
        {
          "internalType": "uint256",
          "name": "",
          "type": "uint256"
        }
      ],
      "payable": false,
      "stateMutability": "nonpayable",
      "type": "function"
    },
    {
      "constant": true,
      "inputs": [
        {
          "internalType": "uint256",
          "name": "idx",
          "type": "uint256"
        }
      ],
      "name": "getParticularListing",
      "outputs": [
        {
          "components": [
            {
              "internalType": "uint256",
              "name": "listingID",
              "type": "uint256"
            },
            {
              "internalType": "string",
              "name": "itemName",
              "type": "string"
            },
            {
              "internalType": "string",
              "name": "itemDescription",
              "type": "string"
            },
            {
              "internalType": "uint256",
              "name": "askingPrice",
              "type": "uint256"
            },
            {
              "internalType": "address",
              "name": "sellerID",
              "type": "address"
            }
          ],
          "internalType": "struct SmartStore.Listing",
          "name": "",
          "type": "tuple"
        }
      ],
      "payable": false,
      "stateMutability": "view",
      "type": "function"
    },
    {
      "constant": true,
      "inputs": [
        {
          "internalType": "uint256",
          "name": "itemID",
          "type": "uint256"
        }
      ],
      "name": "getStatusOfListing",
      "outputs": [
        {
          "internalType": "bool",
          "name": "",
          "type": "bool"
        }
      ],
      "payable": false,
      "stateMutability": "view",
      "type": "function"
    },
    {
      "constant": false,
      "inputs": [
        {
          "internalType": "string",
          "name": "itemName",
          "type": "string"
        },
        {
          "internalType": "string",
          "name": "itemDescription",
          "type": "string"
        },
        {
          "internalType": "uint256",
          "name": "biddingTime",
          "type": "uint256"
        },
        {
          "internalType": "uint256",
          "name": "revealTime",
          "type": "uint256"
        },
        {
          "internalType": "string",
          "name": "method",
          "type": "string"
        }
      ],
      "name": "addAuction",
      "outputs": [],
      "payable": false,
      "stateMutability": "nonpayable",
      "type": "function"
    },
    {
      "constant": false,
      "inputs": [
        {
          "internalType": "uint256",
          "name": "auctionID",
          "type": "uint256"
        },
        {
          "internalType": "bytes32",
          "name": "_blindedBid",
          "type": "bytes32"
        }
      ],
      "name": "placeBid",
      "outputs": [],
      "payable": true,
      "stateMutability": "payable",
      "type": "function"
    },
    {
      "constant": false,
      "inputs": [
        {
          "internalType": "uint256",
          "name": "auctionID",
          "type": "uint256"
        },
        {
          "internalType": "uint256[]",
          "name": "values",
          "type": "uint256[]"
        },
        {
          "internalType": "bool[]",
          "name": "fake",
          "type": "bool[]"
        },
        {
          "internalType": "bytes32",
          "name": "secret",
          "type": "bytes32"
        }
      ],
      "name": "revealBid",
      "outputs": [],
      "payable": false,
      "stateMutability": "nonpayable",
      "type": "function"
    },
    {
      "constant": true,
      "inputs": [],
      "name": "getAuctions",
      "outputs": [
        {
          "components": [
            {
              "internalType": "uint256",
              "name": "auctionID",
              "type": "uint256"
            },
            {
              "internalType": "string",
              "name": "itemName",
              "type": "string"
            },
            {
              "internalType": "string",
              "name": "itemDescription",
              "type": "string"
            },
            {
              "internalType": "address",
              "name": "sellerId",
              "type": "address"
            },
            {
              "internalType": "uint256",
              "name": "startTime",
              "type": "uint256"
            },
            {
              "internalType": "uint256",
              "name": "biddingTime",
              "type": "uint256"
            },
            {
              "internalType": "uint256",
              "name": "revealTime",
              "type": "uint256"
            },
            {
              "internalType": "string",
              "name": "method",
              "type": "string"
            }
          ],
          "internalType": "struct SmartStore.Auction[]",
          "name": "",
          "type": "tuple[]"
        }
      ],
      "payable": false,
      "stateMutability": "view",
      "type": "function"
    },
    {
      "constant": true,
      "inputs": [
        {
          "internalType": "uint256",
          "name": "value",
          "type": "uint256"
        },
        {
          "internalType": "bool",
          "name": "fake",
          "type": "bool"
        },
        {
          "internalType": "bytes32",
          "name": "secret",
          "type": "bytes32"
        }
      ],
      "name": "getHash",
      "outputs": [
        {
          "internalType": "bytes32",
          "name": "",
          "type": "bytes32"
        }
      ],
      "payable": false,
      "stateMutability": "view",
      "type": "function"
    },
    {
      "constant": true,
      "inputs": [],
      "name": "getListings",
      "outputs": [
        {
          "components": [
            {
              "internalType": "uint256",
              "name": "listingID",
              "type": "uint256"
            },
            {
              "internalType": "string",
              "name": "itemName",
              "type": "string"
            },
            {
              "internalType": "string",
              "name": "itemDescription",
              "type": "string"
            },
            {
              "internalType": "uint256",
              "name": "askingPrice",
              "type": "uint256"
            },
            {
              "internalType": "address",
              "name": "sellerID",
              "type": "address"
            }
          ],
          "internalType": "struct SmartStore.Listing[]",
          "name": "",
          "type": "tuple[]"
        }
      ],
      "payable": false,
      "stateMutability": "view",
      "type": "function"
    },
    {
      "constant": false,
      "inputs": [
        {
          "internalType": "uint256",
          "name": "itemID",
          "type": "uint256"
        },
        {
          "internalType": "string",
          "name": "publicKey",
          "type": "string"
        }
      ],
      "name": "buyListing",
      "outputs": [],
      "payable": true,
      "stateMutability": "payable",
      "type": "function"
    },
    {
      "constant": true,
      "inputs": [],
      "name": "getPendingTransactions",
      "outputs": [
        {
          "components": [
            {
              "internalType": "uint256",
              "name": "listingID",
              "type": "uint256"
            },
            {
              "internalType": "string",
              "name": "itemName",
              "type": "string"
            },
            {
              "internalType": "string",
              "name": "itemDescription",
              "type": "string"
            },
            {
              "internalType": "uint256",
              "name": "askingPrice",
              "type": "uint256"
            },
            {
              "internalType": "string",
              "name": "publicKey",
              "type": "string"
            }
          ],
          "internalType": "struct SmartStore.PendingItem[]",
          "name": "",
          "type": "tuple[]"
        }
      ],
      "payable": false,
      "stateMutability": "view",
      "type": "function"
    },
    {
      "constant": false,
      "inputs": [
        {
          "internalType": "uint256",
          "name": "itemID",
          "type": "uint256"
        },
        {
          "internalType": "string",
          "name": "itemText",
          "type": "string"
        }
      ],
      "name": "delieverItem",
      "outputs": [],
      "payable": false,
      "stateMutability": "nonpayable",
      "type": "function"
    },
    {
      "constant": true,
      "inputs": [],
      "name": "getItems",
      "outputs": [
        {
          "components": [
            {
              "internalType": "uint256",
              "name": "listingID",
              "type": "uint256"
            },
            {
              "internalType": "string",
              "name": "itemName",
              "type": "string"
            },
            {
              "internalType": "string",
              "name": "itemDescription",
              "type": "string"
            },
            {
              "internalType": "string",
              "name": "itemText",
              "type": "string"
            }
          ],
          "internalType": "struct SmartStore.BoughtItem[]",
          "name": "",
          "type": "tuple[]"
        }
      ],
      "payable": false,
      "stateMutability": "view",
      "type": "function"
    }
  ],
  "bytecode": "0x60806040526000600855600060095534801561001a57600080fd5b50614c168061002a6000396000f3fe608060405260043610620000f25760003560e01c806366ab1d52116200008b578063d11db83f1162000061578063d11db83f14620002d7578063d7c069191462000307578063e51cbbf91462000337578063f1b2d6a3146200037b57620000f2565b806366ab1d521462000259578063affe94271462000279578063c6209edf14620002a957620000f2565b8063298c154e11620000cd578063298c154e14620001895780632c57f1ea14620001b75780633fb7de9e14620001e5578063410d59cc146200022957620000f2565b806309422aff14620000f757806310e822fd146200013b57806319b8d0e8146200015b575b600080fd5b3480156200010457600080fd5b506200012360048036036200011d919081019062002d56565b620003ab565b604051620001329190620038aa565b60405180910390f35b62000159600480360362000153919081019062002ded565b620003e8565b005b3480156200016857600080fd5b5062000187600480360362000181919081019062002cb8565b6200089d565b005b3480156200019657600080fd5b50620001b56004803603620001af919081019062002b0b565b620009c0565b005b348015620001c457600080fd5b50620001e36004803603620001dd919081019062002ded565b62000b79565b005b348015620001f257600080fd5b506200021160048036036200020b919081019062002c60565b62001384565b6040516200022091906200388d565b60405180910390f35b3480156200023657600080fd5b5062000241620013dc565b604051620002509190620037c6565b60405180910390f35b62000277600480360362000271919081019062002dac565b62001676565b005b3480156200028657600080fd5b506200029162001720565b604051620002a0919062003973565b60405180910390f35b348015620002b657600080fd5b50620002d56004803603620002cf919081019062002b93565b6200172d565b005b348015620002e457600080fd5b50620002ef62001932565b604051620002fe91906200380e565b60405180910390f35b3480156200031457600080fd5b506200031f62001bd5565b6040516200032e9190620037a2565b60405180910390f35b3480156200034457600080fd5b506200036360048036036200035d919081019062002c60565b6200200f565b6040516200037291906200394f565b60405180910390f35b3480156200038857600080fd5b5062000393620021fd565b604051620003a29190620037ea565b60405180910390f35b600080848484604051602001620003c59392919062003722565b604051602081830303815290604052805190602001209050809150509392505050565b8160016003811115620003f757fe5b6003600083815260200190815260200160002060009054906101000a900460ff1660038111156200042457fe5b1462000467576040517f08c379a00000000000000000000000000000000000000000000000000000000081526004016200045e906200390b565b60405180910390fd5b600683815481106200047557fe5b9060005260206000209060050201600301543414620004cb576040517f08c379a0000000000000000000000000000000000000000000000000000000008152600401620004c2906200392d565b60405180910390fd5b336002600085815260200190815260200160002060006101000a81548173ffffffffffffffffffffffffffffffffffffffff021916908373ffffffffffffffffffffffffffffffffffffffff160217905550620005276200256e565b600684815481106200053557fe5b90600052602060002090600502016040518060a001604052908160008201548152602001600182018054600181600116156101000203166002900480601f016020809104026020016040519081016040528092919081815260200182805460018160011615610100020316600290048015620005f55780601f10620005c957610100808354040283529160200191620005f5565b820191906000526020600020905b815481529060010190602001808311620005d757829003601f168201915b50505050508152602001600282018054600181600116156101000203166002900480601f0160208091040260200160405190810160405280929190818152602001828054600181600116156101000203166002900480156200069b5780601f106200066f576101008083540402835291602001916200069b565b820191906000526020600020905b8154815290600101906020018083116200067d57829003601f168201915b50505050508152602001600382015481526020016004820160009054906101000a900473ffffffffffffffffffffffffffffffffffffffff1673ffffffffffffffffffffffffffffffffffffffff1673ffffffffffffffffffffffffffffffffffffffff1681525050905060026003600086815260200190815260200160002060006101000a81548160ff021916908360038111156200073757fe5b021790555060006001600086815260200190815260200160002060009054906101000a900473ffffffffffffffffffffffffffffffffffffffff1690506200077e620025b3565b6040518060a00160405280846000015181526020018460200151815260200184604001518152602001846060015181526020018681525090506000808373ffffffffffffffffffffffffffffffffffffffff1673ffffffffffffffffffffffffffffffffffffffff168152602001908152602001600020819080600181540180825580915050906001820390600052602060002090600502016000909192909190915060008201518160000155602082015181600101908051906020019062000849929190620025e2565b50604082015181600201908051906020019062000868929190620025e2565b5060608201518160030155608082015181600401908051906020019062000891929190620025e2565b50505050505050505050565b60006005600086815260200190815260200160002060009054906101000a900473ffffffffffffffffffffffffffffffffffffffff1673ffffffffffffffffffffffffffffffffffffffff16633b379797858585336040518563ffffffff1660e01b815260040162000913949392919062003832565b602060405180830381600087803b1580156200092e57600080fd5b505af115801562000943573d6000803e3d6000fd5b505050506040513d601f19601f8201168201806040525062000969919081019062002c8c565b905060003390508073ffffffffffffffffffffffffffffffffffffffff166108fc839081150290604051600060405180830381858888f19350505050158015620009b7573d6000803e3d6000fd5b50505050505050565b620009ca6200256e565b6040518060a0016040528060085481526020018581526020018481526020018381526020013373ffffffffffffffffffffffffffffffffffffffff1681525090503360016000600854815260200190815260200160002060006101000a81548173ffffffffffffffffffffffffffffffffffffffff021916908373ffffffffffffffffffffffffffffffffffffffff160217905550600160036000600854815260200190815260200160002060006101000a81548160ff0219169083600381111562000a9257fe5b02179055506006819080600181540180825580915050906001820390600052602060002090600502016000909192909190915060008201518160000155602082015181600101908051906020019062000aed929190620025e2565b50604082015181600201908051906020019062000b0c929190620025e2565b506060820151816003015560808201518160040160006101000a81548173ffffffffffffffffffffffffffffffffffffffff021916908373ffffffffffffffffffffffffffffffffffffffff16021790555050505060086000815480929190600101919050555050505050565b813373ffffffffffffffffffffffffffffffffffffffff166001600083815260200190815260200160002060009054906101000a900473ffffffffffffffffffffffffffffffffffffffff1673ffffffffffffffffffffffffffffffffffffffff161462000c1e576040517f08c379a000000000000000000000000000000000000000000000000000000000815260040162000c1590620038e9565b60405180910390fd5b6002600381111562000c2c57fe5b6003600085815260200190815260200160002060009054906101000a900460ff16600381111562000c5957fe5b1462000c9c576040517f08c379a000000000000000000000000000000000000000000000000000000000815260040162000c9390620038c7565b60405180910390fd5b600380600085815260200190815260200160002060006101000a81548160ff0219169083600381111562000ccc57fe5b021790555060008060003373ffffffffffffffffffffffffffffffffffffffff1673ffffffffffffffffffffffffffffffffffffffff16815260200190815260200160002080549050905060008090505b8181101562000fde57846000803373ffffffffffffffffffffffffffffffffffffffff1673ffffffffffffffffffffffffffffffffffffffff168152602001908152602001600020828154811062000d7157fe5b906000526020600020906005020160000154141562000fd0576000803373ffffffffffffffffffffffffffffffffffffffff1673ffffffffffffffffffffffffffffffffffffffff168152602001908152602001600020600183038154811062000dd757fe5b90600052602060002090600502016000803373ffffffffffffffffffffffffffffffffffffffff1673ffffffffffffffffffffffffffffffffffffffff168152602001908152602001600020828154811062000e2f57fe5b9060005260206000209060050201600082015481600001556001820181600101908054600181600116156101000203166002900462000e7092919062002669565b506002820181600201908054600181600116156101000203166002900462000e9a92919062002669565b50600382015481600301556004820181600401908054600181600116156101000203166002900462000ece92919062002669565b509050506000803373ffffffffffffffffffffffffffffffffffffffff1673ffffffffffffffffffffffffffffffffffffffff168152602001908152602001600020600183038154811062000f1f57fe5b906000526020600020906005020160008082016000905560018201600062000f489190620026f7565b60028201600062000f5a9190620026f7565b600382016000905560048201600062000f749190620026f7565b50506000803373ffffffffffffffffffffffffffffffffffffffff1673ffffffffffffffffffffffffffffffffffffffff16815260200190815260200160002080548091906001900362000fc9919062002743565b5062000fde565b808060010191505062000d1d565b5060006002600086815260200190815260200160002060009054906101000a900473ffffffffffffffffffffffffffffffffffffffff169050620010216200256e565b600686815481106200102f57fe5b90600052602060002090600502016040518060a001604052908160008201548152602001600182018054600181600116156101000203166002900480601f016020809104026020016040519081016040528092919081815260200182805460018160011615610100020316600290048015620010ef5780601f10620010c357610100808354040283529160200191620010ef565b820191906000526020600020905b815481529060010190602001808311620010d157829003601f168201915b50505050508152602001600282018054600181600116156101000203166002900480601f016020809104026020016040519081016040528092919081815260200182805460018160011615610100020316600290048015620011955780601f10620011695761010080835404028352916020019162001195565b820191906000526020600020905b8154815290600101906020018083116200117757829003601f168201915b50505050508152602001600382015481526020016004820160009054906101000a900473ffffffffffffffffffffffffffffffffffffffff1673ffffffffffffffffffffffffffffffffffffffff1673ffffffffffffffffffffffffffffffffffffffff168152505090506200120a62002778565b6040518060800160405280836000015181526020018360200151815260200183604001518152602001878152509050600460008473ffffffffffffffffffffffffffffffffffffffff1673ffffffffffffffffffffffffffffffffffffffff1681526020019081526020016000208190806001815401808255809150509060018203906000526020600020906004020160009091929091909150600082015181600001556020820151816001019080519060200190620012cc929190620025e2565b506040820151816002019080519060200190620012eb929190620025e2565b5060608201518160030190805190602001906200130a929190620025e2565b5050505060003390508073ffffffffffffffffffffffffffffffffffffffff166108fc60068a815481106200133b57fe5b9060005260206000209060050201600301549081150290604051600060405180830381858888f1935050505015801562001379573d6000803e3d6000fd5b505050505050505050565b6000600160038111156200139457fe5b6003600084815260200190815260200160002060009054906101000a900460ff166003811115620013c157fe5b1415620013d25760019050620013d7565b600090505b919050565b6060600460003373ffffffffffffffffffffffffffffffffffffffff1673ffffffffffffffffffffffffffffffffffffffff168152602001908152602001600020805480602002602001604051908101604052809291908181526020016000905b828210156200166d578382906000526020600020906004020160405180608001604052908160008201548152602001600182018054600181600116156101000203166002900480601f016020809104026020016040519081016040528092919081815260200182805460018160011615610100020316600290048015620015085780601f10620014dc5761010080835404028352916020019162001508565b820191906000526020600020905b815481529060010190602001808311620014ea57829003601f168201915b50505050508152602001600282018054600181600116156101000203166002900480601f016020809104026020016040519081016040528092919081815260200182805460018160011615610100020316600290048015620015ae5780601f106200158257610100808354040283529160200191620015ae565b820191906000526020600020905b8154815290600101906020018083116200159057829003601f168201915b50505050508152602001600382018054600181600116156101000203166002900480601f016020809104026020016040519081016040528092919081815260200182805460018160011615610100020316600290048015620016545780601f10620016285761010080835404028352916020019162001654565b820191906000526020600020905b8154815290600101906020018083116200163657829003601f168201915b505050505081525050815260200190600101906200143d565b50505050905090565b6005600083815260200190815260200160002060009054906101000a900473ffffffffffffffffffffffffffffffffffffffff1673ffffffffffffffffffffffffffffffffffffffff1663fb31c4093383346040518463ffffffff1660e01b8152600401620016e89392919062003765565b600060405180830381600087803b1580156200170357600080fd5b505af115801562001718573d6000803e3d6000fd5b505050505050565b6000600680549050905090565b62001737620027a0565b60405180610100016040528060095481526020018781526020018681526020013373ffffffffffffffffffffffffffffffffffffffff16815260200142815260200185815260200184815260200183815250905060078190806001815401808255809150509060018203906000526020600020906008020160009091929091909150600082015181600001556020820151816001019080519060200190620017e1929190620025e2565b50604082015181600201908051906020019062001800929190620025e2565b5060608201518160030160006101000a81548173ffffffffffffffffffffffffffffffffffffffff021916908373ffffffffffffffffffffffffffffffffffffffff1602179055506080820151816004015560a0820151816005015560c0820151816006015560e082015181600701908051906020019062001884929190620025e2565b505050508383336040516200189990620027fb565b620018a79392919062003990565b604051809103906000f080158015620018c4573d6000803e3d6000fd5b5060056000600954815260200190815260200160002060006101000a81548173ffffffffffffffffffffffffffffffffffffffff021916908373ffffffffffffffffffffffffffffffffffffffff160217905550600960008154809291906001019190505550505050505050565b60606000803373ffffffffffffffffffffffffffffffffffffffff1673ffffffffffffffffffffffffffffffffffffffff168152602001908152602001600020805480602002602001604051908101604052809291908181526020016000905b8282101562001bcc57838290600052602060002090600502016040518060a001604052908160008201548152602001600182018054600181600116156101000203166002900480601f01602080910402602001604051908101604052809291908181526020018280546001816001161561010002031660029004801562001a5d5780601f1062001a315761010080835404028352916020019162001a5d565b820191906000526020600020905b81548152906001019060200180831162001a3f57829003601f168201915b50505050508152602001600282018054600181600116156101000203166002900480601f01602080910402602001604051908101604052809291908181526020018280546001816001161561010002031660029004801562001b035780601f1062001ad75761010080835404028352916020019162001b03565b820191906000526020600020905b81548152906001019060200180831162001ae557829003601f168201915b5050505050815260200160038201548152602001600482018054600181600116156101000203166002900480601f01602080910402602001604051908101604052809291908181526020018280546001816001161561010002031660029004801562001bb35780601f1062001b875761010080835404028352916020019162001bb3565b820191906000526020600020905b81548152906001019060200180831162001b9557829003601f168201915b5050505050815250508152602001906001019062001992565b50505050905090565b6060600080905060008090505b60078054905081101562001c755760006007828154811062001c0057fe5b90600052602060002090600802016000015490506007828154811062001c2257fe5b9060005260206000209060080201600501546007838154811062001c4257fe5b9060005260206000209060080201600401540142101562001c665782806001019350505b50808060010191505062001be2565b5060608160405190808252806020026020018201604052801562001cb657816020015b62001ca262002809565b81526020019060019003908162001c985790505b509050600080905060008090505b600780549050811015620020055760006007828154811062001ce257fe5b90600052602060002090600802016000015490506007828154811062001d0457fe5b9060005260206000209060080201600501546007838154811062001d2457fe5b9060005260206000209060080201600401540142101562001ff6576007828154811062001d4d57fe5b90600052602060002090600802016040518061010001604052908160008201548152602001600182018054600181600116156101000203166002900480601f01602080910402602001604051908101604052809291908181526020018280546001816001161561010002031660029004801562001e0e5780601f1062001de25761010080835404028352916020019162001e0e565b820191906000526020600020905b81548152906001019060200180831162001df057829003601f168201915b50505050508152602001600282018054600181600116156101000203166002900480601f01602080910402602001604051908101604052809291908181526020018280546001816001161561010002031660029004801562001eb45780601f1062001e885761010080835404028352916020019162001eb4565b820191906000526020600020905b81548152906001019060200180831162001e9657829003601f168201915b505050505081526020016003820160009054906101000a900473ffffffffffffffffffffffffffffffffffffffff1673ffffffffffffffffffffffffffffffffffffffff1673ffffffffffffffffffffffffffffffffffffffff168152602001600482015481526020016005820154815260200160068201548152602001600782018054600181600116156101000203166002900480601f01602080910402602001604051908101604052809291908181526020018280546001816001161561010002031660029004801562001fce5780601f1062001fa25761010080835404028352916020019162001fce565b820191906000526020600020905b81548152906001019060200180831162001fb057829003601f168201915b50505050508152505084848060010195508151811062001fea57fe5b60200260200101819052505b50808060010191505062001cc4565b5081935050505090565b620020196200256e565b600682815481106200202757fe5b90600052602060002090600502016040518060a001604052908160008201548152602001600182018054600181600116156101000203166002900480601f016020809104026020016040519081016040528092919081815260200182805460018160011615610100020316600290048015620020e75780601f10620020bb57610100808354040283529160200191620020e7565b820191906000526020600020905b815481529060010190602001808311620020c957829003601f168201915b50505050508152602001600282018054600181600116156101000203166002900480601f0160208091040260200160405190810160405280929190818152602001828054600181600116156101000203166002900480156200218d5780601f1062002161576101008083540402835291602001916200218d565b820191906000526020600020905b8154815290600101906020018083116200216f57829003601f168201915b50505050508152602001600382015481526020016004820160009054906101000a900473ffffffffffffffffffffffffffffffffffffffff1673ffffffffffffffffffffffffffffffffffffffff1673ffffffffffffffffffffffffffffffffffffffff16815250509050919050565b6060600080905060008090505b60068054905081101562002296576000600682815481106200222857fe5b9060005260206000209060050201600001549050600160038111156200224a57fe5b6003600083815260200190815260200160002060009054906101000a900460ff1660038111156200227757fe5b1415620022875782806001019350505b5080806001019150506200220a565b50606081604051908082528060200260200182016040528015620022d757816020015b620022c362002864565b815260200190600190039081620022b95790505b509050600080905060008090505b60068054905081101562002564576000600682815481106200230357fe5b9060005260206000209060050201600001549050600160038111156200232557fe5b6003600083815260200190815260200160002060009054906101000a900460ff1660038111156200235257fe5b14156200255557600682815481106200236757fe5b90600052602060002090600502016040518060a001604052908160008201548152602001600182018054600181600116156101000203166002900480601f016020809104026020016040519081016040528092919081815260200182805460018160011615610100020316600290048015620024275780601f10620023fb5761010080835404028352916020019162002427565b820191906000526020600020905b8154815290600101906020018083116200240957829003601f168201915b50505050508152602001600282018054600181600116156101000203166002900480601f016020809104026020016040519081016040528092919081815260200182805460018160011615610100020316600290048015620024cd5780601f10620024a157610100808354040283529160200191620024cd565b820191906000526020600020905b815481529060010190602001808311620024af57829003601f168201915b50505050508152602001600382015481526020016004820160009054906101000a900473ffffffffffffffffffffffffffffffffffffffff1673ffffffffffffffffffffffffffffffffffffffff1673ffffffffffffffffffffffffffffffffffffffff16815250508484806001019550815181106200254957fe5b60200260200101819052505b508080600101915050620022e5565b5081935050505090565b6040518060a0016040528060008152602001606081526020016060815260200160008152602001600073ffffffffffffffffffffffffffffffffffffffff1681525090565b6040518060a0016040528060008152602001606081526020016060815260200160008152602001606081525090565b828054600181600116156101000203166002900490600052602060002090601f016020900481019282601f106200262557805160ff191683800117855562002656565b8280016001018555821562002656579182015b828111156200265557825182559160200191906001019062002638565b5b509050620026659190620028a9565b5090565b828054600181600116156101000203166002900490600052602060002090601f016020900481019282601f10620026a45780548555620026e4565b82800160010185558215620026e457600052602060002091601f016020900482015b82811115620026e3578254825591600101919060010190620026c6565b5b509050620026f39190620028a9565b5090565b50805460018160011615610100020316600290046000825580601f106200271f575062002740565b601f0160209004906000526020600020908101906200273f9190620028a9565b5b50565b8154818355818111156200277357600502816005028360005260206000209182019101620027729190620028d1565b5b505050565b6040518060800160405280600081526020016060815260200160608152602001606081525090565b604051806101000160405280600081526020016060815260200160608152602001600073ffffffffffffffffffffffffffffffffffffffff168152602001600081526020016000815260200160008152602001606081525090565b610e458062003d8f83390190565b604051806101000160405280600081526020016060815260200160608152602001600073ffffffffffffffffffffffffffffffffffffffff168152602001600081526020016000815260200160008152602001606081525090565b6040518060a0016040528060008152602001606081526020016060815260200160008152602001600073ffffffffffffffffffffffffffffffffffffffff1681525090565b620028ce91905b80821115620028ca576000816000905550600101620028b0565b5090565b90565b6200293691905b808211156200293257600080820160009055600182016000620028fc9190620026f7565b6002820160006200290e9190620026f7565b6003820160009055600482016000620029289190620026f7565b50600501620028d8565b5090565b90565b600082601f8301126200294b57600080fd5b8135620029626200295c82620039fb565b620039cd565b915081818352602084019350602081019050838560208402820111156200298857600080fd5b60005b83811015620029bc5781620029a1888262002a53565b8452602084019350602083019250506001810190506200298b565b5050505092915050565b600082601f830112620029d857600080fd5b8135620029ef620029e98262003a24565b620039cd565b9150818183526020840193506020810190508385602084028201111562002a1557600080fd5b60005b8381101562002a49578162002a2e888262002add565b84526020840193506020830192505060018101905062002a18565b5050505092915050565b60008135905062002a648162003d40565b92915050565b60008135905062002a7b8162003d5a565b92915050565b600082601f83011262002a9357600080fd5b813562002aaa62002aa48262003a4d565b620039cd565b9150808252602083016020830185838301111562002ac757600080fd5b62002ad483828462003ca1565b50505092915050565b60008135905062002aee8162003d74565b92915050565b60008151905062002b058162003d74565b92915050565b60008060006060848603121562002b2157600080fd5b600084013567ffffffffffffffff81111562002b3c57600080fd5b62002b4a8682870162002a81565b935050602084013567ffffffffffffffff81111562002b6857600080fd5b62002b768682870162002a81565b925050604062002b898682870162002add565b9150509250925092565b600080600080600060a0868803121562002bac57600080fd5b600086013567ffffffffffffffff81111562002bc757600080fd5b62002bd58882890162002a81565b955050602086013567ffffffffffffffff81111562002bf357600080fd5b62002c018882890162002a81565b945050604062002c148882890162002add565b935050606062002c278882890162002add565b925050608086013567ffffffffffffffff81111562002c4557600080fd5b62002c538882890162002a81565b9150509295509295909350565b60006020828403121562002c7357600080fd5b600062002c838482850162002add565b91505092915050565b60006020828403121562002c9f57600080fd5b600062002caf8482850162002af4565b91505092915050565b6000806000806080858703121562002ccf57600080fd5b600062002cdf8782880162002add565b945050602085013567ffffffffffffffff81111562002cfd57600080fd5b62002d0b87828801620029c6565b935050604085013567ffffffffffffffff81111562002d2957600080fd5b62002d378782880162002939565b925050606062002d4a8782880162002a6a565b91505092959194509250565b60008060006060848603121562002d6c57600080fd5b600062002d7c8682870162002add565b935050602062002d8f8682870162002a53565b925050604062002da28682870162002a6a565b9150509250925092565b6000806040838503121562002dc057600080fd5b600062002dd08582860162002add565b925050602062002de38582860162002a6a565b9150509250929050565b6000806040838503121562002e0157600080fd5b600062002e118582860162002add565b925050602083013567ffffffffffffffff81111562002e2f57600080fd5b62002e3d8582860162002a81565b9150509250929050565b600062002e558383620031de565b60208301905092915050565b600062002e6f838362003402565b905092915050565b600062002e858383620034d0565b905092915050565b600062002e9b8383620035d0565b905092915050565b600062002eb1838362003657565b905092915050565b600062002ec78383620036e5565b60208301905092915050565b62002ede8162003c65565b82525050565b62002eef8162003c11565b82525050565b62002f008162003bfd565b82525050565b600062002f138262003ada565b62002f1f818562003b75565b935062002f2c8362003a7a565b8060005b8381101562002f6357815162002f47888262002e47565b975062002f548362003b27565b92505060018101905062002f30565b5085935050505092915050565b600062002f7d8262003ae5565b62002f89818562003b86565b93508360208202850162002f9d8562003a8a565b8060005b8581101562002fdf578484038952815162002fbd858262002e61565b945062002fca8362003b34565b925060208a0199505060018101905062002fa1565b50829750879550505050505092915050565b600062002ffe8262003af0565b6200300a818562003b97565b9350836020820285016200301e8562003a9a565b8060005b858110156200306057848403895281516200303e858262002e77565b94506200304b8362003b41565b925060208a0199505060018101905062003022565b50829750879550505050505092915050565b60006200307f8262003afb565b6200308b818562003ba8565b9350836020820285016200309f8562003aaa565b8060005b85811015620030e15784840389528151620030bf858262002e8d565b9450620030cc8362003b4e565b925060208a01995050600181019050620030a3565b50829750879550505050505092915050565b6000620031008262003b06565b6200310c818562003bb9565b935083602082028501620031208562003aba565b8060005b8581101562003162578484038952815162003140858262002ea3565b94506200314d8362003b5b565b925060208a0199505060018101905062003124565b50829750879550505050505092915050565b6000620031818262003b11565b6200318d818562003bca565b93506200319a8362003aca565b8060005b83811015620031d1578151620031b5888262002eb9565b9750620031c28362003b68565b9250506001810190506200319e565b5085935050505092915050565b620031e98162003c25565b82525050565b620031fa8162003c25565b82525050565b620032156200320f8262003c25565b62003ce6565b82525050565b620032268162003c31565b82525050565b620032416200323b8262003c31565b62003cfa565b82525050565b6000620032548262003b1c565b62003260818562003bdb565b93506200327281856020860162003cb0565b6200327d8162003d22565b840191505092915050565b60006200329760308362003bec565b91507f54686973206974656d206973206e6f7420696e207468652070656e64696e672060008301527f64656c6965766572792073746174652e000000000000000000000000000000006020830152604082019050919050565b6000620032ff60248362003bec565b91507f596f7520617265206e6f74207468652073656c6c6572206f662074686973206960008301527f74656d2e000000000000000000000000000000000000000000000000000000006020830152604082019050919050565b60006200336760138362003bec565b91507f4974656d206e6f7420617661696c61626c652e000000000000000000000000006000830152602082019050919050565b6000620033a9602d8362003bec565b91507f53656e7420616d6f756e742073686f756c6420626520657175616c20746f206160008301527f736b696e672070726963652021000000000000000000000000000000000000006020830152604082019050919050565b6000610100830160008301516200341d6000860182620036e5565b506020830151848203602086015262003437828262003247565b9150506040830151848203604086015262003453828262003247565b91505060608301516200346a606086018262002ef5565b5060808301516200347f6080860182620036e5565b5060a08301516200349460a0860182620036e5565b5060c0830151620034a960c0860182620036e5565b5060e083015184820360e0860152620034c3828262003247565b9150508091505092915050565b6000608083016000830151620034ea6000860182620036e5565b506020830151848203602086015262003504828262003247565b9150506040830151848203604086015262003520828262003247565b915050606083015184820360608601526200353c828262003247565b9150508091505092915050565b600060a083016000830151620035636000860182620036e5565b50602083015184820360208601526200357d828262003247565b9150506040830151848203604086015262003599828262003247565b9150506060830151620035b06060860182620036e5565b506080830151620035c5608086018262002ef5565b508091505092915050565b600060a083016000830151620035ea6000860182620036e5565b506020830151848203602086015262003604828262003247565b9150506040830151848203604086015262003620828262003247565b9150506060830151620036376060860182620036e5565b5060808301516200364c608086018262002ef5565b508091505092915050565b600060a083016000830151620036716000860182620036e5565b50602083015184820360208601526200368b828262003247565b91505060408301518482036040860152620036a7828262003247565b9150506060830151620036be6060860182620036e5565b5060808301518482036080860152620036d8828262003247565b9150508091505092915050565b620036f08162003c5b565b82525050565b620037018162003c5b565b82525050565b6200371c620037168262003c5b565b62003d04565b82525050565b600062003730828662003707565b60208201915062003742828562003200565b6001820191506200375482846200322c565b602082019150819050949350505050565b60006060820190506200377c600083018662002ed3565b6200378b60208301856200321b565b6200379a6040830184620036f6565b949350505050565b60006020820190508181036000830152620037be818462002f70565b905092915050565b60006020820190508181036000830152620037e2818462002ff1565b905092915050565b6000602082019050818103600083015262003806818462003072565b905092915050565b600060208201905081810360008301526200382a8184620030f3565b905092915050565b600060808201905081810360008301526200384e818762003174565b9050818103602083015262003864818662002f06565b90506200387560408301856200321b565b62003884606083018462002ed3565b95945050505050565b6000602082019050620038a46000830184620031ef565b92915050565b6000602082019050620038c160008301846200321b565b92915050565b60006020820190508181036000830152620038e28162003288565b9050919050565b600060208201905081810360008301526200390481620032f0565b9050919050565b60006020820190508181036000830152620039268162003358565b9050919050565b6000602082019050818103600083015262003948816200339a565b9050919050565b600060208201905081810360008301526200396b818462003549565b905092915050565b60006020820190506200398a6000830184620036f6565b92915050565b6000606082019050620039a76000830186620036f6565b620039b66020830185620036f6565b620039c5604083018462002ee4565b949350505050565b6000604051905081810181811067ffffffffffffffff82111715620039f157600080fd5b8060405250919050565b600067ffffffffffffffff82111562003a1357600080fd5b602082029050602081019050919050565b600067ffffffffffffffff82111562003a3c57600080fd5b602082029050602081019050919050565b600067ffffffffffffffff82111562003a6557600080fd5b601f19601f8301169050602081019050919050565b6000819050602082019050919050565b6000819050602082019050919050565b6000819050602082019050919050565b6000819050602082019050919050565b6000819050602082019050919050565b6000819050602082019050919050565b600081519050919050565b600081519050919050565b600081519050919050565b600081519050919050565b600081519050919050565b600081519050919050565b600081519050919050565b6000602082019050919050565b6000602082019050919050565b6000602082019050919050565b6000602082019050919050565b6000602082019050919050565b6000602082019050919050565b600082825260208201905092915050565b600082825260208201905092915050565b600082825260208201905092915050565b600082825260208201905092915050565b600082825260208201905092915050565b600082825260208201905092915050565b600082825260208201905092915050565b600082825260208201905092915050565b600062003c0a8262003c3b565b9050919050565b600062003c1e8262003c3b565b9050919050565b60008115159050919050565b6000819050919050565b600073ffffffffffffffffffffffffffffffffffffffff82169050919050565b6000819050919050565b600062003c728262003c79565b9050919050565b600062003c868262003c8d565b9050919050565b600062003c9a8262003c3b565b9050919050565b82818337600083830152505050565b60005b8381101562003cd057808201518184015260208101905062003cb3565b8381111562003ce0576000848401525b50505050565b600062003cf38262003d0e565b9050919050565b6000819050919050565b6000819050919050565b600062003d1b8262003d33565b9050919050565b6000601f19601f8301169050919050565b60008160f81b9050919050565b62003d4b8162003c25565b811462003d5757600080fd5b50565b62003d658162003c31565b811462003d7157600080fd5b50565b62003d7f8162003c5b565b811462003d8b57600080fd5b5056fe60806040523480156200001157600080fd5b5060405162000e4538038062000e458339818101604052620000379190810190620000c2565b806000806101000a81548173ffffffffffffffffffffffffffffffffffffffff021916908373ffffffffffffffffffffffffffffffffffffffff16021790555082420160018190555081600154016002819055505050506200018a565b600081519050620000a58162000156565b92915050565b600081519050620000bc8162000170565b92915050565b600080600060608486031215620000d857600080fd5b6000620000e886828701620000ab565b9350506020620000fb86828701620000ab565b92505060406200010e8682870162000094565b9150509250925092565b600062000125826200012c565b9050919050565b600073ffffffffffffffffffffffffffffffffffffffff82169050919050565b6000819050919050565b620001618162000118565b81146200016d57600080fd5b50565b6200017b816200014c565b81146200018757600080fd5b50565b610cab806200019a6000396000f3fe608060405234801561001057600080fd5b50600436106100935760003560e01c80633b379797116100665780633b3797971461010f578063423b217f1461013f578063a6e664771461015d578063e9b036e91461017b578063fb31c409146101ab57610093565b806301495c1c1461009857806312fa6feb146100c95780632a24f46c146100e757806338af3eed146100f1575b600080fd5b6100b260048036036100ad91908101906108df565b6101c7565b6040516100c0929190610aa2565b60405180910390f35b6100d1610205565b6040516100de9190610a87565b60405180910390f35b6100ef610218565b005b6100f961029f565b6040516101069190610a6c565b60405180910390f35b6101296004803603610124919081019061091b565b6102c4565b6040516101369190610acb565b60405180910390f35b61014761048a565b6040516101549190610acb565b60405180910390f35b610165610490565b6040516101729190610acb565b60405180910390f35b61019560048036036101909190810190610867565b610496565b6040516101a29190610acb565b60405180910390f35b6101c560048036036101c09190810190610890565b610533565b005b600560205281600052604060002081815481106101e057fe5b9060005260206000209060020201600091509150508060000154908060010154905082565b600360009054906101000a900460ff1681565b6001600360006101000a81548160ff0219169083151502179055506000809054906101000a900473ffffffffffffffffffffffffffffffffffffffff1673ffffffffffffffffffffffffffffffffffffffff166108fc6007549081150290604051600060405180830381858888f1935050505015801561029c573d6000803e3d6000fd5b50565b6000809054906101000a900473ffffffffffffffffffffffffffffffffffffffff1681565b60006001548042116102d557600080fd5b6002548042106102e457600080fd5b6000600560008673ffffffffffffffffffffffffffffffffffffffff1673ffffffffffffffffffffffffffffffffffffffff1681526020019081526020016000208054905090508088511461033857600080fd5b8087511461034557600080fd5b600080905060008090505b8281101561047a576000600560008973ffffffffffffffffffffffffffffffffffffffff1673ffffffffffffffffffffffffffffffffffffffff16815260200190815260200160002082815481106103a457fe5b9060005260206000209060020201905060008060008d85815181106103c557fe5b60200260200101518d86815181106103d957fe5b60200260200101518d9250925092508282826040516020016103fd93929190610a2f565b60405160208183030381529060405280519060200120846000015414610426575050505061046d565b83600101548601955081158015610441575082846001015410155b1561045c576104508b846105de565b1561045b5782860395505b5b6000801b8460000181905550505050505b8080600101915050610350565b5080945050505050949350505050565b60015481565b60025481565b600080600660008473ffffffffffffffffffffffffffffffffffffffff1673ffffffffffffffffffffffffffffffffffffffff168152602001908152602001600020549050600081111561052a576000600660008573ffffffffffffffffffffffffffffffffffffffff1673ffffffffffffffffffffffffffffffffffffffff168152602001908152602001600020819055505b80915050919050565b60015480421061054257600080fd5b600560008573ffffffffffffffffffffffffffffffffffffffff1673ffffffffffffffffffffffffffffffffffffffff16815260200190815260200160002060405180604001604052808581526020018481525090806001815401808255809150509060018203906000526020600020906002020160009091929091909150600082015181600001556020820151816001015550505050505050565b600060075482116105f25760009050610707565b600073ffffffffffffffffffffffffffffffffffffffff16600860009054906101000a900473ffffffffffffffffffffffffffffffffffffffff1673ffffffffffffffffffffffffffffffffffffffff16146106ba5760075460066000600860009054906101000a900473ffffffffffffffffffffffffffffffffffffffff1673ffffffffffffffffffffffffffffffffffffffff1673ffffffffffffffffffffffffffffffffffffffff168152602001908152602001600020600082825401925050819055505b8160078190555082600860006101000a81548173ffffffffffffffffffffffffffffffffffffffff021916908373ffffffffffffffffffffffffffffffffffffffff160217905550600190505b92915050565b60008135905061071c81610c0c565b92915050565b600082601f83011261073357600080fd5b813561074661074182610b13565b610ae6565b9150818183526020840193506020810190508385602084028201111561076b57600080fd5b60005b8381101561079b57816107818882610828565b84526020840193506020830192505060018101905061076e565b5050505092915050565b600082601f8301126107b657600080fd5b81356107c96107c482610b3b565b610ae6565b915081818352602084019350602081019050838560208402820111156107ee57600080fd5b60005b8381101561081e57816108048882610852565b8452602084019350602083019250506001810190506107f1565b5050505092915050565b60008135905061083781610c23565b92915050565b60008135905061084c81610c3a565b92915050565b60008135905061086181610c51565b92915050565b60006020828403121561087957600080fd5b60006108878482850161070d565b91505092915050565b6000806000606084860312156108a557600080fd5b60006108b38682870161070d565b93505060206108c48682870161083d565b92505060406108d586828701610852565b9150509250925092565b600080604083850312156108f257600080fd5b60006109008582860161070d565b925050602061091185828601610852565b9150509250929050565b6000806000806080858703121561093157600080fd5b600085013567ffffffffffffffff81111561094b57600080fd5b610957878288016107a5565b945050602085013567ffffffffffffffff81111561097457600080fd5b61098087828801610722565b93505060406109918782880161083d565b92505060606109a28782880161070d565b91505092959194509250565b6109b781610b75565b82525050565b6109c681610b87565b82525050565b6109dd6109d882610b87565b610bc7565b82525050565b6109ec81610b93565b82525050565b610a036109fe82610b93565b610bd9565b82525050565b610a1281610bbd565b82525050565b610a29610a2482610bbd565b610be3565b82525050565b6000610a3b8286610a18565b602082019150610a4b82856109cc565b600182019150610a5b82846109f2565b602082019150819050949350505050565b6000602082019050610a8160008301846109ae565b92915050565b6000602082019050610a9c60008301846109bd565b92915050565b6000604082019050610ab760008301856109e3565b610ac46020830184610a09565b9392505050565b6000602082019050610ae06000830184610a09565b92915050565b6000604051905081810181811067ffffffffffffffff82111715610b0957600080fd5b8060405250919050565b600067ffffffffffffffff821115610b2a57600080fd5b602082029050602081019050919050565b600067ffffffffffffffff821115610b5257600080fd5b602082029050602081019050919050565b6000610b6e82610b9d565b9050919050565b6000610b8082610b9d565b9050919050565b60008115159050919050565b6000819050919050565b600073ffffffffffffffffffffffffffffffffffffffff82169050919050565b6000819050919050565b6000610bd282610bed565b9050919050565b6000819050919050565b6000819050919050565b6000610bf882610bff565b9050919050565b60008160f81b9050919050565b610c1581610b63565b8114610c2057600080fd5b50565b610c2c81610b87565b8114610c3757600080fd5b50565b610c4381610b93565b8114610c4e57600080fd5b50565b610c5a81610bbd565b8114610c6557600080fd5b5056fea365627a7a723158208961c98af191b6ec86970daa8b251a90fc78ed8855feff63f18132e01e25348d6c6578706572696d656e74616cf564736f6c63430005100040a365627a7a72315820ec1396b93c73b0ad12dd737d1177cb9db6ef384a1bbd8d42082cf9594daa87866c6578706572696d656e74616cf564736f6c63430005100040",
  "source": "// SPDX-License-Identifier: MIT\npragma experimental ABIEncoderV2;\npragma solidity >=0.4.22 <0.9.0;\nimport './FirstPriceAuction.sol';\n\ncontract Factory {\n    \n}\ncontract SmartStore {\n    /// @author Heisenberg team\n\n    enum State {UNDEFINED, AVAILABLE, PENDING_DELIVERY, DELIVERED}\n\n    struct Listing {\n        uint listingID;\n        string itemName;\n        string itemDescription;\n        uint askingPrice;\n        address sellerID;\n    }\n\n    struct Auction {\n        uint auctionID;\n        string itemName;\n        string itemDescription;\n        address sellerId;\n        uint startTime;\n        uint biddingTime;\n        uint revealTime;\n        string method;\n    }\n\n    struct PendingItem {\n        uint listingID;\n        string itemName;\n        string itemDescription;\n        uint askingPrice;\n        string publicKey;\n    }\n\n    struct BoughtItem {\n        uint listingID;\n        string itemName;\n        string itemDescription;\n        string itemText;\n    }\n\n\n    constructor() public {\n\n    }\n\n    /// @dev list of pending deliveries for each seller\n    mapping(address => PendingItem[]) pendingDeliveries;\n    /// @dev address of the seller who is selling a particular product\n    mapping(uint => address) sellers;\n    /// @dev address of the person who has paid money to the contract to buy a particular product\n    mapping(uint => address) buyers;\n    /// @dev state of each product in the listing\n    mapping(uint => State) status;\n    /// @dev list of items which each person has bought and has been deliverd\n    mapping(address => BoughtItem[]) myItems;\n    mapping(uint => BaseAuction) auctionContracts;\n\n    /// @dev list of all products. Also includes products which have already been sold\n    Listing[] private listings;\n    Auction[] private auctions;\n\n    uint listingCounter = 0;\n    uint auctionCounter = 0;\n\n    modifier onlyAvailable(uint itemID) {\n        require (\n            status[itemID] == State.AVAILABLE,\n            \"Item not available.\"\n        );\n        _;\n    }\n\n    modifier onlySeller(uint itemID) {\n        require (\n            sellers[itemID] == msg.sender,\n            \"You are not the seller of this item.\"\n        );\n        _;\n    }\n\n\n    /**\n     * @notice sellers use this to add a new product they want to sell into the list of available products\n     * @param itemName the name of the item to be sold\n     * @param itemDescription description of the item to be sold \n     * @param askingPrice price of the item to be sold\n     */\n    function addListing(string memory itemName, string memory itemDescription, uint askingPrice) public {\n        Listing memory listing = Listing(listingCounter, itemName, itemDescription, askingPrice, msg.sender);\n        sellers[listingCounter] = msg.sender;\n        status[listingCounter] = State.AVAILABLE;\n        listings.push(listing);\n        listingCounter++;\n    }\n    function getNumberOfListings() public returns (uint) {\n        return listings.length;\n    }\n\n    function getParticularListing(uint idx) public view returns (Listing memory) {\n        return listings[idx];\n    }\n\n    function getStatusOfListing(uint itemID) public view returns (bool) {\n        if(status[itemID] == State.AVAILABLE) {\n            return true;\n        } else {\n            return false;\n        }\n    }\n\n    function addAuction(string memory itemName, string memory itemDescription, uint biddingTime, uint revealTime, string memory method) public {\n        Auction memory auction = Auction(auctionCounter, itemName, itemDescription, msg.sender, now, biddingTime, revealTime, method);\n        auctions.push(auction);\n        auctionContracts[auctionCounter] = new FirstPriceAuction(biddingTime, revealTime, msg.sender);\n        auctionCounter++;\n    }\n\n    function placeBid(uint auctionID, bytes32 _blindedBid) public payable{\n        auctionContracts[auctionID].bid(msg.sender, _blindedBid, msg.value);\n    }\n    function revealBid(uint auctionID, uint[] memory values, bool[] memory fake, bytes32 secret) public {\n        uint refundAmount = auctionContracts[auctionID].reveal(values, fake, secret, msg.sender);\n        address payable bidderAddress = msg.sender;\n        bidderAddress.transfer(refundAmount);\n    }\n    function getAuctions() public view returns (Auction[] memory) {\n        uint available = 0;\n        for(uint i = 0; i < auctions.length; i++) {\n            uint itemID = auctions[i].auctionID;\n            if(now < auctions[i].startTime + auctions[i].biddingTime) {\n                available++;\n            }\n        }\n\n        Auction[] memory activeAuctions = new Auction[](available);\n        uint index = 0;\n        for(uint i = 0; i < auctions.length; i++) {\n            uint itemID = auctions[i].auctionID;\n            if(now < auctions[i].startTime + auctions[i].biddingTime) {\n                activeAuctions[index++] = auctions[i];\n            }\n        }\n        return activeAuctions;\n    }\n    function getHash(uint value, bool fake, bytes32 secret) public view returns (bytes32) {\n        bytes32 hash = keccak256(abi.encodePacked(value, fake, secret));\n        return hash;\n    }\n    /**\n     * @notice used to get a list of all the products which are available for sale\n     * @return the list of active products\n     */\n    function getListings() public view returns (Listing[] memory) {\n        uint available = 0;\n        for(uint i = 0; i < listings.length; i++) {\n            uint itemID = listings[i].listingID;\n            if(status[itemID] == State.AVAILABLE) {\n                available++;\n            }\n        }\n\n        Listing[] memory activeListings = new Listing[](available);\n        uint index = 0;\n        for(uint i = 0; i < listings.length; i++) {\n            uint itemID = listings[i].listingID;\n            if(status[itemID] == State.AVAILABLE) {\n                activeListings[index++] = listings[i];\n            }\n        }\n        return activeListings;\n    }\n\n    /**\n     * @notice buyers use this to buy a product which is available for sale\n     * @dev calling this function adds the product into the list of pending deliveries for the corresponding seller \n     * @param itemID ID of the item to be bought\n     * @param publicKey publick key which will be used for encrypting the product string by the seller. Buyer must have the corresponding private key to decrypt the message\n     */\n    function buyListing(uint itemID, string memory publicKey) public onlyAvailable(itemID) payable {\n        require (\n            msg.value == listings[itemID].askingPrice,\n            \"Sent amount should be equal to asking price !\"\n        );\n        \n\n        buyers[itemID] = msg.sender;\n\n        Listing memory item = listings[itemID];\n\n        status[itemID] = State.PENDING_DELIVERY;\n        \n        address sellerAddress = sellers[itemID];\n        PendingItem memory pendingItem = PendingItem(item.listingID, item.itemName, item.itemDescription, item.askingPrice, publicKey);\n        pendingDeliveries[sellerAddress].push(pendingItem);\n    }\n\n    /**\n     * @notice sellers can use this to get a list of products they need to deliever\n     * @return the list of products which needs to be delievered\n     */\n    function getPendingTransactions() public view returns (PendingItem[] memory) {\n        return pendingDeliveries[msg.sender];\n    }\n\n    /**\n     * @notice function to deliver an item. The seller must send the itemText by correctly encrypting it with the public key assosciated with that product\n     * @param itemID ID of the product which needs to be delivered\n     * @param itemText encrypted text assosicated with the product that is being delivered\n     */ \n    function delieverItem(uint itemID, string memory itemText) public onlySeller(itemID) {\n        \n        require (\n            status[itemID] == State.PENDING_DELIVERY,\n            \"This item is not in the pending delievery state.\"\n        );\n\n        \n        status[itemID] = State.DELIVERED;\n\n        uint len = pendingDeliveries[msg.sender].length;\n        for(uint i = 0; i < len; i++) {\n            if(pendingDeliveries[msg.sender][i].listingID == itemID) {\n                pendingDeliveries[msg.sender][i] = pendingDeliveries[msg.sender][len - 1];\n                delete pendingDeliveries[msg.sender][len - 1];\n                pendingDeliveries[msg.sender].length--;\n                break;\n            }\n        }\n\n        address buyerAddress = buyers[itemID];\n        Listing memory item = listings[itemID];\n        BoughtItem memory boughtItem = BoughtItem(item.listingID, item.itemName, item.itemDescription, itemText);\n\n        myItems[buyerAddress].push(boughtItem);  \n        \n        address payable sellerAddress = msg.sender;\n        sellerAddress.transfer(listings[itemID].askingPrice);\n    }\n\n    /**\n     * @notice buyers can use this function to get a list of products which they bought and that have been delievered \n     * @return list of products which have been delievered to a particular buyer\n     */\n    function getItems() public view returns (BoughtItem[] memory){\n        return myItems[msg.sender];\n    }\n}\n",
  "sourcePath": "/home/vasu0403/college/sem7/Blockchain/Auctions/contracts/SmartStore.sol",
  "compiler": {
    "name": "solc",
    "version": "0.5.16+commit.9c3226ce.Emscripten.clang"
  },
  "schemaVersion": "3.4.3",
  "updatedAt": "2021-10-11T18:58:56.788Z",
  "networkType": "ethereum",
  "devdoc": {
    "methods": {
      "addListing(string,string,uint256)": {
        "params": {
          "askingPrice": "price of the item to be sold",
          "itemDescription": "description of the item to be sold ",
          "itemName": "the name of the item to be sold"
        }
      },
      "buyListing(uint256,string)": {
        "details": "calling this function adds the product into the list of pending deliveries for the corresponding seller ",
        "params": {
          "itemID": "ID of the item to be bought",
          "publicKey": "publick key which will be used for encrypting the product string by the seller. Buyer must have the corresponding private key to decrypt the message"
        }
      },
      "delieverItem(uint256,string)": {
        "params": {
          "itemID": "ID of the product which needs to be delivered",
          "itemText": "encrypted text assosicated with the product that is being delivered"
        }
      },
      "getItems()": {
        "return": "list of products which have been delievered to a particular buyer"
      },
      "getListings()": {
        "return": "the list of active products"
      },
      "getPendingTransactions()": {
        "return": "the list of products which needs to be delievered"
      }
    }
  },
  "userdoc": {
    "methods": {
      "addListing(string,string,uint256)": {
        "notice": "sellers use this to add a new product they want to sell into the list of available products"
      },
      "buyListing(uint256,string)": {
        "notice": "buyers use this to buy a product which is available for sale"
      },
      "delieverItem(uint256,string)": {
        "notice": "function to deliver an item. The seller must send the itemText by correctly encrypting it with the public key assosciated with that product"
      },
      "getItems()": {
        "notice": "buyers can use this function to get a list of products which they bought and that have been delievered "
      },
      "getListings()": {
        "notice": "used to get a list of all the products which are available for sale"
      },
      "getPendingTransactions()": {
        "notice": "sellers can use this to get a list of products they need to deliever"
      }
    }
  }
}